{
	"Variables.sol": {
		"Workingwithvariables": {
			"abi": [
				{
					"inputs": [],
					"name": "myBool",
					"outputs": [
						{
							"internalType": "bool",
							"name": "",
							"type": "bool"
						}
					],
					"stateMutability": "view",
					"type": "function"
				},
				{
					"inputs": [],
					"name": "myUint",
					"outputs": [
						{
							"internalType": "uint256",
							"name": "",
							"type": "uint256"
						}
					],
					"stateMutability": "view",
					"type": "function"
				},
				{
					"inputs": [
						{
							"internalType": "uint256",
							"name": "_myUint",
							"type": "uint256"
						}
					],
					"name": "setMyuint",
					"outputs": [],
					"stateMutability": "nonpayable",
					"type": "function"
				}
			],
			"devdoc": {
				"kind": "dev",
				"methods": {},
				"version": 1
			},
			"evm": {
				"assembly": "    /* \"Variables.sol\":27:273  contract Workingwithvariables {\r... */\n  mstore(0x40, 0x80)\n  callvalue\n  dup1\n  iszero\n  tag_1\n  jumpi\n  0x00\n  dup1\n  revert\ntag_1:\n  pop\n  dataSize(sub_0)\n  dup1\n  dataOffset(sub_0)\n  0x00\n  codecopy\n  0x00\n  return\nstop\n\nsub_0: assembly {\n        /* \"Variables.sol\":27:273  contract Workingwithvariables {\r... */\n      mstore(0x40, 0x80)\n      callvalue\n      dup1\n      iszero\n      tag_1\n      jumpi\n      0x00\n      dup1\n      revert\n    tag_1:\n      pop\n      jumpi(tag_2, lt(calldatasize, 0x04))\n      div(calldataload(0x00), 0x0100000000000000000000000000000000000000000000000000000000)\n      0x06540f7e\n      dup2\n      eq\n      tag_3\n      jumpi\n      dup1\n      0x66335767\n      eq\n      tag_4\n      jumpi\n      dup1\n      0x6deecdbe\n      eq\n      tag_5\n      jumpi\n    tag_2:\n      0x00\n      dup1\n      revert\n        /* \"Variables.sol\":64:85  uint256 public myUint */\n    tag_3:\n      tag_6\n      sload(0x00)\n      dup2\n      jump\n    tag_6:\n      mload(0x40)\n        /* \"#utility.yul\":537:562   */\n      swap1\n      dup2\n      mstore\n        /* \"#utility.yul\":525:527   */\n      0x20\n        /* \"#utility.yul\":510:528   */\n      add\n        /* \"Variables.sol\":64:85  uint256 public myUint */\n    tag_8:\n      mload(0x40)\n      dup1\n      swap2\n      sub\n      swap1\n      return\n        /* \"Variables.sol\":159:234  function setMyuint(uint _myUint) public {\r... */\n    tag_4:\n      tag_10\n      tag_11\n      calldatasize\n      0x04\n      tag_12\n      jump\t// in\n    tag_11:\n        /* \"Variables.sol\":210:216  myUint */\n      0x00\n        /* \"Variables.sol\":210:226  myUint = _myUint */\n      sstore\n        /* \"Variables.sol\":159:234  function setMyuint(uint _myUint) public {\r... */\n      jump\n    tag_10:\n      stop\n        /* \"Variables.sol\":240:258  bool public myBool */\n    tag_5:\n      sload(0x01)\n      tag_14\n      swap1\n      0xff\n      and\n      dup2\n      jump\n    tag_14:\n      mload(0x40)\n        /* \"#utility.yul\":364:378   */\n      swap1\n      iszero\n        /* \"#utility.yul\":357:379   */\n      iszero\n        /* \"#utility.yul\":339:380   */\n      dup2\n      mstore\n        /* \"#utility.yul\":327:329   */\n      0x20\n        /* \"#utility.yul\":312:330   */\n      add\n        /* \"Variables.sol\":240:258  bool public myBool */\n      tag_8\n        /* \"#utility.yul\":199:386   */\n      jump\n        /* \"#utility.yul\":14:194   */\n    tag_12:\n        /* \"#utility.yul\":73:79   */\n      0x00\n        /* \"#utility.yul\":126:128   */\n      0x20\n        /* \"#utility.yul\":114:123   */\n      dup3\n        /* \"#utility.yul\":105:112   */\n      dup5\n        /* \"#utility.yul\":101:124   */\n      sub\n        /* \"#utility.yul\":97:129   */\n      slt\n        /* \"#utility.yul\":94:146   */\n      iszero\n      tag_21\n      jumpi\n        /* \"#utility.yul\":142:143   */\n      0x00\n        /* \"#utility.yul\":139:140   */\n      dup1\n        /* \"#utility.yul\":132:144   */\n      revert\n        /* \"#utility.yul\":94:146   */\n    tag_21:\n      pop\n        /* \"#utility.yul\":165:188   */\n      calldataload\n      swap2\n        /* \"#utility.yul\":14:194   */\n      swap1\n      pop\n      jump\t// out\n\n    auxdata: 0xa264697066735822122022c264e94bfa8b30e3761ae1b6f06cb6d0660a34f3ad523e92edb426c4e490a464736f6c63430008070033\n}\n",
				"bytecode": {
					"linkReferences": {},
					"object": "608060405234801561001057600080fd5b5060f38061001f6000396000f3fe6080604052348015600f57600080fd5b50600436106058577c0100000000000000000000000000000000000000000000000000000000600035046306540f7e8114605d578063663357671460785780636deecdbe14608a575b600080fd5b606560005481565b6040519081526020015b60405180910390f35b6088608336600460a5565b600055565b005b60015460969060ff1681565b6040519015158152602001606f565b60006020828403121560b657600080fd5b503591905056fea264697066735822122022c264e94bfa8b30e3761ae1b6f06cb6d0660a34f3ad523e92edb426c4e490a464736f6c63430008070033",
					"opcodes": "PUSH1 0x80 PUSH1 0x40 MSTORE CALLVALUE DUP1 ISZERO PUSH2 0x10 JUMPI PUSH1 0x0 DUP1 REVERT JUMPDEST POP PUSH1 0xF3 DUP1 PUSH2 0x1F PUSH1 0x0 CODECOPY PUSH1 0x0 RETURN INVALID PUSH1 0x80 PUSH1 0x40 MSTORE CALLVALUE DUP1 ISZERO PUSH1 0xF JUMPI PUSH1 0x0 DUP1 REVERT JUMPDEST POP PUSH1 0x4 CALLDATASIZE LT PUSH1 0x58 JUMPI PUSH29 0x100000000000000000000000000000000000000000000000000000000 PUSH1 0x0 CALLDATALOAD DIV PUSH4 0x6540F7E DUP2 EQ PUSH1 0x5D JUMPI DUP1 PUSH4 0x66335767 EQ PUSH1 0x78 JUMPI DUP1 PUSH4 0x6DEECDBE EQ PUSH1 0x8A JUMPI JUMPDEST PUSH1 0x0 DUP1 REVERT JUMPDEST PUSH1 0x65 PUSH1 0x0 SLOAD DUP2 JUMP JUMPDEST PUSH1 0x40 MLOAD SWAP1 DUP2 MSTORE PUSH1 0x20 ADD JUMPDEST PUSH1 0x40 MLOAD DUP1 SWAP2 SUB SWAP1 RETURN JUMPDEST PUSH1 0x88 PUSH1 0x83 CALLDATASIZE PUSH1 0x4 PUSH1 0xA5 JUMP JUMPDEST PUSH1 0x0 SSTORE JUMP JUMPDEST STOP JUMPDEST PUSH1 0x1 SLOAD PUSH1 0x96 SWAP1 PUSH1 0xFF AND DUP2 JUMP JUMPDEST PUSH1 0x40 MLOAD SWAP1 ISZERO ISZERO DUP2 MSTORE PUSH1 0x20 ADD PUSH1 0x6F JUMP JUMPDEST PUSH1 0x0 PUSH1 0x20 DUP3 DUP5 SUB SLT ISZERO PUSH1 0xB6 JUMPI PUSH1 0x0 DUP1 REVERT JUMPDEST POP CALLDATALOAD SWAP2 SWAP1 POP JUMP INVALID LOG2 PUSH5 0x6970667358 0x22 SLT KECCAK256 0x22 0xC2 PUSH5 0xE94BFA8B30 0xE3 PUSH23 0x1AE1B6F06CB6D0660A34F3AD523E92EDB426C4E490A464 PUSH20 0x6F6C634300080700330000000000000000000000 "
				},
				"gasEstimates": {
					"creation": {
						"codeDepositCost": "48600",
						"executionCost": "99",
						"totalCost": "48699"
					},
					"external": {
						"myBool()": "434",
						"myUint()": "364",
						"setMyuint(uint256)": "20214"
					}
				},
				"methodIdentifiers": {
					"myBool()": "6deecdbe",
					"myUint()": "06540f7e",
					"setMyuint(uint256)": "66335767"
				}
			},
			"storageLayout": {
				"storage": [
					{
						"astId": 3,
						"contract": "Variables.sol:Workingwithvariables",
						"label": "myUint",
						"offset": 0,
						"slot": "0",
						"type": "t_uint256"
					},
					{
						"astId": 15,
						"contract": "Variables.sol:Workingwithvariables",
						"label": "myBool",
						"offset": 0,
						"slot": "1",
						"type": "t_bool"
					}
				],
				"types": {
					"t_bool": {
						"encoding": "inplace",
						"label": "bool",
						"numberOfBytes": "1"
					},
					"t_uint256": {
						"encoding": "inplace",
						"label": "uint256",
						"numberOfBytes": "32"
					}
				}
			},
			"userdoc": {
				"kind": "user",
				"methods": {},
				"version": 1
			}
		}
	}
}