{
	"Variables.sol": {
		"Workingwithvariables": {
			"abi": [
				{
					"inputs": [],
					"name": "decrementUint",
					"outputs": [],
					"stateMutability": "nonpayable",
					"type": "function"
				},
				{
					"inputs": [],
					"name": "getBalance",
					"outputs": [
						{
							"internalType": "uint256",
							"name": "",
							"type": "uint256"
						}
					],
					"stateMutability": "view",
					"type": "function"
				},
				{
					"inputs": [],
					"name": "incrementUint",
					"outputs": [],
					"stateMutability": "nonpayable",
					"type": "function"
				},
				{
					"inputs": [],
					"name": "myAdress",
					"outputs": [
						{
							"internalType": "address",
							"name": "",
							"type": "address"
						}
					],
					"stateMutability": "view",
					"type": "function"
				},
				{
					"inputs": [],
					"name": "myBool",
					"outputs": [
						{
							"internalType": "bool",
							"name": "",
							"type": "bool"
						}
					],
					"stateMutability": "view",
					"type": "function"
				},
				{
					"inputs": [],
					"name": "myUint",
					"outputs": [
						{
							"internalType": "uint256",
							"name": "",
							"type": "uint256"
						}
					],
					"stateMutability": "view",
					"type": "function"
				},
				{
					"inputs": [],
					"name": "myUint8",
					"outputs": [
						{
							"internalType": "uint8",
							"name": "",
							"type": "uint8"
						}
					],
					"stateMutability": "view",
					"type": "function"
				},
				{
					"inputs": [],
					"name": "mystring",
					"outputs": [
						{
							"internalType": "string",
							"name": "",
							"type": "string"
						}
					],
					"stateMutability": "view",
					"type": "function"
				},
				{
					"inputs": [
						{
							"internalType": "address",
							"name": "_adress",
							"type": "address"
						}
					],
					"name": "setAdress",
					"outputs": [],
					"stateMutability": "nonpayable",
					"type": "function"
				},
				{
					"inputs": [
						{
							"internalType": "bool",
							"name": "_myBool",
							"type": "bool"
						}
					],
					"name": "setMyBool",
					"outputs": [],
					"stateMutability": "nonpayable",
					"type": "function"
				},
				{
					"inputs": [
						{
							"internalType": "uint256",
							"name": "_myUint",
							"type": "uint256"
						}
					],
					"name": "setMyuint",
					"outputs": [],
					"stateMutability": "nonpayable",
					"type": "function"
				}
			],
			"devdoc": {
				"kind": "dev",
				"methods": {},
				"version": 1
			},
			"evm": {
				"assembly": "    /* \"Variables.sol\":739:777  string public mystring = 'Hello world' */\n  0xc0\n    /* \"Variables.sol\":27:789  contract Workingwithvariables {\r... */\n  0x40\n    /* \"Variables.sol\":739:777  string public mystring = 'Hello world' */\n  mstore\n  0x0b\n    /* \"Variables.sol\":27:789  contract Workingwithvariables {\r... */\n  0x80\n    /* \"Variables.sol\":739:777  string public mystring = 'Hello world' */\n  dup2\n  swap1\n  mstore\n  0x48656c6c6f20776f726c64000000000000000000000000000000000000000000\n  0xa0\n  swap1\n  dup2\n  mstore\n  tag_1\n  swap2\n  0x02\n  swap2\n  swap1\n  tag_2\n  jump\t// in\ntag_1:\n  pop\n    /* \"Variables.sol\":27:789  contract Workingwithvariables {\r... */\n  callvalue\n  dup1\n  iszero\n  tag_3\n  jumpi\n  0x00\n  dup1\n  revert\ntag_3:\n  pop\n  jump(tag_16)\ntag_2:\n  dup3\n  dup1\n  sload\n  tag_5\n  swap1\n  tag_6\n  jump\t// in\ntag_5:\n  swap1\n  0x00\n  mstore\n  keccak256(0x00, 0x20)\n  swap1\n  0x1f\n  add\n  0x20\n  swap1\n  div\n  dup2\n  add\n  swap3\n  dup3\n  tag_8\n  jumpi\n  0x00\n  dup6\n  sstore\n  jump(tag_11)\ntag_8:\n  dup3\n  0x1f\n  lt\n  tag_9\n  jumpi\n  dup1\n  mload\n  not(0xff)\n  and\n  dup4\n  dup1\n  add\n  or\n  dup6\n  sstore\n  jump(tag_11)\ntag_9:\n  dup3\n  dup1\n  add\n  0x01\n  add\n  dup6\n  sstore\n  dup3\n  iszero\n  tag_11\n  jumpi\n  swap2\n  dup3\n  add\ntag_10:\n  dup3\n  dup2\n  gt\n  iszero\n  tag_11\n  jumpi\n  dup3\n  mload\n  dup3\n  sstore\n  swap2\n  0x20\n  add\n  swap2\n  swap1\n  0x01\n  add\n  swap1\n  jump(tag_10)\ntag_11:\n  pop\n  tag_12\n  swap3\n  swap2\n  pop\n  tag_13\n  jump\t// in\ntag_12:\n  pop\n  swap1\n  jump\t// out\ntag_13:\ntag_14:\n  dup1\n  dup3\n  gt\n  iszero\n  tag_12\n  jumpi\n  0x00\n  dup2\n  sstore\n  0x01\n  add\n  jump(tag_14)\n    /* \"#utility.yul\":14:451   */\ntag_6:\n    /* \"#utility.yul\":99:100   */\n  0x02\n    /* \"#utility.yul\":89:101   */\n  dup2\n  div\n    /* \"#utility.yul\":146:147   */\n  0x01\n    /* \"#utility.yul\":136:148   */\n  dup3\n  and\n  dup1\n    /* \"#utility.yul\":157:218   */\n  tag_18\n  jumpi\n    /* \"#utility.yul\":211:215   */\n  0x7f\n    /* \"#utility.yul\":203:209   */\n  dup3\n    /* \"#utility.yul\":199:216   */\n  and\n    /* \"#utility.yul\":189:216   */\n  swap2\n  pop\n    /* \"#utility.yul\":157:218   */\ntag_18:\n    /* \"#utility.yul\":264:266   */\n  0x20\n    /* \"#utility.yul\":256:262   */\n  dup3\n    /* \"#utility.yul\":253:267   */\n  lt\n    /* \"#utility.yul\":233:251   */\n  dup2\n    /* \"#utility.yul\":230:268   */\n  eq\n    /* \"#utility.yul\":227:445   */\n  iszero\n  tag_19\n  jumpi\n    /* \"#utility.yul\":301:378   */\n  0x4e487b7100000000000000000000000000000000000000000000000000000000\n    /* \"#utility.yul\":298:299   */\n  0x00\n    /* \"#utility.yul\":291:379   */\n  mstore\n    /* \"#utility.yul\":402:406   */\n  0x22\n    /* \"#utility.yul\":399:400   */\n  0x04\n    /* \"#utility.yul\":392:407   */\n  mstore\n    /* \"#utility.yul\":430:434   */\n  0x24\n    /* \"#utility.yul\":427:428   */\n  0x00\n    /* \"#utility.yul\":420:435   */\n  revert\n    /* \"#utility.yul\":227:445   */\ntag_19:\n  pop\n    /* \"#utility.yul\":14:451   */\n  swap2\n  swap1\n  pop\n  jump\t// out\ntag_16:\n    /* \"Variables.sol\":27:789  contract Workingwithvariables {\r... */\n  dataSize(sub_0)\n  dup1\n  dataOffset(sub_0)\n  0x00\n  codecopy\n  0x00\n  return\nstop\n\nsub_0: assembly {\n        /* \"Variables.sol\":27:789  contract Workingwithvariables {\r... */\n      mstore(0x40, 0x80)\n      callvalue\n      dup1\n      iszero\n      tag_1\n      jumpi\n      0x00\n      dup1\n      revert\n    tag_1:\n      pop\n      jumpi(tag_2, lt(calldatasize, 0x04))\n      calldataload(0x00)\n      0x0100000000000000000000000000000000000000000000000000000000\n      swap1\n      div\n      dup1\n      0x6ca14bfd\n      gt\n      tag_14\n      jumpi\n      dup1\n      0x6ca14bfd\n      eq\n      tag_8\n      jumpi\n      dup1\n      0x6deecdbe\n      eq\n      tag_9\n      jumpi\n      dup1\n      0xc261fa36\n      eq\n      tag_10\n      jumpi\n      dup1\n      0xda50eaee\n      eq\n      tag_11\n      jumpi\n      dup1\n      0xe2a4b2af\n      eq\n      tag_12\n      jumpi\n      dup1\n      0xeb1b30d9\n      eq\n      tag_13\n      jumpi\n      0x00\n      dup1\n      revert\n    tag_14:\n      dup1\n      0x06540f7e\n      eq\n      tag_3\n      jumpi\n      dup1\n      0x0e807d6e\n      eq\n      tag_4\n      jumpi\n      dup1\n      0x12065fe0\n      eq\n      tag_5\n      jumpi\n      dup1\n      0x14bf43bd\n      eq\n      tag_6\n      jumpi\n      dup1\n      0x66335767\n      eq\n      tag_7\n      jumpi\n    tag_2:\n      0x00\n      dup1\n      revert\n        /* \"Variables.sol\":64:85  uint256 public myUint */\n    tag_3:\n      tag_15\n      sload(0x00)\n      dup2\n      jump\n    tag_15:\n      mload(0x40)\n        /* \"#utility.yul\":1962:1987   */\n      swap1\n      dup2\n      mstore\n        /* \"#utility.yul\":1950:1952   */\n      0x20\n        /* \"#utility.yul\":1935:1953   */\n      add\n        /* \"Variables.sol\":64:85  uint256 public myUint */\n    tag_17:\n      mload(0x40)\n      dup1\n      swap2\n      sub\n      swap1\n      return\n        /* \"Variables.sol\":549:629  function setAdress(address _adress) public {\r... */\n    tag_4:\n      tag_19\n      tag_20\n      calldatasize\n      0x04\n      tag_21\n      jump\t// in\n    tag_20:\n        /* \"Variables.sol\":603:611  myAdress */\n      0x01\n        /* \"Variables.sol\":603:621  myAdress = _adress */\n      dup1\n      sload\n      0xffffffffffffffffffffffffffffffffffffffff\n      swap1\n      swap3\n      and\n      0x010000\n      mul\n      not(0xffffffffffffffffffffffffffffffffffffffff0000)\n      swap1\n      swap3\n      and\n      swap2\n      swap1\n      swap2\n      or\n      swap1\n      sstore\n        /* \"Variables.sol\":549:629  function setAdress(address _adress) public {\r... */\n      jump\n    tag_19:\n      stop\n        /* \"Variables.sol\":637:727  function getBalance() public view returns(uint) {\r... */\n    tag_5:\n        /* \"Variables.sol\":703:711  myAdress */\n      sload(0x01)\n      0x010000\n      swap1\n      div\n      0xffffffffffffffffffffffffffffffffffffffff\n      and\n        /* \"Variables.sol\":703:719  myAdress.balance */\n      balance\n        /* \"Variables.sol\":637:727  function getBalance() public view returns(uint) {\r... */\n      jump(tag_15)\n        /* \"Variables.sol\":383:443  function incrementUint() public {\r... */\n    tag_6:\n      tag_19\n      tag_27\n      jump\t// in\n        /* \"Variables.sol\":159:234  function setMyuint(uint _myUint) public {\r... */\n    tag_7:\n      tag_19\n      tag_29\n      calldatasize\n      0x04\n      tag_30\n      jump\t// in\n    tag_29:\n        /* \"Variables.sol\":210:216  myUint */\n      0x00\n        /* \"Variables.sol\":210:226  myUint = _myUint */\n      sstore\n        /* \"Variables.sol\":159:234  function setMyuint(uint _myUint) public {\r... */\n      jump\n        /* \"Variables.sol\":517:540  address public myAdress */\n    tag_8:\n      sload(0x01)\n      tag_32\n      swap1\n      0x010000\n      swap1\n      div\n      0xffffffffffffffffffffffffffffffffffffffff\n      and\n      dup2\n      jump\n    tag_32:\n      mload(0x40)\n        /* \"#utility.yul\":967:1009   */\n      0xffffffffffffffffffffffffffffffffffffffff\n        /* \"#utility.yul\":955:1010   */\n      swap1\n      swap2\n      and\n        /* \"#utility.yul\":937:1011   */\n      dup2\n      mstore\n        /* \"#utility.yul\":925:927   */\n      0x20\n        /* \"#utility.yul\":910:928   */\n      add\n        /* \"Variables.sol\":517:540  address public myAdress */\n      tag_17\n        /* \"#utility.yul\":791:1017   */\n      jump\n        /* \"Variables.sol\":240:258  bool public myBool */\n    tag_9:\n      sload(0x01)\n      tag_36\n      swap1\n      0xff\n      and\n      dup2\n      jump\n    tag_36:\n      mload(0x40)\n        /* \"#utility.yul\":1187:1201   */\n      swap1\n      iszero\n        /* \"#utility.yul\":1180:1202   */\n      iszero\n        /* \"#utility.yul\":1162:1203   */\n      dup2\n      mstore\n        /* \"#utility.yul\":1150:1152   */\n      0x20\n        /* \"#utility.yul\":1135:1153   */\n      add\n        /* \"Variables.sol\":240:258  bool public myBool */\n      tag_17\n        /* \"#utility.yul\":1022:1209   */\n      jump\n        /* \"Variables.sol\":739:777  string public mystring = 'Hello world' */\n    tag_10:\n      tag_40\n      tag_41\n      jump\t// in\n    tag_40:\n      mload(0x40)\n      tag_17\n      swap2\n      swap1\n      tag_43\n      jump\t// in\n        /* \"Variables.sol\":451:511  function decrementUint() public {\r... */\n    tag_11:\n      tag_19\n      tag_45\n      jump\t// in\n        /* \"Variables.sol\":354:374  uint8 public myUint8 */\n    tag_12:\n      sload(0x01)\n      tag_46\n      swap1\n      0x0100\n      swap1\n      div\n      0xff\n      and\n      dup2\n      jump\n    tag_46:\n      mload(0x40)\n        /* \"#utility.yul\":2170:2174   */\n      0xff\n        /* \"#utility.yul\":2158:2175   */\n      swap1\n      swap2\n      and\n        /* \"#utility.yul\":2140:2176   */\n      dup2\n      mstore\n        /* \"#utility.yul\":2128:2130   */\n      0x20\n        /* \"#utility.yul\":2113:2131   */\n      add\n        /* \"Variables.sol\":354:374  uint8 public myUint8 */\n      tag_17\n        /* \"#utility.yul\":1998:2182   */\n      jump\n        /* \"Variables.sol\":267:342  function setMyBool(bool _myBool) public {\r... */\n    tag_13:\n      tag_19\n      tag_51\n      calldatasize\n      0x04\n      tag_52\n      jump\t// in\n    tag_51:\n        /* \"Variables.sol\":318:324  myBool */\n      0x01\n        /* \"Variables.sol\":318:334  myBool = _myBool */\n      dup1\n      sload\n      not(0xff)\n      and\n      swap2\n      iszero\n      iszero\n      swap2\n      swap1\n      swap2\n      or\n      swap1\n      sstore\n        /* \"Variables.sol\":267:342  function setMyBool(bool _myBool) public {\r... */\n      jump\n        /* \"Variables.sol\":383:443  function incrementUint() public {\r... */\n    tag_27:\n        /* \"Variables.sol\":426:433  myUint8 */\n      0x01\n        /* \"Variables.sol\":426:435  myUint8++ */\n      dup1\n      sload\n      0x0100\n      swap1\n      div\n      0xff\n      and\n      swap1\n        /* \"Variables.sol\":426:433  myUint8 */\n      dup1\n        /* \"Variables.sol\":426:435  myUint8++ */\n      tag_57\n      dup4\n      tag_58\n      jump\t// in\n    tag_57:\n      swap2\n      swap1\n      0x0100\n      exp\n      dup2\n      sload\n      dup2\n      0xff\n      mul\n      not\n      and\n      swap1\n      dup4\n      0xff\n      and\n      mul\n      or\n      swap1\n      sstore\n      pop\n      pop\n        /* \"Variables.sol\":383:443  function incrementUint() public {\r... */\n      jump\t// out\n        /* \"Variables.sol\":739:777  string public mystring = 'Hello world' */\n    tag_41:\n      0x02\n      dup1\n      sload\n      tag_60\n      swap1\n      tag_61\n      jump\t// in\n    tag_60:\n      dup1\n      0x1f\n      add\n      0x20\n      dup1\n      swap2\n      div\n      mul\n      0x20\n      add\n      mload(0x40)\n      swap1\n      dup2\n      add\n      0x40\n      mstore\n      dup1\n      swap3\n      swap2\n      swap1\n      dup2\n      dup2\n      mstore\n      0x20\n      add\n      dup3\n      dup1\n      sload\n      tag_62\n      swap1\n      tag_61\n      jump\t// in\n    tag_62:\n      dup1\n      iszero\n      tag_63\n      jumpi\n      dup1\n      0x1f\n      lt\n      tag_64\n      jumpi\n      0x0100\n      dup1\n      dup4\n      sload\n      div\n      mul\n      dup4\n      mstore\n      swap2\n      0x20\n      add\n      swap2\n      jump(tag_63)\n    tag_64:\n      dup3\n      add\n      swap2\n      swap1\n      0x00\n      mstore\n      keccak256(0x00, 0x20)\n      swap1\n    tag_65:\n      dup2\n      sload\n      dup2\n      mstore\n      swap1\n      0x01\n      add\n      swap1\n      0x20\n      add\n      dup1\n      dup4\n      gt\n      tag_65\n      jumpi\n      dup3\n      swap1\n      sub\n      0x1f\n      and\n      dup3\n      add\n      swap2\n    tag_63:\n      pop\n      pop\n      pop\n      pop\n      pop\n      dup2\n      jump\t// out\n        /* \"Variables.sol\":451:511  function decrementUint() public {\r... */\n    tag_45:\n        /* \"Variables.sol\":494:501  myUint8 */\n      0x01\n        /* \"Variables.sol\":494:503  myUint8-- */\n      dup1\n      sload\n      0x0100\n      swap1\n      div\n      0xff\n      and\n      swap1\n        /* \"Variables.sol\":494:501  myUint8 */\n      dup1\n        /* \"Variables.sol\":494:503  myUint8-- */\n      tag_57\n      dup4\n      tag_68\n      jump\t// in\n        /* \"#utility.yul\":14:323   */\n    tag_21:\n        /* \"#utility.yul\":73:79   */\n      0x00\n        /* \"#utility.yul\":126:128   */\n      0x20\n        /* \"#utility.yul\":114:123   */\n      dup3\n        /* \"#utility.yul\":105:112   */\n      dup5\n        /* \"#utility.yul\":101:124   */\n      sub\n        /* \"#utility.yul\":97:129   */\n      slt\n        /* \"#utility.yul\":94:146   */\n      iszero\n      tag_72\n      jumpi\n        /* \"#utility.yul\":142:143   */\n      0x00\n        /* \"#utility.yul\":139:140   */\n      dup1\n        /* \"#utility.yul\":132:144   */\n      revert\n        /* \"#utility.yul\":94:146   */\n    tag_72:\n        /* \"#utility.yul\":181:190   */\n      dup2\n        /* \"#utility.yul\":168:191   */\n      calldataload\n        /* \"#utility.yul\":231:273   */\n      0xffffffffffffffffffffffffffffffffffffffff\n        /* \"#utility.yul\":224:229   */\n      dup2\n        /* \"#utility.yul\":220:274   */\n      and\n        /* \"#utility.yul\":213:218   */\n      dup2\n        /* \"#utility.yul\":210:275   */\n      eq\n        /* \"#utility.yul\":200:293   */\n      tag_73\n      jumpi\n        /* \"#utility.yul\":289:290   */\n      0x00\n        /* \"#utility.yul\":286:287   */\n      dup1\n        /* \"#utility.yul\":279:291   */\n      revert\n        /* \"#utility.yul\":200:293   */\n    tag_73:\n        /* \"#utility.yul\":312:317   */\n      swap4\n        /* \"#utility.yul\":14:323   */\n      swap3\n      pop\n      pop\n      pop\n      jump\t// out\n        /* \"#utility.yul\":328:601   */\n    tag_52:\n        /* \"#utility.yul\":384:390   */\n      0x00\n        /* \"#utility.yul\":437:439   */\n      0x20\n        /* \"#utility.yul\":425:434   */\n      dup3\n        /* \"#utility.yul\":416:423   */\n      dup5\n        /* \"#utility.yul\":412:435   */\n      sub\n        /* \"#utility.yul\":408:440   */\n      slt\n        /* \"#utility.yul\":405:457   */\n      iszero\n      tag_75\n      jumpi\n        /* \"#utility.yul\":453:454   */\n      0x00\n        /* \"#utility.yul\":450:451   */\n      dup1\n        /* \"#utility.yul\":443:455   */\n      revert\n        /* \"#utility.yul\":405:457   */\n    tag_75:\n        /* \"#utility.yul\":492:501   */\n      dup2\n        /* \"#utility.yul\":479:502   */\n      calldataload\n        /* \"#utility.yul\":545:550   */\n      dup1\n        /* \"#utility.yul\":538:551   */\n      iszero\n        /* \"#utility.yul\":531:552   */\n      iszero\n        /* \"#utility.yul\":524:529   */\n      dup2\n        /* \"#utility.yul\":521:553   */\n      eq\n        /* \"#utility.yul\":511:571   */\n      tag_73\n      jumpi\n        /* \"#utility.yul\":567:568   */\n      0x00\n        /* \"#utility.yul\":564:565   */\n      dup1\n        /* \"#utility.yul\":557:569   */\n      revert\n        /* \"#utility.yul\":606:786   */\n    tag_30:\n        /* \"#utility.yul\":665:671   */\n      0x00\n        /* \"#utility.yul\":718:720   */\n      0x20\n        /* \"#utility.yul\":706:715   */\n      dup3\n        /* \"#utility.yul\":697:704   */\n      dup5\n        /* \"#utility.yul\":693:716   */\n      sub\n        /* \"#utility.yul\":689:721   */\n      slt\n        /* \"#utility.yul\":686:738   */\n      iszero\n      tag_78\n      jumpi\n        /* \"#utility.yul\":734:735   */\n      0x00\n        /* \"#utility.yul\":731:732   */\n      dup1\n        /* \"#utility.yul\":724:736   */\n      revert\n        /* \"#utility.yul\":686:738   */\n    tag_78:\n      pop\n        /* \"#utility.yul\":757:780   */\n      calldataload\n      swap2\n        /* \"#utility.yul\":606:786   */\n      swap1\n      pop\n      jump\t// out\n        /* \"#utility.yul\":1214:1811   */\n    tag_43:\n        /* \"#utility.yul\":1326:1330   */\n      0x00\n        /* \"#utility.yul\":1355:1357   */\n      0x20\n        /* \"#utility.yul\":1384:1386   */\n      dup1\n        /* \"#utility.yul\":1373:1382   */\n      dup4\n        /* \"#utility.yul\":1366:1387   */\n      mstore\n        /* \"#utility.yul\":1416:1422   */\n      dup4\n        /* \"#utility.yul\":1410:1423   */\n      mload\n        /* \"#utility.yul\":1459:1465   */\n      dup1\n        /* \"#utility.yul\":1454:1456   */\n      dup3\n        /* \"#utility.yul\":1443:1452   */\n      dup6\n        /* \"#utility.yul\":1439:1457   */\n      add\n        /* \"#utility.yul\":1432:1466   */\n      mstore\n        /* \"#utility.yul\":1484:1485   */\n      0x00\n        /* \"#utility.yul\":1494:1634   */\n    tag_82:\n        /* \"#utility.yul\":1508:1514   */\n      dup2\n        /* \"#utility.yul\":1505:1506   */\n      dup2\n        /* \"#utility.yul\":1502:1515   */\n      lt\n        /* \"#utility.yul\":1494:1634   */\n      iszero\n      tag_84\n      jumpi\n        /* \"#utility.yul\":1603:1617   */\n      dup6\n      dup2\n      add\n        /* \"#utility.yul\":1599:1622   */\n      dup4\n      add\n        /* \"#utility.yul\":1593:1623   */\n      mload\n        /* \"#utility.yul\":1569:1586   */\n      dup6\n      dup3\n      add\n        /* \"#utility.yul\":1588:1590   */\n      0x40\n        /* \"#utility.yul\":1565:1591   */\n      add\n        /* \"#utility.yul\":1558:1624   */\n      mstore\n        /* \"#utility.yul\":1523:1533   */\n      dup3\n      add\n        /* \"#utility.yul\":1494:1634   */\n      jump(tag_82)\n    tag_84:\n        /* \"#utility.yul\":1652:1658   */\n      dup2\n        /* \"#utility.yul\":1649:1650   */\n      dup2\n        /* \"#utility.yul\":1646:1659   */\n      gt\n        /* \"#utility.yul\":1643:1734   */\n      iszero\n      tag_85\n      jumpi\n        /* \"#utility.yul\":1722:1723   */\n      0x00\n        /* \"#utility.yul\":1717:1719   */\n      0x40\n        /* \"#utility.yul\":1708:1714   */\n      dup4\n        /* \"#utility.yul\":1697:1706   */\n      dup8\n        /* \"#utility.yul\":1693:1715   */\n      add\n        /* \"#utility.yul\":1689:1720   */\n      add\n        /* \"#utility.yul\":1682:1724   */\n      mstore\n        /* \"#utility.yul\":1643:1734   */\n    tag_85:\n      pop\n        /* \"#utility.yul\":1795:1797   */\n      0x1f\n        /* \"#utility.yul\":1774:1789   */\n      add\n      not(0x1f)\n        /* \"#utility.yul\":1770:1799   */\n      and\n        /* \"#utility.yul\":1755:1800   */\n      swap3\n      swap1\n      swap3\n      add\n        /* \"#utility.yul\":1802:1804   */\n      0x40\n        /* \"#utility.yul\":1751:1805   */\n      add\n      swap4\n        /* \"#utility.yul\":1214:1811   */\n      swap3\n      pop\n      pop\n      pop\n      jump\t// out\n        /* \"#utility.yul\":2187:2365   */\n    tag_68:\n        /* \"#utility.yul\":2224:2227   */\n      0x00\n        /* \"#utility.yul\":2268:2272   */\n      0xff\n        /* \"#utility.yul\":2261:2266   */\n      dup3\n        /* \"#utility.yul\":2257:2273   */\n      and\n        /* \"#utility.yul\":2292:2299   */\n      dup1\n        /* \"#utility.yul\":2282:2323   */\n      tag_90\n      jumpi\n        /* \"#utility.yul\":2303:2321   */\n      tag_90\n      tag_91\n      jump\t// in\n    tag_90:\n      not(0x00)\n        /* \"#utility.yul\":2339:2359   */\n      add\n      swap3\n        /* \"#utility.yul\":2187:2365   */\n      swap2\n      pop\n      pop\n      jump\t// out\n        /* \"#utility.yul\":2370:2807   */\n    tag_61:\n        /* \"#utility.yul\":2455:2456   */\n      0x02\n        /* \"#utility.yul\":2445:2457   */\n      dup2\n      div\n        /* \"#utility.yul\":2502:2503   */\n      0x01\n        /* \"#utility.yul\":2492:2504   */\n      dup3\n      and\n      dup1\n        /* \"#utility.yul\":2513:2574   */\n      tag_93\n      jumpi\n        /* \"#utility.yul\":2567:2571   */\n      0x7f\n        /* \"#utility.yul\":2559:2565   */\n      dup3\n        /* \"#utility.yul\":2555:2572   */\n      and\n        /* \"#utility.yul\":2545:2572   */\n      swap2\n      pop\n        /* \"#utility.yul\":2513:2574   */\n    tag_93:\n        /* \"#utility.yul\":2620:2622   */\n      0x20\n        /* \"#utility.yul\":2612:2618   */\n      dup3\n        /* \"#utility.yul\":2609:2623   */\n      lt\n        /* \"#utility.yul\":2589:2607   */\n      dup2\n        /* \"#utility.yul\":2586:2624   */\n      eq\n        /* \"#utility.yul\":2583:2801   */\n      iszero\n      tag_94\n      jumpi\n        /* \"#utility.yul\":2657:2734   */\n      0x4e487b7100000000000000000000000000000000000000000000000000000000\n        /* \"#utility.yul\":2654:2655   */\n      0x00\n        /* \"#utility.yul\":2647:2735   */\n      mstore\n        /* \"#utility.yul\":2758:2762   */\n      0x22\n        /* \"#utility.yul\":2755:2756   */\n      0x04\n        /* \"#utility.yul\":2748:2763   */\n      mstore\n        /* \"#utility.yul\":2786:2790   */\n      0x24\n        /* \"#utility.yul\":2783:2784   */\n      0x00\n        /* \"#utility.yul\":2776:2791   */\n      revert\n        /* \"#utility.yul\":2583:2801   */\n    tag_94:\n      pop\n        /* \"#utility.yul\":2370:2807   */\n      swap2\n      swap1\n      pop\n      jump\t// out\n        /* \"#utility.yul\":2812:2987   */\n    tag_58:\n        /* \"#utility.yul\":2849:2852   */\n      0x00\n        /* \"#utility.yul\":2893:2897   */\n      0xff\n        /* \"#utility.yul\":2886:2891   */\n      dup3\n        /* \"#utility.yul\":2882:2898   */\n      and\n        /* \"#utility.yul\":2922:2926   */\n      0xff\n        /* \"#utility.yul\":2913:2920   */\n      dup2\n        /* \"#utility.yul\":2910:2927   */\n      eq\n        /* \"#utility.yul\":2907:2950   */\n      iszero\n      tag_97\n      jumpi\n        /* \"#utility.yul\":2930:2948   */\n      tag_97\n      tag_91\n      jump\t// in\n    tag_97:\n        /* \"#utility.yul\":2979:2980   */\n      0x01\n        /* \"#utility.yul\":2966:2981   */\n      add\n      swap3\n        /* \"#utility.yul\":2812:2987   */\n      swap2\n      pop\n      pop\n      jump\t// out\n        /* \"#utility.yul\":2992:3176   */\n    tag_91:\n        /* \"#utility.yul\":3044:3121   */\n      0x4e487b7100000000000000000000000000000000000000000000000000000000\n        /* \"#utility.yul\":3041:3042   */\n      0x00\n        /* \"#utility.yul\":3034:3122   */\n      mstore\n        /* \"#utility.yul\":3141:3145   */\n      0x11\n        /* \"#utility.yul\":3138:3139   */\n      0x04\n        /* \"#utility.yul\":3131:3146   */\n      mstore\n        /* \"#utility.yul\":3165:3169   */\n      0x24\n        /* \"#utility.yul\":3162:3163   */\n      0x00\n        /* \"#utility.yul\":3155:3170   */\n      revert\n\n    auxdata: 0xa26469706673582212203f4cd19934e402018899156bdd3f10afcf1b43bd90478ee70ad2e871c83cb6af64736f6c63430008070033\n}\n",
				"bytecode": {
					"linkReferences": {},
					"object": "60c0604052600b60808190527f48656c6c6f20776f726c6400000000000000000000000000000000000000000060a090815261003e9160029190610051565b5034801561004b57600080fd5b5061013e565b82805461005d906100ea565b90600052602060002090601f01602090048101928261007f57600085556100c5565b82601f1061009857805160ff19168380011785556100c5565b828001600101855582156100c5579182015b828111156100c55782518255916020019190600101906100aa565b506100d19291506100d5565b5090565b5b808211156100d157600081556001016100d6565b6002810460018216806100fe57607f821691505b60208210811415610138577f4e487b7100000000000000000000000000000000000000000000000000000000600052602260045260246000fd5b50919050565b6104df8061014d6000396000f3fe608060405234801561001057600080fd5b50600436106100c6576000357c0100000000000000000000000000000000000000000000000000000000900480636ca14bfd1161008e5780636ca14bfd1461017b5780636deecdbe146101c6578063c261fa36146101e3578063da50eaee146101f8578063e2a4b2af14610200578063eb1b30d91461022457600080fd5b806306540f7e146100cb5780630e807d6e146100e757806312065fe01461013b57806314bf43bd146101605780636633576714610168575b600080fd5b6100d460005481565b6040519081526020015b60405180910390f35b6101396100f536600461031c565b6001805473ffffffffffffffffffffffffffffffffffffffff909216620100000275ffffffffffffffffffffffffffffffffffffffff000019909216919091179055565b005b60015462010000900473ffffffffffffffffffffffffffffffffffffffff16316100d4565b610139610245565b61013961017636600461037b565b600055565b6001546101a19062010000900473ffffffffffffffffffffffffffffffffffffffff1681565b60405173ffffffffffffffffffffffffffffffffffffffff90911681526020016100de565b6001546101d39060ff1681565b60405190151581526020016100de565b6101eb610277565b6040516100de9190610394565b610139610305565b60015461021290610100900460ff1681565b60405160ff90911681526020016100de565b610139610232366004610359565b6001805460ff1916911515919091179055565b60018054610100900460ff16908061025c8361045a565b91906101000a81548160ff021916908360ff16021790555050565b6002805461028490610406565b80601f01602080910402602001604051908101604052809291908181526020018280546102b090610406565b80156102fd5780601f106102d2576101008083540402835291602001916102fd565b820191906000526020600020905b8154815290600101906020018083116102e057829003601f168201915b505050505081565b60018054610100900460ff16908061025c836103e9565b60006020828403121561032e57600080fd5b813573ffffffffffffffffffffffffffffffffffffffff8116811461035257600080fd5b9392505050565b60006020828403121561036b57600080fd5b8135801515811461035257600080fd5b60006020828403121561038d57600080fd5b5035919050565b600060208083528351808285015260005b818110156103c1578581018301518582016040015282016103a5565b818111156103d3576000604083870101525b50601f01601f1916929092016040019392505050565b600060ff8216806103fc576103fc61047a565b6000190192915050565b60028104600182168061041a57607f821691505b60208210811415610454577f4e487b7100000000000000000000000000000000000000000000000000000000600052602260045260246000fd5b50919050565b600060ff821660ff8114156104715761047161047a565b60010192915050565b7f4e487b7100000000000000000000000000000000000000000000000000000000600052601160045260246000fdfea26469706673582212203f4cd19934e402018899156bdd3f10afcf1b43bd90478ee70ad2e871c83cb6af64736f6c63430008070033",
					"opcodes": "PUSH1 0xC0 PUSH1 0x40 MSTORE PUSH1 0xB PUSH1 0x80 DUP2 SWAP1 MSTORE PUSH32 0x48656C6C6F20776F726C64000000000000000000000000000000000000000000 PUSH1 0xA0 SWAP1 DUP2 MSTORE PUSH2 0x3E SWAP2 PUSH1 0x2 SWAP2 SWAP1 PUSH2 0x51 JUMP JUMPDEST POP CALLVALUE DUP1 ISZERO PUSH2 0x4B JUMPI PUSH1 0x0 DUP1 REVERT JUMPDEST POP PUSH2 0x13E JUMP JUMPDEST DUP3 DUP1 SLOAD PUSH2 0x5D SWAP1 PUSH2 0xEA JUMP JUMPDEST SWAP1 PUSH1 0x0 MSTORE PUSH1 0x20 PUSH1 0x0 KECCAK256 SWAP1 PUSH1 0x1F ADD PUSH1 0x20 SWAP1 DIV DUP2 ADD SWAP3 DUP3 PUSH2 0x7F JUMPI PUSH1 0x0 DUP6 SSTORE PUSH2 0xC5 JUMP JUMPDEST DUP3 PUSH1 0x1F LT PUSH2 0x98 JUMPI DUP1 MLOAD PUSH1 0xFF NOT AND DUP4 DUP1 ADD OR DUP6 SSTORE PUSH2 0xC5 JUMP JUMPDEST DUP3 DUP1 ADD PUSH1 0x1 ADD DUP6 SSTORE DUP3 ISZERO PUSH2 0xC5 JUMPI SWAP2 DUP3 ADD JUMPDEST DUP3 DUP2 GT ISZERO PUSH2 0xC5 JUMPI DUP3 MLOAD DUP3 SSTORE SWAP2 PUSH1 0x20 ADD SWAP2 SWAP1 PUSH1 0x1 ADD SWAP1 PUSH2 0xAA JUMP JUMPDEST POP PUSH2 0xD1 SWAP3 SWAP2 POP PUSH2 0xD5 JUMP JUMPDEST POP SWAP1 JUMP JUMPDEST JUMPDEST DUP1 DUP3 GT ISZERO PUSH2 0xD1 JUMPI PUSH1 0x0 DUP2 SSTORE PUSH1 0x1 ADD PUSH2 0xD6 JUMP JUMPDEST PUSH1 0x2 DUP2 DIV PUSH1 0x1 DUP3 AND DUP1 PUSH2 0xFE JUMPI PUSH1 0x7F DUP3 AND SWAP2 POP JUMPDEST PUSH1 0x20 DUP3 LT DUP2 EQ ISZERO PUSH2 0x138 JUMPI PUSH32 0x4E487B7100000000000000000000000000000000000000000000000000000000 PUSH1 0x0 MSTORE PUSH1 0x22 PUSH1 0x4 MSTORE PUSH1 0x24 PUSH1 0x0 REVERT JUMPDEST POP SWAP2 SWAP1 POP JUMP JUMPDEST PUSH2 0x4DF DUP1 PUSH2 0x14D PUSH1 0x0 CODECOPY PUSH1 0x0 RETURN INVALID PUSH1 0x80 PUSH1 0x40 MSTORE CALLVALUE DUP1 ISZERO PUSH2 0x10 JUMPI PUSH1 0x0 DUP1 REVERT JUMPDEST POP PUSH1 0x4 CALLDATASIZE LT PUSH2 0xC6 JUMPI PUSH1 0x0 CALLDATALOAD PUSH29 0x100000000000000000000000000000000000000000000000000000000 SWAP1 DIV DUP1 PUSH4 0x6CA14BFD GT PUSH2 0x8E JUMPI DUP1 PUSH4 0x6CA14BFD EQ PUSH2 0x17B JUMPI DUP1 PUSH4 0x6DEECDBE EQ PUSH2 0x1C6 JUMPI DUP1 PUSH4 0xC261FA36 EQ PUSH2 0x1E3 JUMPI DUP1 PUSH4 0xDA50EAEE EQ PUSH2 0x1F8 JUMPI DUP1 PUSH4 0xE2A4B2AF EQ PUSH2 0x200 JUMPI DUP1 PUSH4 0xEB1B30D9 EQ PUSH2 0x224 JUMPI PUSH1 0x0 DUP1 REVERT JUMPDEST DUP1 PUSH4 0x6540F7E EQ PUSH2 0xCB JUMPI DUP1 PUSH4 0xE807D6E EQ PUSH2 0xE7 JUMPI DUP1 PUSH4 0x12065FE0 EQ PUSH2 0x13B JUMPI DUP1 PUSH4 0x14BF43BD EQ PUSH2 0x160 JUMPI DUP1 PUSH4 0x66335767 EQ PUSH2 0x168 JUMPI JUMPDEST PUSH1 0x0 DUP1 REVERT JUMPDEST PUSH2 0xD4 PUSH1 0x0 SLOAD DUP2 JUMP JUMPDEST PUSH1 0x40 MLOAD SWAP1 DUP2 MSTORE PUSH1 0x20 ADD JUMPDEST PUSH1 0x40 MLOAD DUP1 SWAP2 SUB SWAP1 RETURN JUMPDEST PUSH2 0x139 PUSH2 0xF5 CALLDATASIZE PUSH1 0x4 PUSH2 0x31C JUMP JUMPDEST PUSH1 0x1 DUP1 SLOAD PUSH20 0xFFFFFFFFFFFFFFFFFFFFFFFFFFFFFFFFFFFFFFFF SWAP1 SWAP3 AND PUSH3 0x10000 MUL PUSH22 0xFFFFFFFFFFFFFFFFFFFFFFFFFFFFFFFFFFFFFFFF0000 NOT SWAP1 SWAP3 AND SWAP2 SWAP1 SWAP2 OR SWAP1 SSTORE JUMP JUMPDEST STOP JUMPDEST PUSH1 0x1 SLOAD PUSH3 0x10000 SWAP1 DIV PUSH20 0xFFFFFFFFFFFFFFFFFFFFFFFFFFFFFFFFFFFFFFFF AND BALANCE PUSH2 0xD4 JUMP JUMPDEST PUSH2 0x139 PUSH2 0x245 JUMP JUMPDEST PUSH2 0x139 PUSH2 0x176 CALLDATASIZE PUSH1 0x4 PUSH2 0x37B JUMP JUMPDEST PUSH1 0x0 SSTORE JUMP JUMPDEST PUSH1 0x1 SLOAD PUSH2 0x1A1 SWAP1 PUSH3 0x10000 SWAP1 DIV PUSH20 0xFFFFFFFFFFFFFFFFFFFFFFFFFFFFFFFFFFFFFFFF AND DUP2 JUMP JUMPDEST PUSH1 0x40 MLOAD PUSH20 0xFFFFFFFFFFFFFFFFFFFFFFFFFFFFFFFFFFFFFFFF SWAP1 SWAP2 AND DUP2 MSTORE PUSH1 0x20 ADD PUSH2 0xDE JUMP JUMPDEST PUSH1 0x1 SLOAD PUSH2 0x1D3 SWAP1 PUSH1 0xFF AND DUP2 JUMP JUMPDEST PUSH1 0x40 MLOAD SWAP1 ISZERO ISZERO DUP2 MSTORE PUSH1 0x20 ADD PUSH2 0xDE JUMP JUMPDEST PUSH2 0x1EB PUSH2 0x277 JUMP JUMPDEST PUSH1 0x40 MLOAD PUSH2 0xDE SWAP2 SWAP1 PUSH2 0x394 JUMP JUMPDEST PUSH2 0x139 PUSH2 0x305 JUMP JUMPDEST PUSH1 0x1 SLOAD PUSH2 0x212 SWAP1 PUSH2 0x100 SWAP1 DIV PUSH1 0xFF AND DUP2 JUMP JUMPDEST PUSH1 0x40 MLOAD PUSH1 0xFF SWAP1 SWAP2 AND DUP2 MSTORE PUSH1 0x20 ADD PUSH2 0xDE JUMP JUMPDEST PUSH2 0x139 PUSH2 0x232 CALLDATASIZE PUSH1 0x4 PUSH2 0x359 JUMP JUMPDEST PUSH1 0x1 DUP1 SLOAD PUSH1 0xFF NOT AND SWAP2 ISZERO ISZERO SWAP2 SWAP1 SWAP2 OR SWAP1 SSTORE JUMP JUMPDEST PUSH1 0x1 DUP1 SLOAD PUSH2 0x100 SWAP1 DIV PUSH1 0xFF AND SWAP1 DUP1 PUSH2 0x25C DUP4 PUSH2 0x45A JUMP JUMPDEST SWAP2 SWAP1 PUSH2 0x100 EXP DUP2 SLOAD DUP2 PUSH1 0xFF MUL NOT AND SWAP1 DUP4 PUSH1 0xFF AND MUL OR SWAP1 SSTORE POP POP JUMP JUMPDEST PUSH1 0x2 DUP1 SLOAD PUSH2 0x284 SWAP1 PUSH2 0x406 JUMP JUMPDEST DUP1 PUSH1 0x1F ADD PUSH1 0x20 DUP1 SWAP2 DIV MUL PUSH1 0x20 ADD PUSH1 0x40 MLOAD SWAP1 DUP2 ADD PUSH1 0x40 MSTORE DUP1 SWAP3 SWAP2 SWAP1 DUP2 DUP2 MSTORE PUSH1 0x20 ADD DUP3 DUP1 SLOAD PUSH2 0x2B0 SWAP1 PUSH2 0x406 JUMP JUMPDEST DUP1 ISZERO PUSH2 0x2FD JUMPI DUP1 PUSH1 0x1F LT PUSH2 0x2D2 JUMPI PUSH2 0x100 DUP1 DUP4 SLOAD DIV MUL DUP4 MSTORE SWAP2 PUSH1 0x20 ADD SWAP2 PUSH2 0x2FD JUMP JUMPDEST DUP3 ADD SWAP2 SWAP1 PUSH1 0x0 MSTORE PUSH1 0x20 PUSH1 0x0 KECCAK256 SWAP1 JUMPDEST DUP2 SLOAD DUP2 MSTORE SWAP1 PUSH1 0x1 ADD SWAP1 PUSH1 0x20 ADD DUP1 DUP4 GT PUSH2 0x2E0 JUMPI DUP3 SWAP1 SUB PUSH1 0x1F AND DUP3 ADD SWAP2 JUMPDEST POP POP POP POP POP DUP2 JUMP JUMPDEST PUSH1 0x1 DUP1 SLOAD PUSH2 0x100 SWAP1 DIV PUSH1 0xFF AND SWAP1 DUP1 PUSH2 0x25C DUP4 PUSH2 0x3E9 JUMP JUMPDEST PUSH1 0x0 PUSH1 0x20 DUP3 DUP5 SUB SLT ISZERO PUSH2 0x32E JUMPI PUSH1 0x0 DUP1 REVERT JUMPDEST DUP2 CALLDATALOAD PUSH20 0xFFFFFFFFFFFFFFFFFFFFFFFFFFFFFFFFFFFFFFFF DUP2 AND DUP2 EQ PUSH2 0x352 JUMPI PUSH1 0x0 DUP1 REVERT JUMPDEST SWAP4 SWAP3 POP POP POP JUMP JUMPDEST PUSH1 0x0 PUSH1 0x20 DUP3 DUP5 SUB SLT ISZERO PUSH2 0x36B JUMPI PUSH1 0x0 DUP1 REVERT JUMPDEST DUP2 CALLDATALOAD DUP1 ISZERO ISZERO DUP2 EQ PUSH2 0x352 JUMPI PUSH1 0x0 DUP1 REVERT JUMPDEST PUSH1 0x0 PUSH1 0x20 DUP3 DUP5 SUB SLT ISZERO PUSH2 0x38D JUMPI PUSH1 0x0 DUP1 REVERT JUMPDEST POP CALLDATALOAD SWAP2 SWAP1 POP JUMP JUMPDEST PUSH1 0x0 PUSH1 0x20 DUP1 DUP4 MSTORE DUP4 MLOAD DUP1 DUP3 DUP6 ADD MSTORE PUSH1 0x0 JUMPDEST DUP2 DUP2 LT ISZERO PUSH2 0x3C1 JUMPI DUP6 DUP2 ADD DUP4 ADD MLOAD DUP6 DUP3 ADD PUSH1 0x40 ADD MSTORE DUP3 ADD PUSH2 0x3A5 JUMP JUMPDEST DUP2 DUP2 GT ISZERO PUSH2 0x3D3 JUMPI PUSH1 0x0 PUSH1 0x40 DUP4 DUP8 ADD ADD MSTORE JUMPDEST POP PUSH1 0x1F ADD PUSH1 0x1F NOT AND SWAP3 SWAP1 SWAP3 ADD PUSH1 0x40 ADD SWAP4 SWAP3 POP POP POP JUMP JUMPDEST PUSH1 0x0 PUSH1 0xFF DUP3 AND DUP1 PUSH2 0x3FC JUMPI PUSH2 0x3FC PUSH2 0x47A JUMP JUMPDEST PUSH1 0x0 NOT ADD SWAP3 SWAP2 POP POP JUMP JUMPDEST PUSH1 0x2 DUP2 DIV PUSH1 0x1 DUP3 AND DUP1 PUSH2 0x41A JUMPI PUSH1 0x7F DUP3 AND SWAP2 POP JUMPDEST PUSH1 0x20 DUP3 LT DUP2 EQ ISZERO PUSH2 0x454 JUMPI PUSH32 0x4E487B7100000000000000000000000000000000000000000000000000000000 PUSH1 0x0 MSTORE PUSH1 0x22 PUSH1 0x4 MSTORE PUSH1 0x24 PUSH1 0x0 REVERT JUMPDEST POP SWAP2 SWAP1 POP JUMP JUMPDEST PUSH1 0x0 PUSH1 0xFF DUP3 AND PUSH1 0xFF DUP2 EQ ISZERO PUSH2 0x471 JUMPI PUSH2 0x471 PUSH2 0x47A JUMP JUMPDEST PUSH1 0x1 ADD SWAP3 SWAP2 POP POP JUMP JUMPDEST PUSH32 0x4E487B7100000000000000000000000000000000000000000000000000000000 PUSH1 0x0 MSTORE PUSH1 0x11 PUSH1 0x4 MSTORE PUSH1 0x24 PUSH1 0x0 REVERT INVALID LOG2 PUSH5 0x6970667358 0x22 SLT KECCAK256 EXTCODEHASH 0x4C 0xD1 SWAP10 CALLVALUE 0xE4 MUL ADD DUP9 SWAP10 ISZERO PUSH12 0xDD3F10AFCF1B43BD90478EE7 EXP 0xD2 0xE8 PUSH18 0xC83CB6AF64736F6C63430008070033000000 "
				},
				"gasEstimates": {
					"creation": {
						"codeDepositCost": "249400",
						"executionCost": "infinite",
						"totalCost": "infinite"
					},
					"external": {
						"decrementUint()": "20835",
						"getBalance()": "848",
						"incrementUint()": "20842",
						"myAdress()": "429",
						"myBool()": "437",
						"myUint()": "390",
						"myUint8()": "517",
						"mystring()": "infinite",
						"setAdress(address)": "20527",
						"setMyBool(bool)": "20597",
						"setMyuint(uint256)": "20306"
					}
				},
				"methodIdentifiers": {
					"decrementUint()": "da50eaee",
					"getBalance()": "12065fe0",
					"incrementUint()": "14bf43bd",
					"myAdress()": "6ca14bfd",
					"myBool()": "6deecdbe",
					"myUint()": "06540f7e",
					"myUint8()": "e2a4b2af",
					"mystring()": "c261fa36",
					"setAdress(address)": "0e807d6e",
					"setMyBool(bool)": "eb1b30d9",
					"setMyuint(uint256)": "66335767"
				}
			},
			"storageLayout": {
				"storage": [
					{
						"astId": 3,
						"contract": "Variables.sol:Workingwithvariables",
						"label": "myUint",
						"offset": 0,
						"slot": "0",
						"type": "t_uint256"
					},
					{
						"astId": 15,
						"contract": "Variables.sol:Workingwithvariables",
						"label": "myBool",
						"offset": 0,
						"slot": "1",
						"type": "t_bool"
					},
					{
						"astId": 27,
						"contract": "Variables.sol:Workingwithvariables",
						"label": "myUint8",
						"offset": 1,
						"slot": "1",
						"type": "t_uint8"
					},
					{
						"astId": 43,
						"contract": "Variables.sol:Workingwithvariables",
						"label": "myAdress",
						"offset": 2,
						"slot": "1",
						"type": "t_address"
					},
					{
						"astId": 65,
						"contract": "Variables.sol:Workingwithvariables",
						"label": "mystring",
						"offset": 0,
						"slot": "2",
						"type": "t_string_storage"
					}
				],
				"types": {
					"t_address": {
						"encoding": "inplace",
						"label": "address",
						"numberOfBytes": "20"
					},
					"t_bool": {
						"encoding": "inplace",
						"label": "bool",
						"numberOfBytes": "1"
					},
					"t_string_storage": {
						"encoding": "bytes",
						"label": "string",
						"numberOfBytes": "32"
					},
					"t_uint256": {
						"encoding": "inplace",
						"label": "uint256",
						"numberOfBytes": "32"
					},
					"t_uint8": {
						"encoding": "inplace",
						"label": "uint8",
						"numberOfBytes": "1"
					}
				}
			},
			"userdoc": {
				"kind": "user",
				"methods": {},
				"version": 1
			}
		}
	}
}