{
	"Variables.sol": {
		"Workingwithvariables": {
			"abi": [
				{
					"inputs": [],
					"name": "myBool",
					"outputs": [
						{
							"internalType": "bool",
							"name": "",
							"type": "bool"
						}
					],
					"stateMutability": "view",
					"type": "function"
				},
				{
					"inputs": [],
					"name": "myUint",
					"outputs": [
						{
							"internalType": "uint256",
							"name": "",
							"type": "uint256"
						}
					],
					"stateMutability": "view",
					"type": "function"
				},
				{
					"inputs": [
						{
							"internalType": "bool",
							"name": "_myBool",
							"type": "bool"
						}
					],
					"name": "setMyBool",
					"outputs": [],
					"stateMutability": "nonpayable",
					"type": "function"
				},
				{
					"inputs": [
						{
							"internalType": "uint256",
							"name": "_myUint",
							"type": "uint256"
						}
					],
					"name": "setMyuint",
					"outputs": [],
					"stateMutability": "nonpayable",
					"type": "function"
				}
			],
			"devdoc": {
				"kind": "dev",
				"methods": {},
				"version": 1
			},
			"evm": {
				"assembly": "    /* \"Variables.sol\":27:348  contract Workingwithvariables {\r... */\n  mstore(0x40, 0x80)\n  callvalue\n  dup1\n  iszero\n  tag_1\n  jumpi\n  0x00\n  dup1\n  revert\ntag_1:\n  pop\n  dataSize(sub_0)\n  dup1\n  dataOffset(sub_0)\n  0x00\n  codecopy\n  0x00\n  return\nstop\n\nsub_0: assembly {\n        /* \"Variables.sol\":27:348  contract Workingwithvariables {\r... */\n      mstore(0x40, 0x80)\n      callvalue\n      dup1\n      iszero\n      tag_1\n      jumpi\n      0x00\n      dup1\n      revert\n    tag_1:\n      pop\n      jumpi(tag_2, lt(calldatasize, 0x04))\n      div(calldataload(0x00), 0x0100000000000000000000000000000000000000000000000000000000)\n      0x06540f7e\n      dup2\n      eq\n      tag_3\n      jumpi\n      dup1\n      0x66335767\n      eq\n      tag_4\n      jumpi\n      dup1\n      0x6deecdbe\n      eq\n      tag_5\n      jumpi\n      dup1\n      0xeb1b30d9\n      eq\n      tag_6\n      jumpi\n    tag_2:\n      0x00\n      dup1\n      revert\n        /* \"Variables.sol\":64:85  uint256 public myUint */\n    tag_3:\n      tag_7\n      sload(0x00)\n      dup2\n      jump\n    tag_7:\n      mload(0x40)\n        /* \"#utility.yul\":815:840   */\n      swap1\n      dup2\n      mstore\n        /* \"#utility.yul\":803:805   */\n      0x20\n        /* \"#utility.yul\":788:806   */\n      add\n        /* \"Variables.sol\":64:85  uint256 public myUint */\n    tag_9:\n      mload(0x40)\n      dup1\n      swap2\n      sub\n      swap1\n      return\n        /* \"Variables.sol\":159:234  function setMyuint(uint _myUint) public {\r... */\n    tag_4:\n      tag_11\n      tag_12\n      calldatasize\n      0x04\n      tag_13\n      jump\t// in\n    tag_12:\n        /* \"Variables.sol\":210:216  myUint */\n      0x00\n        /* \"Variables.sol\":210:226  myUint = _myUint */\n      sstore\n        /* \"Variables.sol\":159:234  function setMyuint(uint _myUint) public {\r... */\n      jump\n    tag_11:\n      stop\n        /* \"Variables.sol\":240:258  bool public myBool */\n    tag_5:\n      sload(0x01)\n      tag_15\n      swap1\n      0xff\n      and\n      dup2\n      jump\n    tag_15:\n      mload(0x40)\n        /* \"#utility.yul\":642:656   */\n      swap1\n      iszero\n        /* \"#utility.yul\":635:657   */\n      iszero\n        /* \"#utility.yul\":617:658   */\n      dup2\n      mstore\n        /* \"#utility.yul\":605:607   */\n      0x20\n        /* \"#utility.yul\":590:608   */\n      add\n        /* \"Variables.sol\":240:258  bool public myBool */\n      tag_9\n        /* \"#utility.yul\":477:664   */\n      jump\n        /* \"Variables.sol\":267:342  function setMyBool(bool _myBool) public {\r... */\n    tag_6:\n      tag_11\n      tag_20\n      calldatasize\n      0x04\n      tag_21\n      jump\t// in\n    tag_20:\n        /* \"Variables.sol\":318:324  myBool */\n      0x01\n        /* \"Variables.sol\":318:334  myBool = _myBool */\n      dup1\n      sload\n      not(0xff)\n      and\n      swap2\n      iszero\n      iszero\n      swap2\n      swap1\n      swap2\n      or\n      swap1\n      sstore\n        /* \"Variables.sol\":267:342  function setMyBool(bool _myBool) public {\r... */\n      jump\n        /* \"#utility.yul\":14:287   */\n    tag_21:\n        /* \"#utility.yul\":70:76   */\n      0x00\n        /* \"#utility.yul\":123:125   */\n      0x20\n        /* \"#utility.yul\":111:120   */\n      dup3\n        /* \"#utility.yul\":102:109   */\n      dup5\n        /* \"#utility.yul\":98:121   */\n      sub\n        /* \"#utility.yul\":94:126   */\n      slt\n        /* \"#utility.yul\":91:143   */\n      iszero\n      tag_27\n      jumpi\n        /* \"#utility.yul\":139:140   */\n      0x00\n        /* \"#utility.yul\":136:137   */\n      dup1\n        /* \"#utility.yul\":129:141   */\n      revert\n        /* \"#utility.yul\":91:143   */\n    tag_27:\n        /* \"#utility.yul\":178:187   */\n      dup2\n        /* \"#utility.yul\":165:188   */\n      calldataload\n        /* \"#utility.yul\":231:236   */\n      dup1\n        /* \"#utility.yul\":224:237   */\n      iszero\n        /* \"#utility.yul\":217:238   */\n      iszero\n        /* \"#utility.yul\":210:215   */\n      dup2\n        /* \"#utility.yul\":207:239   */\n      eq\n        /* \"#utility.yul\":197:257   */\n      tag_28\n      jumpi\n        /* \"#utility.yul\":253:254   */\n      0x00\n        /* \"#utility.yul\":250:251   */\n      dup1\n        /* \"#utility.yul\":243:255   */\n      revert\n        /* \"#utility.yul\":197:257   */\n    tag_28:\n        /* \"#utility.yul\":276:281   */\n      swap4\n        /* \"#utility.yul\":14:287   */\n      swap3\n      pop\n      pop\n      pop\n      jump\t// out\n        /* \"#utility.yul\":292:472   */\n    tag_13:\n        /* \"#utility.yul\":351:357   */\n      0x00\n        /* \"#utility.yul\":404:406   */\n      0x20\n        /* \"#utility.yul\":392:401   */\n      dup3\n        /* \"#utility.yul\":383:390   */\n      dup5\n        /* \"#utility.yul\":379:402   */\n      sub\n        /* \"#utility.yul\":375:407   */\n      slt\n        /* \"#utility.yul\":372:424   */\n      iszero\n      tag_30\n      jumpi\n        /* \"#utility.yul\":420:421   */\n      0x00\n        /* \"#utility.yul\":417:418   */\n      dup1\n        /* \"#utility.yul\":410:422   */\n      revert\n        /* \"#utility.yul\":372:424   */\n    tag_30:\n      pop\n        /* \"#utility.yul\":443:466   */\n      calldataload\n      swap2\n        /* \"#utility.yul\":292:472   */\n      swap1\n      pop\n      jump\t// out\n\n    auxdata: 0xa264697066735822122094a8b69148c02eaacf38dd3ef1890b9dab551df49d61b3bd6847656e66e16e9264736f6c63430008070033\n}\n",
				"bytecode": {
					"linkReferences": {},
					"object": "608060405234801561001057600080fd5b50610154806100206000396000f3fe608060405234801561001057600080fd5b5060043610610068577c0100000000000000000000000000000000000000000000000000000000600035046306540f7e811461006d57806366335767146100895780636deecdbe1461009e578063eb1b30d9146100bb575b600080fd5b61007660005481565b6040519081526020015b60405180910390f35b61009c610097366004610105565b600055565b005b6001546100ab9060ff1681565b6040519015158152602001610080565b61009c6100c93660046100dc565b6001805460ff1916911515919091179055565b6000602082840312156100ee57600080fd5b813580151581146100fe57600080fd5b9392505050565b60006020828403121561011757600080fd5b503591905056fea264697066735822122094a8b69148c02eaacf38dd3ef1890b9dab551df49d61b3bd6847656e66e16e9264736f6c63430008070033",
					"opcodes": "PUSH1 0x80 PUSH1 0x40 MSTORE CALLVALUE DUP1 ISZERO PUSH2 0x10 JUMPI PUSH1 0x0 DUP1 REVERT JUMPDEST POP PUSH2 0x154 DUP1 PUSH2 0x20 PUSH1 0x0 CODECOPY PUSH1 0x0 RETURN INVALID PUSH1 0x80 PUSH1 0x40 MSTORE CALLVALUE DUP1 ISZERO PUSH2 0x10 JUMPI PUSH1 0x0 DUP1 REVERT JUMPDEST POP PUSH1 0x4 CALLDATASIZE LT PUSH2 0x68 JUMPI PUSH29 0x100000000000000000000000000000000000000000000000000000000 PUSH1 0x0 CALLDATALOAD DIV PUSH4 0x6540F7E DUP2 EQ PUSH2 0x6D JUMPI DUP1 PUSH4 0x66335767 EQ PUSH2 0x89 JUMPI DUP1 PUSH4 0x6DEECDBE EQ PUSH2 0x9E JUMPI DUP1 PUSH4 0xEB1B30D9 EQ PUSH2 0xBB JUMPI JUMPDEST PUSH1 0x0 DUP1 REVERT JUMPDEST PUSH2 0x76 PUSH1 0x0 SLOAD DUP2 JUMP JUMPDEST PUSH1 0x40 MLOAD SWAP1 DUP2 MSTORE PUSH1 0x20 ADD JUMPDEST PUSH1 0x40 MLOAD DUP1 SWAP2 SUB SWAP1 RETURN JUMPDEST PUSH2 0x9C PUSH2 0x97 CALLDATASIZE PUSH1 0x4 PUSH2 0x105 JUMP JUMPDEST PUSH1 0x0 SSTORE JUMP JUMPDEST STOP JUMPDEST PUSH1 0x1 SLOAD PUSH2 0xAB SWAP1 PUSH1 0xFF AND DUP2 JUMP JUMPDEST PUSH1 0x40 MLOAD SWAP1 ISZERO ISZERO DUP2 MSTORE PUSH1 0x20 ADD PUSH2 0x80 JUMP JUMPDEST PUSH2 0x9C PUSH2 0xC9 CALLDATASIZE PUSH1 0x4 PUSH2 0xDC JUMP JUMPDEST PUSH1 0x1 DUP1 SLOAD PUSH1 0xFF NOT AND SWAP2 ISZERO ISZERO SWAP2 SWAP1 SWAP2 OR SWAP1 SSTORE JUMP JUMPDEST PUSH1 0x0 PUSH1 0x20 DUP3 DUP5 SUB SLT ISZERO PUSH2 0xEE JUMPI PUSH1 0x0 DUP1 REVERT JUMPDEST DUP2 CALLDATALOAD DUP1 ISZERO ISZERO DUP2 EQ PUSH2 0xFE JUMPI PUSH1 0x0 DUP1 REVERT JUMPDEST SWAP4 SWAP3 POP POP POP JUMP JUMPDEST PUSH1 0x0 PUSH1 0x20 DUP3 DUP5 SUB SLT ISZERO PUSH2 0x117 JUMPI PUSH1 0x0 DUP1 REVERT JUMPDEST POP CALLDATALOAD SWAP2 SWAP1 POP JUMP INVALID LOG2 PUSH5 0x6970667358 0x22 SLT KECCAK256 SWAP5 0xA8 0xB6 SWAP2 BASEFEE 0xC0 0x2E 0xAA 0xCF CODESIZE 0xDD RETURNDATACOPY CALL DUP10 SIGNEXTEND SWAP14 0xAB SSTORE SAR DELEGATECALL SWAP14 PUSH2 0xB3BD PUSH9 0x47656E66E16E926473 PUSH16 0x6C634300080700330000000000000000 "
				},
				"gasEstimates": {
					"creation": {
						"codeDepositCost": "68000",
						"executionCost": "117",
						"totalCost": "68117"
					},
					"external": {
						"myBool()": "434",
						"myUint()": "364",
						"setMyBool(bool)": "20528",
						"setMyuint(uint256)": "20214"
					}
				},
				"methodIdentifiers": {
					"myBool()": "6deecdbe",
					"myUint()": "06540f7e",
					"setMyBool(bool)": "eb1b30d9",
					"setMyuint(uint256)": "66335767"
				}
			},
			"storageLayout": {
				"storage": [
					{
						"astId": 3,
						"contract": "Variables.sol:Workingwithvariables",
						"label": "myUint",
						"offset": 0,
						"slot": "0",
						"type": "t_uint256"
					},
					{
						"astId": 15,
						"contract": "Variables.sol:Workingwithvariables",
						"label": "myBool",
						"offset": 0,
						"slot": "1",
						"type": "t_bool"
					}
				],
				"types": {
					"t_bool": {
						"encoding": "inplace",
						"label": "bool",
						"numberOfBytes": "1"
					},
					"t_uint256": {
						"encoding": "inplace",
						"label": "uint256",
						"numberOfBytes": "32"
					}
				}
			},
			"userdoc": {
				"kind": "user",
				"methods": {},
				"version": 1
			}
		}
	}
}