{
	"Variables.sol": {
		"Workingwithvariables": {
			"abi": [
				{
					"inputs": [],
					"name": "decrementUint",
					"outputs": [],
					"stateMutability": "nonpayable",
					"type": "function"
				},
				{
					"inputs": [],
					"name": "incrementUint",
					"outputs": [],
					"stateMutability": "nonpayable",
					"type": "function"
				},
				{
					"inputs": [],
					"name": "myBool",
					"outputs": [
						{
							"internalType": "bool",
							"name": "",
							"type": "bool"
						}
					],
					"stateMutability": "view",
					"type": "function"
				},
				{
					"inputs": [],
					"name": "myUint",
					"outputs": [
						{
							"internalType": "uint256",
							"name": "",
							"type": "uint256"
						}
					],
					"stateMutability": "view",
					"type": "function"
				},
				{
					"inputs": [],
					"name": "myUint8",
					"outputs": [
						{
							"internalType": "uint8",
							"name": "",
							"type": "uint8"
						}
					],
					"stateMutability": "view",
					"type": "function"
				},
				{
					"inputs": [
						{
							"internalType": "address",
							"name": "_adress",
							"type": "address"
						}
					],
					"name": "setAdress",
					"outputs": [],
					"stateMutability": "nonpayable",
					"type": "function"
				},
				{
					"inputs": [
						{
							"internalType": "bool",
							"name": "_myBool",
							"type": "bool"
						}
					],
					"name": "setMyBool",
					"outputs": [],
					"stateMutability": "nonpayable",
					"type": "function"
				},
				{
					"inputs": [
						{
							"internalType": "uint256",
							"name": "_myUint",
							"type": "uint256"
						}
					],
					"name": "setMyuint",
					"outputs": [],
					"stateMutability": "nonpayable",
					"type": "function"
				}
			],
			"devdoc": {
				"kind": "dev",
				"methods": {},
				"version": 1
			},
			"evm": {
				"assembly": "    /* \"Variables.sol\":27:630  contract Workingwithvariables {\r... */\n  mstore(0x40, 0x80)\n  callvalue\n  dup1\n  iszero\n  tag_1\n  jumpi\n  0x00\n  dup1\n  revert\ntag_1:\n  pop\n  dataSize(sub_0)\n  dup1\n  dataOffset(sub_0)\n  0x00\n  codecopy\n  0x00\n  return\nstop\n\nsub_0: assembly {\n        /* \"Variables.sol\":27:630  contract Workingwithvariables {\r... */\n      mstore(0x40, 0x80)\n      callvalue\n      dup1\n      iszero\n      tag_1\n      jumpi\n      0x00\n      dup1\n      revert\n    tag_1:\n      pop\n      jumpi(tag_2, lt(calldatasize, 0x04))\n      calldataload(0x00)\n      0x0100000000000000000000000000000000000000000000000000000000\n      swap1\n      div\n      dup1\n      0x6deecdbe\n      gt\n      tag_11\n      jumpi\n      dup1\n      0x6deecdbe\n      eq\n      tag_7\n      jumpi\n      dup1\n      0xda50eaee\n      eq\n      tag_8\n      jumpi\n      dup1\n      0xe2a4b2af\n      eq\n      tag_9\n      jumpi\n      dup1\n      0xeb1b30d9\n      eq\n      tag_10\n      jumpi\n      0x00\n      dup1\n      revert\n    tag_11:\n      dup1\n      0x06540f7e\n      eq\n      tag_3\n      jumpi\n      dup1\n      0x0e807d6e\n      eq\n      tag_4\n      jumpi\n      dup1\n      0x14bf43bd\n      eq\n      tag_5\n      jumpi\n      dup1\n      0x66335767\n      eq\n      tag_6\n      jumpi\n    tag_2:\n      0x00\n      dup1\n      revert\n        /* \"Variables.sol\":64:85  uint256 public myUint */\n    tag_3:\n      tag_12\n      sload(0x00)\n      dup2\n      jump\n    tag_12:\n      mload(0x40)\n        /* \"#utility.yul\":1129:1154   */\n      swap1\n      dup2\n      mstore\n        /* \"#utility.yul\":1117:1119   */\n      0x20\n        /* \"#utility.yul\":1102:1120   */\n      add\n        /* \"Variables.sol\":64:85  uint256 public myUint */\n    tag_14:\n      mload(0x40)\n      dup1\n      swap2\n      sub\n      swap1\n      return\n        /* \"Variables.sol\":542:622  function setAdress(address _adress) public {\r... */\n    tag_4:\n      tag_16\n      tag_17\n      calldatasize\n      0x04\n      tag_18\n      jump\t// in\n    tag_17:\n        /* \"Variables.sol\":596:604  myAdress */\n      0x01\n        /* \"Variables.sol\":596:614  myAdress = _adress */\n      dup1\n      sload\n      0xffffffffffffffffffffffffffffffffffffffff\n      swap1\n      swap3\n      and\n      0x010000\n      mul\n      not(0xffffffffffffffffffffffffffffffffffffffff0000)\n      swap1\n      swap3\n      and\n      swap2\n      swap1\n      swap2\n      or\n      swap1\n      sstore\n        /* \"Variables.sol\":542:622  function setAdress(address _adress) public {\r... */\n      jump\n    tag_16:\n      stop\n        /* \"Variables.sol\":383:443  function incrementUint() public {\r... */\n    tag_5:\n      tag_16\n      tag_21\n      jump\t// in\n        /* \"Variables.sol\":159:234  function setMyuint(uint _myUint) public {\r... */\n    tag_6:\n      tag_16\n      tag_23\n      calldatasize\n      0x04\n      tag_24\n      jump\t// in\n    tag_23:\n        /* \"Variables.sol\":210:216  myUint */\n      0x00\n        /* \"Variables.sol\":210:226  myUint = _myUint */\n      sstore\n        /* \"Variables.sol\":159:234  function setMyuint(uint _myUint) public {\r... */\n      jump\n        /* \"Variables.sol\":240:258  bool public myBool */\n    tag_7:\n      sload(0x01)\n      tag_26\n      swap1\n      0xff\n      and\n      dup2\n      jump\n    tag_26:\n      mload(0x40)\n        /* \"#utility.yul\":956:970   */\n      swap1\n      iszero\n        /* \"#utility.yul\":949:971   */\n      iszero\n        /* \"#utility.yul\":931:972   */\n      dup2\n      mstore\n        /* \"#utility.yul\":919:921   */\n      0x20\n        /* \"#utility.yul\":904:922   */\n      add\n        /* \"Variables.sol\":240:258  bool public myBool */\n      tag_14\n        /* \"#utility.yul\":791:978   */\n      jump\n        /* \"Variables.sol\":451:511  function decrementUint() public {\r... */\n    tag_8:\n      tag_16\n      tag_31\n      jump\t// in\n        /* \"Variables.sol\":354:374  uint8 public myUint8 */\n    tag_9:\n      sload(0x01)\n      tag_32\n      swap1\n      0x0100\n      swap1\n      div\n      0xff\n      and\n      dup2\n      jump\n    tag_32:\n      mload(0x40)\n        /* \"#utility.yul\":1337:1341   */\n      0xff\n        /* \"#utility.yul\":1325:1342   */\n      swap1\n      swap2\n      and\n        /* \"#utility.yul\":1307:1343   */\n      dup2\n      mstore\n        /* \"#utility.yul\":1295:1297   */\n      0x20\n        /* \"#utility.yul\":1280:1298   */\n      add\n        /* \"Variables.sol\":354:374  uint8 public myUint8 */\n      tag_14\n        /* \"#utility.yul\":1165:1349   */\n      jump\n        /* \"Variables.sol\":267:342  function setMyBool(bool _myBool) public {\r... */\n    tag_10:\n      tag_16\n      tag_37\n      calldatasize\n      0x04\n      tag_38\n      jump\t// in\n    tag_37:\n        /* \"Variables.sol\":318:324  myBool */\n      0x01\n        /* \"Variables.sol\":318:334  myBool = _myBool */\n      dup1\n      sload\n      not(0xff)\n      and\n      swap2\n      iszero\n      iszero\n      swap2\n      swap1\n      swap2\n      or\n      swap1\n      sstore\n        /* \"Variables.sol\":267:342  function setMyBool(bool _myBool) public {\r... */\n      jump\n        /* \"Variables.sol\":383:443  function incrementUint() public {\r... */\n    tag_21:\n        /* \"Variables.sol\":426:433  myUint8 */\n      0x01\n        /* \"Variables.sol\":426:435  myUint8++ */\n      dup1\n      sload\n      0x0100\n      swap1\n      div\n      0xff\n      and\n      swap1\n        /* \"Variables.sol\":426:433  myUint8 */\n      dup1\n        /* \"Variables.sol\":426:435  myUint8++ */\n      tag_42\n      dup4\n      tag_43\n      jump\t// in\n    tag_42:\n      swap2\n      swap1\n      0x0100\n      exp\n      dup2\n      sload\n      dup2\n      0xff\n      mul\n      not\n      and\n      swap1\n      dup4\n      0xff\n      and\n      mul\n      or\n      swap1\n      sstore\n      pop\n      pop\n        /* \"Variables.sol\":383:443  function incrementUint() public {\r... */\n      jump\t// out\n        /* \"Variables.sol\":451:511  function decrementUint() public {\r... */\n    tag_31:\n        /* \"Variables.sol\":494:501  myUint8 */\n      0x01\n        /* \"Variables.sol\":494:503  myUint8-- */\n      dup1\n      sload\n      0x0100\n      swap1\n      div\n      0xff\n      and\n      swap1\n        /* \"Variables.sol\":494:501  myUint8 */\n      dup1\n        /* \"Variables.sol\":494:503  myUint8-- */\n      tag_42\n      dup4\n      tag_47\n      jump\t// in\n        /* \"#utility.yul\":14:323   */\n    tag_18:\n        /* \"#utility.yul\":73:79   */\n      0x00\n        /* \"#utility.yul\":126:128   */\n      0x20\n        /* \"#utility.yul\":114:123   */\n      dup3\n        /* \"#utility.yul\":105:112   */\n      dup5\n        /* \"#utility.yul\":101:124   */\n      sub\n        /* \"#utility.yul\":97:129   */\n      slt\n        /* \"#utility.yul\":94:146   */\n      iszero\n      tag_51\n      jumpi\n        /* \"#utility.yul\":142:143   */\n      0x00\n        /* \"#utility.yul\":139:140   */\n      dup1\n        /* \"#utility.yul\":132:144   */\n      revert\n        /* \"#utility.yul\":94:146   */\n    tag_51:\n        /* \"#utility.yul\":181:190   */\n      dup2\n        /* \"#utility.yul\":168:191   */\n      calldataload\n        /* \"#utility.yul\":231:273   */\n      0xffffffffffffffffffffffffffffffffffffffff\n        /* \"#utility.yul\":224:229   */\n      dup2\n        /* \"#utility.yul\":220:274   */\n      and\n        /* \"#utility.yul\":213:218   */\n      dup2\n        /* \"#utility.yul\":210:275   */\n      eq\n        /* \"#utility.yul\":200:293   */\n      tag_52\n      jumpi\n        /* \"#utility.yul\":289:290   */\n      0x00\n        /* \"#utility.yul\":286:287   */\n      dup1\n        /* \"#utility.yul\":279:291   */\n      revert\n        /* \"#utility.yul\":200:293   */\n    tag_52:\n        /* \"#utility.yul\":312:317   */\n      swap4\n        /* \"#utility.yul\":14:323   */\n      swap3\n      pop\n      pop\n      pop\n      jump\t// out\n        /* \"#utility.yul\":328:601   */\n    tag_38:\n        /* \"#utility.yul\":384:390   */\n      0x00\n        /* \"#utility.yul\":437:439   */\n      0x20\n        /* \"#utility.yul\":425:434   */\n      dup3\n        /* \"#utility.yul\":416:423   */\n      dup5\n        /* \"#utility.yul\":412:435   */\n      sub\n        /* \"#utility.yul\":408:440   */\n      slt\n        /* \"#utility.yul\":405:457   */\n      iszero\n      tag_54\n      jumpi\n        /* \"#utility.yul\":453:454   */\n      0x00\n        /* \"#utility.yul\":450:451   */\n      dup1\n        /* \"#utility.yul\":443:455   */\n      revert\n        /* \"#utility.yul\":405:457   */\n    tag_54:\n        /* \"#utility.yul\":492:501   */\n      dup2\n        /* \"#utility.yul\":479:502   */\n      calldataload\n        /* \"#utility.yul\":545:550   */\n      dup1\n        /* \"#utility.yul\":538:551   */\n      iszero\n        /* \"#utility.yul\":531:552   */\n      iszero\n        /* \"#utility.yul\":524:529   */\n      dup2\n        /* \"#utility.yul\":521:553   */\n      eq\n        /* \"#utility.yul\":511:571   */\n      tag_52\n      jumpi\n        /* \"#utility.yul\":567:568   */\n      0x00\n        /* \"#utility.yul\":564:565   */\n      dup1\n        /* \"#utility.yul\":557:569   */\n      revert\n        /* \"#utility.yul\":606:786   */\n    tag_24:\n        /* \"#utility.yul\":665:671   */\n      0x00\n        /* \"#utility.yul\":718:720   */\n      0x20\n        /* \"#utility.yul\":706:715   */\n      dup3\n        /* \"#utility.yul\":697:704   */\n      dup5\n        /* \"#utility.yul\":693:716   */\n      sub\n        /* \"#utility.yul\":689:721   */\n      slt\n        /* \"#utility.yul\":686:738   */\n      iszero\n      tag_57\n      jumpi\n        /* \"#utility.yul\":734:735   */\n      0x00\n        /* \"#utility.yul\":731:732   */\n      dup1\n        /* \"#utility.yul\":724:736   */\n      revert\n        /* \"#utility.yul\":686:738   */\n    tag_57:\n      pop\n        /* \"#utility.yul\":757:780   */\n      calldataload\n      swap2\n        /* \"#utility.yul\":606:786   */\n      swap1\n      pop\n      jump\t// out\n        /* \"#utility.yul\":1354:1532   */\n    tag_47:\n        /* \"#utility.yul\":1391:1394   */\n      0x00\n        /* \"#utility.yul\":1435:1439   */\n      0xff\n        /* \"#utility.yul\":1428:1433   */\n      dup3\n        /* \"#utility.yul\":1424:1440   */\n      and\n        /* \"#utility.yul\":1459:1466   */\n      dup1\n        /* \"#utility.yul\":1449:1490   */\n      tag_63\n      jumpi\n        /* \"#utility.yul\":1470:1488   */\n      tag_63\n      tag_64\n      jump\t// in\n    tag_63:\n      not(0x00)\n        /* \"#utility.yul\":1506:1526   */\n      add\n      swap3\n        /* \"#utility.yul\":1354:1532   */\n      swap2\n      pop\n      pop\n      jump\t// out\n        /* \"#utility.yul\":1537:1712   */\n    tag_43:\n        /* \"#utility.yul\":1574:1577   */\n      0x00\n        /* \"#utility.yul\":1618:1622   */\n      0xff\n        /* \"#utility.yul\":1611:1616   */\n      dup3\n        /* \"#utility.yul\":1607:1623   */\n      and\n        /* \"#utility.yul\":1647:1651   */\n      0xff\n        /* \"#utility.yul\":1638:1645   */\n      dup2\n        /* \"#utility.yul\":1635:1652   */\n      eq\n        /* \"#utility.yul\":1632:1675   */\n      iszero\n      tag_67\n      jumpi\n        /* \"#utility.yul\":1655:1673   */\n      tag_67\n      tag_64\n      jump\t// in\n    tag_67:\n        /* \"#utility.yul\":1704:1705   */\n      0x01\n        /* \"#utility.yul\":1691:1706   */\n      add\n      swap3\n        /* \"#utility.yul\":1537:1712   */\n      swap2\n      pop\n      pop\n      jump\t// out\n        /* \"#utility.yul\":1717:1901   */\n    tag_64:\n        /* \"#utility.yul\":1769:1846   */\n      0x4e487b7100000000000000000000000000000000000000000000000000000000\n        /* \"#utility.yul\":1766:1767   */\n      0x00\n        /* \"#utility.yul\":1759:1847   */\n      mstore\n        /* \"#utility.yul\":1866:1870   */\n      0x11\n        /* \"#utility.yul\":1863:1864   */\n      0x04\n        /* \"#utility.yul\":1856:1871   */\n      mstore\n        /* \"#utility.yul\":1890:1894   */\n      0x24\n        /* \"#utility.yul\":1887:1888   */\n      0x00\n        /* \"#utility.yul\":1880:1895   */\n      revert\n\n    auxdata: 0xa2646970667358221220c99a42e51f50c1e798f04adc14438b2360573d3f122f332d7dfb873f64bdbc4264736f6c63430008070033\n}\n",
				"bytecode": {
					"linkReferences": {},
					"object": "608060405234801561001057600080fd5b50610302806100206000396000f3fe608060405234801561001057600080fd5b50600436106100a5576000357c0100000000000000000000000000000000000000000000000000000000900480636deecdbe116100785780636deecdbe14610135578063da50eaee14610152578063e2a4b2af1461015a578063eb1b30d91461017e57600080fd5b806306540f7e146100aa5780630e807d6e146100c657806314bf43bd1461011a5780636633576714610122575b600080fd5b6100b360005481565b6040519081526020015b60405180910390f35b6101186100d43660046101e8565b6001805473ffffffffffffffffffffffffffffffffffffffff909216620100000275ffffffffffffffffffffffffffffffffffffffff000019909216919091179055565b005b61011861019f565b610118610130366004610247565b600055565b6001546101429060ff1681565b60405190151581526020016100bd565b6101186101d1565b60015461016c90610100900460ff1681565b60405160ff90911681526020016100bd565b61011861018c366004610225565b6001805460ff1916911515919091179055565b60018054610100900460ff1690806101b68361027d565b91906101000a81548160ff021916908360ff16021790555050565b60018054610100900460ff1690806101b683610260565b6000602082840312156101fa57600080fd5b813573ffffffffffffffffffffffffffffffffffffffff8116811461021e57600080fd5b9392505050565b60006020828403121561023757600080fd5b8135801515811461021e57600080fd5b60006020828403121561025957600080fd5b5035919050565b600060ff8216806102735761027361029d565b6000190192915050565b600060ff821660ff8114156102945761029461029d565b60010192915050565b7f4e487b7100000000000000000000000000000000000000000000000000000000600052601160045260246000fdfea2646970667358221220c99a42e51f50c1e798f04adc14438b2360573d3f122f332d7dfb873f64bdbc4264736f6c63430008070033",
					"opcodes": "PUSH1 0x80 PUSH1 0x40 MSTORE CALLVALUE DUP1 ISZERO PUSH2 0x10 JUMPI PUSH1 0x0 DUP1 REVERT JUMPDEST POP PUSH2 0x302 DUP1 PUSH2 0x20 PUSH1 0x0 CODECOPY PUSH1 0x0 RETURN INVALID PUSH1 0x80 PUSH1 0x40 MSTORE CALLVALUE DUP1 ISZERO PUSH2 0x10 JUMPI PUSH1 0x0 DUP1 REVERT JUMPDEST POP PUSH1 0x4 CALLDATASIZE LT PUSH2 0xA5 JUMPI PUSH1 0x0 CALLDATALOAD PUSH29 0x100000000000000000000000000000000000000000000000000000000 SWAP1 DIV DUP1 PUSH4 0x6DEECDBE GT PUSH2 0x78 JUMPI DUP1 PUSH4 0x6DEECDBE EQ PUSH2 0x135 JUMPI DUP1 PUSH4 0xDA50EAEE EQ PUSH2 0x152 JUMPI DUP1 PUSH4 0xE2A4B2AF EQ PUSH2 0x15A JUMPI DUP1 PUSH4 0xEB1B30D9 EQ PUSH2 0x17E JUMPI PUSH1 0x0 DUP1 REVERT JUMPDEST DUP1 PUSH4 0x6540F7E EQ PUSH2 0xAA JUMPI DUP1 PUSH4 0xE807D6E EQ PUSH2 0xC6 JUMPI DUP1 PUSH4 0x14BF43BD EQ PUSH2 0x11A JUMPI DUP1 PUSH4 0x66335767 EQ PUSH2 0x122 JUMPI JUMPDEST PUSH1 0x0 DUP1 REVERT JUMPDEST PUSH2 0xB3 PUSH1 0x0 SLOAD DUP2 JUMP JUMPDEST PUSH1 0x40 MLOAD SWAP1 DUP2 MSTORE PUSH1 0x20 ADD JUMPDEST PUSH1 0x40 MLOAD DUP1 SWAP2 SUB SWAP1 RETURN JUMPDEST PUSH2 0x118 PUSH2 0xD4 CALLDATASIZE PUSH1 0x4 PUSH2 0x1E8 JUMP JUMPDEST PUSH1 0x1 DUP1 SLOAD PUSH20 0xFFFFFFFFFFFFFFFFFFFFFFFFFFFFFFFFFFFFFFFF SWAP1 SWAP3 AND PUSH3 0x10000 MUL PUSH22 0xFFFFFFFFFFFFFFFFFFFFFFFFFFFFFFFFFFFFFFFF0000 NOT SWAP1 SWAP3 AND SWAP2 SWAP1 SWAP2 OR SWAP1 SSTORE JUMP JUMPDEST STOP JUMPDEST PUSH2 0x118 PUSH2 0x19F JUMP JUMPDEST PUSH2 0x118 PUSH2 0x130 CALLDATASIZE PUSH1 0x4 PUSH2 0x247 JUMP JUMPDEST PUSH1 0x0 SSTORE JUMP JUMPDEST PUSH1 0x1 SLOAD PUSH2 0x142 SWAP1 PUSH1 0xFF AND DUP2 JUMP JUMPDEST PUSH1 0x40 MLOAD SWAP1 ISZERO ISZERO DUP2 MSTORE PUSH1 0x20 ADD PUSH2 0xBD JUMP JUMPDEST PUSH2 0x118 PUSH2 0x1D1 JUMP JUMPDEST PUSH1 0x1 SLOAD PUSH2 0x16C SWAP1 PUSH2 0x100 SWAP1 DIV PUSH1 0xFF AND DUP2 JUMP JUMPDEST PUSH1 0x40 MLOAD PUSH1 0xFF SWAP1 SWAP2 AND DUP2 MSTORE PUSH1 0x20 ADD PUSH2 0xBD JUMP JUMPDEST PUSH2 0x118 PUSH2 0x18C CALLDATASIZE PUSH1 0x4 PUSH2 0x225 JUMP JUMPDEST PUSH1 0x1 DUP1 SLOAD PUSH1 0xFF NOT AND SWAP2 ISZERO ISZERO SWAP2 SWAP1 SWAP2 OR SWAP1 SSTORE JUMP JUMPDEST PUSH1 0x1 DUP1 SLOAD PUSH2 0x100 SWAP1 DIV PUSH1 0xFF AND SWAP1 DUP1 PUSH2 0x1B6 DUP4 PUSH2 0x27D JUMP JUMPDEST SWAP2 SWAP1 PUSH2 0x100 EXP DUP2 SLOAD DUP2 PUSH1 0xFF MUL NOT AND SWAP1 DUP4 PUSH1 0xFF AND MUL OR SWAP1 SSTORE POP POP JUMP JUMPDEST PUSH1 0x1 DUP1 SLOAD PUSH2 0x100 SWAP1 DIV PUSH1 0xFF AND SWAP1 DUP1 PUSH2 0x1B6 DUP4 PUSH2 0x260 JUMP JUMPDEST PUSH1 0x0 PUSH1 0x20 DUP3 DUP5 SUB SLT ISZERO PUSH2 0x1FA JUMPI PUSH1 0x0 DUP1 REVERT JUMPDEST DUP2 CALLDATALOAD PUSH20 0xFFFFFFFFFFFFFFFFFFFFFFFFFFFFFFFFFFFFFFFF DUP2 AND DUP2 EQ PUSH2 0x21E JUMPI PUSH1 0x0 DUP1 REVERT JUMPDEST SWAP4 SWAP3 POP POP POP JUMP JUMPDEST PUSH1 0x0 PUSH1 0x20 DUP3 DUP5 SUB SLT ISZERO PUSH2 0x237 JUMPI PUSH1 0x0 DUP1 REVERT JUMPDEST DUP2 CALLDATALOAD DUP1 ISZERO ISZERO DUP2 EQ PUSH2 0x21E JUMPI PUSH1 0x0 DUP1 REVERT JUMPDEST PUSH1 0x0 PUSH1 0x20 DUP3 DUP5 SUB SLT ISZERO PUSH2 0x259 JUMPI PUSH1 0x0 DUP1 REVERT JUMPDEST POP CALLDATALOAD SWAP2 SWAP1 POP JUMP JUMPDEST PUSH1 0x0 PUSH1 0xFF DUP3 AND DUP1 PUSH2 0x273 JUMPI PUSH2 0x273 PUSH2 0x29D JUMP JUMPDEST PUSH1 0x0 NOT ADD SWAP3 SWAP2 POP POP JUMP JUMPDEST PUSH1 0x0 PUSH1 0xFF DUP3 AND PUSH1 0xFF DUP2 EQ ISZERO PUSH2 0x294 JUMPI PUSH2 0x294 PUSH2 0x29D JUMP JUMPDEST PUSH1 0x1 ADD SWAP3 SWAP2 POP POP JUMP JUMPDEST PUSH32 0x4E487B7100000000000000000000000000000000000000000000000000000000 PUSH1 0x0 MSTORE PUSH1 0x11 PUSH1 0x4 MSTORE PUSH1 0x24 PUSH1 0x0 REVERT INVALID LOG2 PUSH5 0x6970667358 0x22 SLT KECCAK256 0xC9 SWAP11 TIMESTAMP 0xE5 0x1F POP 0xC1 0xE7 SWAP9 CREATE 0x4A 0xDC EQ NUMBER DUP12 0x23 PUSH1 0x57 RETURNDATASIZE EXTCODEHASH SLT 0x2F CALLER 0x2D PUSH30 0xFB873F64BDBC4264736F6C63430008070033000000000000000000000000 "
				},
				"gasEstimates": {
					"creation": {
						"codeDepositCost": "154000",
						"executionCost": "202",
						"totalCost": "154202"
					},
					"external": {
						"decrementUint()": "20791",
						"incrementUint()": "20820",
						"myBool()": "415",
						"myUint()": "390",
						"myUint8()": "473",
						"setAdress(address)": "20527",
						"setMyBool(bool)": "20553",
						"setMyuint(uint256)": "20284"
					}
				},
				"methodIdentifiers": {
					"decrementUint()": "da50eaee",
					"incrementUint()": "14bf43bd",
					"myBool()": "6deecdbe",
					"myUint()": "06540f7e",
					"myUint8()": "e2a4b2af",
					"setAdress(address)": "0e807d6e",
					"setMyBool(bool)": "eb1b30d9",
					"setMyuint(uint256)": "66335767"
				}
			},
			"storageLayout": {
				"storage": [
					{
						"astId": 3,
						"contract": "Variables.sol:Workingwithvariables",
						"label": "myUint",
						"offset": 0,
						"slot": "0",
						"type": "t_uint256"
					},
					{
						"astId": 15,
						"contract": "Variables.sol:Workingwithvariables",
						"label": "myBool",
						"offset": 0,
						"slot": "1",
						"type": "t_bool"
					},
					{
						"astId": 27,
						"contract": "Variables.sol:Workingwithvariables",
						"label": "myUint8",
						"offset": 1,
						"slot": "1",
						"type": "t_uint8"
					},
					{
						"astId": 43,
						"contract": "Variables.sol:Workingwithvariables",
						"label": "myAdress",
						"offset": 2,
						"slot": "1",
						"type": "t_address"
					}
				],
				"types": {
					"t_address": {
						"encoding": "inplace",
						"label": "address",
						"numberOfBytes": "20"
					},
					"t_bool": {
						"encoding": "inplace",
						"label": "bool",
						"numberOfBytes": "1"
					},
					"t_uint256": {
						"encoding": "inplace",
						"label": "uint256",
						"numberOfBytes": "32"
					},
					"t_uint8": {
						"encoding": "inplace",
						"label": "uint8",
						"numberOfBytes": "1"
					}
				}
			},
			"userdoc": {
				"kind": "user",
				"methods": {},
				"version": 1
			}
		}
	}
}