{
	"Variables.sol": {
		"Workingwithvariables": {
			"abi": [
				{
					"inputs": [],
					"name": "incrementUint",
					"outputs": [],
					"stateMutability": "nonpayable",
					"type": "function"
				},
				{
					"inputs": [],
					"name": "myBool",
					"outputs": [
						{
							"internalType": "bool",
							"name": "",
							"type": "bool"
						}
					],
					"stateMutability": "view",
					"type": "function"
				},
				{
					"inputs": [],
					"name": "myUint",
					"outputs": [
						{
							"internalType": "uint256",
							"name": "",
							"type": "uint256"
						}
					],
					"stateMutability": "view",
					"type": "function"
				},
				{
					"inputs": [],
					"name": "myUint8",
					"outputs": [
						{
							"internalType": "uint8",
							"name": "",
							"type": "uint8"
						}
					],
					"stateMutability": "view",
					"type": "function"
				},
				{
					"inputs": [
						{
							"internalType": "bool",
							"name": "_myBool",
							"type": "bool"
						}
					],
					"name": "setMyBool",
					"outputs": [],
					"stateMutability": "nonpayable",
					"type": "function"
				},
				{
					"inputs": [
						{
							"internalType": "uint256",
							"name": "_myUint",
							"type": "uint256"
						}
					],
					"name": "setMyuint",
					"outputs": [],
					"stateMutability": "nonpayable",
					"type": "function"
				}
			],
			"devdoc": {
				"kind": "dev",
				"methods": {},
				"version": 1
			},
			"evm": {
				"assembly": "    /* \"Variables.sol\":27:457  contract Workingwithvariables {\r... */\n  mstore(0x40, 0x80)\n  callvalue\n  dup1\n  iszero\n  tag_1\n  jumpi\n  0x00\n  dup1\n  revert\ntag_1:\n  pop\n  dataSize(sub_0)\n  dup1\n  dataOffset(sub_0)\n  0x00\n  codecopy\n  0x00\n  return\nstop\n\nsub_0: assembly {\n        /* \"Variables.sol\":27:457  contract Workingwithvariables {\r... */\n      mstore(0x40, 0x80)\n      callvalue\n      dup1\n      iszero\n      tag_1\n      jumpi\n      0x00\n      dup1\n      revert\n    tag_1:\n      pop\n      jumpi(tag_2, lt(calldatasize, 0x04))\n      div(calldataload(0x00), 0x0100000000000000000000000000000000000000000000000000000000)\n      0x06540f7e\n      dup2\n      eq\n      tag_3\n      jumpi\n      dup1\n      0x14bf43bd\n      eq\n      tag_4\n      jumpi\n      dup1\n      0x66335767\n      eq\n      tag_5\n      jumpi\n      dup1\n      0x6deecdbe\n      eq\n      tag_6\n      jumpi\n      dup1\n      0xe2a4b2af\n      eq\n      tag_7\n      jumpi\n      dup1\n      0xeb1b30d9\n      eq\n      tag_8\n      jumpi\n    tag_2:\n      0x00\n      dup1\n      revert\n        /* \"Variables.sol\":64:85  uint256 public myUint */\n    tag_3:\n      tag_9\n      sload(0x00)\n      dup2\n      jump\n    tag_9:\n      mload(0x40)\n        /* \"#utility.yul\":815:840   */\n      swap1\n      dup2\n      mstore\n        /* \"#utility.yul\":803:805   */\n      0x20\n        /* \"#utility.yul\":788:806   */\n      add\n        /* \"Variables.sol\":64:85  uint256 public myUint */\n    tag_11:\n      mload(0x40)\n      dup1\n      swap2\n      sub\n      swap1\n      return\n        /* \"Variables.sol\":383:443  function incrementUint() public {\r... */\n    tag_4:\n      tag_13\n      tag_14\n      jump\t// in\n    tag_13:\n      stop\n        /* \"Variables.sol\":159:234  function setMyuint(uint _myUint) public {\r... */\n    tag_5:\n      tag_13\n      tag_16\n      calldatasize\n      0x04\n      tag_17\n      jump\t// in\n    tag_16:\n        /* \"Variables.sol\":210:216  myUint */\n      0x00\n        /* \"Variables.sol\":210:226  myUint = _myUint */\n      sstore\n        /* \"Variables.sol\":159:234  function setMyuint(uint _myUint) public {\r... */\n      jump\n        /* \"Variables.sol\":240:258  bool public myBool */\n    tag_6:\n      sload(0x01)\n      tag_19\n      swap1\n      0xff\n      and\n      dup2\n      jump\n    tag_19:\n      mload(0x40)\n        /* \"#utility.yul\":642:656   */\n      swap1\n      iszero\n        /* \"#utility.yul\":635:657   */\n      iszero\n        /* \"#utility.yul\":617:658   */\n      dup2\n      mstore\n        /* \"#utility.yul\":605:607   */\n      0x20\n        /* \"#utility.yul\":590:608   */\n      add\n        /* \"Variables.sol\":240:258  bool public myBool */\n      tag_11\n        /* \"#utility.yul\":477:664   */\n      jump\n        /* \"Variables.sol\":354:374  uint8 public myUint8 */\n    tag_7:\n      sload(0x01)\n      tag_23\n      swap1\n      0x0100\n      swap1\n      div\n      0xff\n      and\n      dup2\n      jump\n    tag_23:\n      mload(0x40)\n        /* \"#utility.yul\":1023:1027   */\n      0xff\n        /* \"#utility.yul\":1011:1028   */\n      swap1\n      swap2\n      and\n        /* \"#utility.yul\":993:1029   */\n      dup2\n      mstore\n        /* \"#utility.yul\":981:983   */\n      0x20\n        /* \"#utility.yul\":966:984   */\n      add\n        /* \"Variables.sol\":354:374  uint8 public myUint8 */\n      tag_11\n        /* \"#utility.yul\":851:1035   */\n      jump\n        /* \"Variables.sol\":267:342  function setMyBool(bool _myBool) public {\r... */\n    tag_8:\n      tag_13\n      tag_28\n      calldatasize\n      0x04\n      tag_29\n      jump\t// in\n    tag_28:\n        /* \"Variables.sol\":318:324  myBool */\n      0x01\n        /* \"Variables.sol\":318:334  myBool = _myBool */\n      dup1\n      sload\n      not(0xff)\n      and\n      swap2\n      iszero\n      iszero\n      swap2\n      swap1\n      swap2\n      or\n      swap1\n      sstore\n        /* \"Variables.sol\":267:342  function setMyBool(bool _myBool) public {\r... */\n      jump\n        /* \"Variables.sol\":383:443  function incrementUint() public {\r... */\n    tag_14:\n        /* \"Variables.sol\":426:433  myUint8 */\n      0x01\n        /* \"Variables.sol\":426:435  myUint8++ */\n      dup1\n      sload\n      0x0100\n      swap1\n      div\n      0xff\n      and\n      swap1\n        /* \"Variables.sol\":426:433  myUint8 */\n      dup1\n        /* \"Variables.sol\":426:435  myUint8++ */\n      tag_32\n      dup4\n      tag_33\n      jump\t// in\n    tag_32:\n      swap2\n      swap1\n      0x0100\n      exp\n      dup2\n      sload\n      dup2\n      0xff\n      mul\n      not\n      and\n      swap1\n      dup4\n      0xff\n      and\n      mul\n      or\n      swap1\n      sstore\n      pop\n      pop\n        /* \"Variables.sol\":383:443  function incrementUint() public {\r... */\n      jump\t// out\n        /* \"#utility.yul\":14:287   */\n    tag_29:\n        /* \"#utility.yul\":70:76   */\n      0x00\n        /* \"#utility.yul\":123:125   */\n      0x20\n        /* \"#utility.yul\":111:120   */\n      dup3\n        /* \"#utility.yul\":102:109   */\n      dup5\n        /* \"#utility.yul\":98:121   */\n      sub\n        /* \"#utility.yul\":94:126   */\n      slt\n        /* \"#utility.yul\":91:143   */\n      iszero\n      tag_38\n      jumpi\n        /* \"#utility.yul\":139:140   */\n      0x00\n        /* \"#utility.yul\":136:137   */\n      dup1\n        /* \"#utility.yul\":129:141   */\n      revert\n        /* \"#utility.yul\":91:143   */\n    tag_38:\n        /* \"#utility.yul\":178:187   */\n      dup2\n        /* \"#utility.yul\":165:188   */\n      calldataload\n        /* \"#utility.yul\":231:236   */\n      dup1\n        /* \"#utility.yul\":224:237   */\n      iszero\n        /* \"#utility.yul\":217:238   */\n      iszero\n        /* \"#utility.yul\":210:215   */\n      dup2\n        /* \"#utility.yul\":207:239   */\n      eq\n        /* \"#utility.yul\":197:257   */\n      tag_39\n      jumpi\n        /* \"#utility.yul\":253:254   */\n      0x00\n        /* \"#utility.yul\":250:251   */\n      dup1\n        /* \"#utility.yul\":243:255   */\n      revert\n        /* \"#utility.yul\":197:257   */\n    tag_39:\n        /* \"#utility.yul\":276:281   */\n      swap4\n        /* \"#utility.yul\":14:287   */\n      swap3\n      pop\n      pop\n      pop\n      jump\t// out\n        /* \"#utility.yul\":292:472   */\n    tag_17:\n        /* \"#utility.yul\":351:357   */\n      0x00\n        /* \"#utility.yul\":404:406   */\n      0x20\n        /* \"#utility.yul\":392:401   */\n      dup3\n        /* \"#utility.yul\":383:390   */\n      dup5\n        /* \"#utility.yul\":379:402   */\n      sub\n        /* \"#utility.yul\":375:407   */\n      slt\n        /* \"#utility.yul\":372:424   */\n      iszero\n      tag_41\n      jumpi\n        /* \"#utility.yul\":420:421   */\n      0x00\n        /* \"#utility.yul\":417:418   */\n      dup1\n        /* \"#utility.yul\":410:422   */\n      revert\n        /* \"#utility.yul\":372:424   */\n    tag_41:\n      pop\n        /* \"#utility.yul\":443:466   */\n      calldataload\n      swap2\n        /* \"#utility.yul\":292:472   */\n      swap1\n      pop\n      jump\t// out\n        /* \"#utility.yul\":1040:1369   */\n    tag_33:\n        /* \"#utility.yul\":1077:1080   */\n      0x00\n        /* \"#utility.yul\":1121:1125   */\n      0xff\n        /* \"#utility.yul\":1114:1119   */\n      dup3\n        /* \"#utility.yul\":1110:1126   */\n      and\n        /* \"#utility.yul\":1150:1154   */\n      0xff\n        /* \"#utility.yul\":1141:1148   */\n      dup2\n        /* \"#utility.yul\":1138:1155   */\n      eq\n        /* \"#utility.yul\":1135:1332   */\n      iszero\n      tag_46\n      jumpi\n        /* \"#utility.yul\":1188:1265   */\n      0x4e487b7100000000000000000000000000000000000000000000000000000000\n        /* \"#utility.yul\":1185:1186   */\n      0x00\n        /* \"#utility.yul\":1178:1266   */\n      mstore\n        /* \"#utility.yul\":1289:1293   */\n      0x11\n        /* \"#utility.yul\":1286:1287   */\n      0x04\n        /* \"#utility.yul\":1279:1294   */\n      mstore\n        /* \"#utility.yul\":1317:1321   */\n      0x24\n        /* \"#utility.yul\":1314:1315   */\n      0x00\n        /* \"#utility.yul\":1307:1322   */\n      revert\n        /* \"#utility.yul\":1135:1332   */\n    tag_46:\n        /* \"#utility.yul\":1361:1362   */\n      0x01\n        /* \"#utility.yul\":1348:1363   */\n      add\n      swap3\n        /* \"#utility.yul\":1040:1369   */\n      swap2\n      pop\n      pop\n      jump\t// out\n\n    auxdata: 0xa2646970667358221220d192b802fa9d05324f5230bb6f812c53af9b17b0438539bec329c7f20baa33e964736f6c63430008070033\n}\n",
				"bytecode": {
					"linkReferences": {},
					"object": "608060405234801561001057600080fd5b5061020f806100206000396000f3fe608060405234801561001057600080fd5b506004361061007e577c0100000000000000000000000000000000000000000000000000000000600035046306540f7e811461008357806314bf43bd1461009f57806366335767146100a95780636deecdbe146100bc578063e2a4b2af146100d9578063eb1b30d9146100fd575b600080fd5b61008c60005481565b6040519081526020015b60405180910390f35b6100a761011e565b005b6100a76100b7366004610179565b600055565b6001546100c99060ff1681565b6040519015158152602001610096565b6001546100eb90610100900460ff1681565b60405160ff9091168152602001610096565b6100a761010b366004610150565b6001805460ff1916911515919091179055565b60018054610100900460ff16908061013583610192565b91906101000a81548160ff021916908360ff16021790555050565b60006020828403121561016257600080fd5b8135801515811461017257600080fd5b9392505050565b60006020828403121561018b57600080fd5b5035919050565b600060ff821660ff8114156101d0577f4e487b7100000000000000000000000000000000000000000000000000000000600052601160045260246000fd5b6001019291505056fea2646970667358221220d192b802fa9d05324f5230bb6f812c53af9b17b0438539bec329c7f20baa33e964736f6c63430008070033",
					"opcodes": "PUSH1 0x80 PUSH1 0x40 MSTORE CALLVALUE DUP1 ISZERO PUSH2 0x10 JUMPI PUSH1 0x0 DUP1 REVERT JUMPDEST POP PUSH2 0x20F DUP1 PUSH2 0x20 PUSH1 0x0 CODECOPY PUSH1 0x0 RETURN INVALID PUSH1 0x80 PUSH1 0x40 MSTORE CALLVALUE DUP1 ISZERO PUSH2 0x10 JUMPI PUSH1 0x0 DUP1 REVERT JUMPDEST POP PUSH1 0x4 CALLDATASIZE LT PUSH2 0x7E JUMPI PUSH29 0x100000000000000000000000000000000000000000000000000000000 PUSH1 0x0 CALLDATALOAD DIV PUSH4 0x6540F7E DUP2 EQ PUSH2 0x83 JUMPI DUP1 PUSH4 0x14BF43BD EQ PUSH2 0x9F JUMPI DUP1 PUSH4 0x66335767 EQ PUSH2 0xA9 JUMPI DUP1 PUSH4 0x6DEECDBE EQ PUSH2 0xBC JUMPI DUP1 PUSH4 0xE2A4B2AF EQ PUSH2 0xD9 JUMPI DUP1 PUSH4 0xEB1B30D9 EQ PUSH2 0xFD JUMPI JUMPDEST PUSH1 0x0 DUP1 REVERT JUMPDEST PUSH2 0x8C PUSH1 0x0 SLOAD DUP2 JUMP JUMPDEST PUSH1 0x40 MLOAD SWAP1 DUP2 MSTORE PUSH1 0x20 ADD JUMPDEST PUSH1 0x40 MLOAD DUP1 SWAP2 SUB SWAP1 RETURN JUMPDEST PUSH2 0xA7 PUSH2 0x11E JUMP JUMPDEST STOP JUMPDEST PUSH2 0xA7 PUSH2 0xB7 CALLDATASIZE PUSH1 0x4 PUSH2 0x179 JUMP JUMPDEST PUSH1 0x0 SSTORE JUMP JUMPDEST PUSH1 0x1 SLOAD PUSH2 0xC9 SWAP1 PUSH1 0xFF AND DUP2 JUMP JUMPDEST PUSH1 0x40 MLOAD SWAP1 ISZERO ISZERO DUP2 MSTORE PUSH1 0x20 ADD PUSH2 0x96 JUMP JUMPDEST PUSH1 0x1 SLOAD PUSH2 0xEB SWAP1 PUSH2 0x100 SWAP1 DIV PUSH1 0xFF AND DUP2 JUMP JUMPDEST PUSH1 0x40 MLOAD PUSH1 0xFF SWAP1 SWAP2 AND DUP2 MSTORE PUSH1 0x20 ADD PUSH2 0x96 JUMP JUMPDEST PUSH2 0xA7 PUSH2 0x10B CALLDATASIZE PUSH1 0x4 PUSH2 0x150 JUMP JUMPDEST PUSH1 0x1 DUP1 SLOAD PUSH1 0xFF NOT AND SWAP2 ISZERO ISZERO SWAP2 SWAP1 SWAP2 OR SWAP1 SSTORE JUMP JUMPDEST PUSH1 0x1 DUP1 SLOAD PUSH2 0x100 SWAP1 DIV PUSH1 0xFF AND SWAP1 DUP1 PUSH2 0x135 DUP4 PUSH2 0x192 JUMP JUMPDEST SWAP2 SWAP1 PUSH2 0x100 EXP DUP2 SLOAD DUP2 PUSH1 0xFF MUL NOT AND SWAP1 DUP4 PUSH1 0xFF AND MUL OR SWAP1 SSTORE POP POP JUMP JUMPDEST PUSH1 0x0 PUSH1 0x20 DUP3 DUP5 SUB SLT ISZERO PUSH2 0x162 JUMPI PUSH1 0x0 DUP1 REVERT JUMPDEST DUP2 CALLDATALOAD DUP1 ISZERO ISZERO DUP2 EQ PUSH2 0x172 JUMPI PUSH1 0x0 DUP1 REVERT JUMPDEST SWAP4 SWAP3 POP POP POP JUMP JUMPDEST PUSH1 0x0 PUSH1 0x20 DUP3 DUP5 SUB SLT ISZERO PUSH2 0x18B JUMPI PUSH1 0x0 DUP1 REVERT JUMPDEST POP CALLDATALOAD SWAP2 SWAP1 POP JUMP JUMPDEST PUSH1 0x0 PUSH1 0xFF DUP3 AND PUSH1 0xFF DUP2 EQ ISZERO PUSH2 0x1D0 JUMPI PUSH32 0x4E487B7100000000000000000000000000000000000000000000000000000000 PUSH1 0x0 MSTORE PUSH1 0x11 PUSH1 0x4 MSTORE PUSH1 0x24 PUSH1 0x0 REVERT JUMPDEST PUSH1 0x1 ADD SWAP3 SWAP2 POP POP JUMP INVALID LOG2 PUSH5 0x6970667358 0x22 SLT KECCAK256 0xD1 SWAP3 0xB8 MUL STATICCALL SWAP14 SDIV ORIGIN 0x4F MSTORE ADDRESS 0xBB PUSH16 0x812C53AF9B17B0438539BEC329C7F20B 0xAA CALLER 0xE9 PUSH5 0x736F6C6343 STOP ADDMOD SMOD STOP CALLER "
				},
				"gasEstimates": {
					"creation": {
						"codeDepositCost": "105400",
						"executionCost": "153",
						"totalCost": "105553"
					},
					"external": {
						"incrementUint()": "20772",
						"myBool()": "456",
						"myUint()": "364",
						"myUint8()": "492",
						"setMyBool(bool)": "20572",
						"setMyuint(uint256)": "20236"
					}
				},
				"methodIdentifiers": {
					"incrementUint()": "14bf43bd",
					"myBool()": "6deecdbe",
					"myUint()": "06540f7e",
					"myUint8()": "e2a4b2af",
					"setMyBool(bool)": "eb1b30d9",
					"setMyuint(uint256)": "66335767"
				}
			},
			"storageLayout": {
				"storage": [
					{
						"astId": 3,
						"contract": "Variables.sol:Workingwithvariables",
						"label": "myUint",
						"offset": 0,
						"slot": "0",
						"type": "t_uint256"
					},
					{
						"astId": 15,
						"contract": "Variables.sol:Workingwithvariables",
						"label": "myBool",
						"offset": 0,
						"slot": "1",
						"type": "t_bool"
					},
					{
						"astId": 27,
						"contract": "Variables.sol:Workingwithvariables",
						"label": "myUint8",
						"offset": 1,
						"slot": "1",
						"type": "t_uint8"
					}
				],
				"types": {
					"t_bool": {
						"encoding": "inplace",
						"label": "bool",
						"numberOfBytes": "1"
					},
					"t_uint256": {
						"encoding": "inplace",
						"label": "uint256",
						"numberOfBytes": "32"
					},
					"t_uint8": {
						"encoding": "inplace",
						"label": "uint8",
						"numberOfBytes": "1"
					}
				}
			},
			"userdoc": {
				"kind": "user",
				"methods": {},
				"version": 1
			}
		}
	}
}