{
	"Variables.sol": {
		"Workingwithvariables": {
			"abi": [
				{
					"inputs": [],
					"name": "decrementUint",
					"outputs": [],
					"stateMutability": "nonpayable",
					"type": "function"
				},
				{
					"inputs": [],
					"name": "getBalance",
					"outputs": [
						{
							"internalType": "uint256",
							"name": "",
							"type": "uint256"
						}
					],
					"stateMutability": "view",
					"type": "function"
				},
				{
					"inputs": [],
					"name": "incrementUint",
					"outputs": [],
					"stateMutability": "nonpayable",
					"type": "function"
				},
				{
					"inputs": [],
					"name": "myAdress",
					"outputs": [
						{
							"internalType": "address",
							"name": "",
							"type": "address"
						}
					],
					"stateMutability": "view",
					"type": "function"
				},
				{
					"inputs": [],
					"name": "myBool",
					"outputs": [
						{
							"internalType": "bool",
							"name": "",
							"type": "bool"
						}
					],
					"stateMutability": "view",
					"type": "function"
				},
				{
					"inputs": [],
					"name": "myUint",
					"outputs": [
						{
							"internalType": "uint256",
							"name": "",
							"type": "uint256"
						}
					],
					"stateMutability": "view",
					"type": "function"
				},
				{
					"inputs": [],
					"name": "myUint8",
					"outputs": [
						{
							"internalType": "uint8",
							"name": "",
							"type": "uint8"
						}
					],
					"stateMutability": "view",
					"type": "function"
				},
				{
					"inputs": [],
					"name": "mystring",
					"outputs": [
						{
							"internalType": "string",
							"name": "",
							"type": "string"
						}
					],
					"stateMutability": "view",
					"type": "function"
				},
				{
					"inputs": [
						{
							"internalType": "address",
							"name": "_adress",
							"type": "address"
						}
					],
					"name": "setAdress",
					"outputs": [],
					"stateMutability": "nonpayable",
					"type": "function"
				},
				{
					"inputs": [
						{
							"internalType": "bool",
							"name": "_myBool",
							"type": "bool"
						}
					],
					"name": "setMyBool",
					"outputs": [],
					"stateMutability": "nonpayable",
					"type": "function"
				},
				{
					"inputs": [
						{
							"internalType": "string",
							"name": "_myString",
							"type": "string"
						}
					],
					"name": "setMystring",
					"outputs": [],
					"stateMutability": "nonpayable",
					"type": "function"
				},
				{
					"inputs": [
						{
							"internalType": "uint256",
							"name": "_myUint",
							"type": "uint256"
						}
					],
					"name": "setMyuint",
					"outputs": [],
					"stateMutability": "nonpayable",
					"type": "function"
				}
			],
			"devdoc": {
				"kind": "dev",
				"methods": {},
				"version": 1
			},
			"evm": {
				"assembly": "    /* \"Variables.sol\":739:777  string public mystring = 'Hello world' */\n  0xc0\n    /* \"Variables.sol\":27:939  contract Workingwithvariables {\r... */\n  0x40\n    /* \"Variables.sol\":739:777  string public mystring = 'Hello world' */\n  mstore\n  0x0b\n    /* \"Variables.sol\":27:939  contract Workingwithvariables {\r... */\n  0x80\n    /* \"Variables.sol\":739:777  string public mystring = 'Hello world' */\n  dup2\n  swap1\n  mstore\n  0x48656c6c6f20776f726c64000000000000000000000000000000000000000000\n  0xa0\n  swap1\n  dup2\n  mstore\n  tag_1\n  swap2\n  0x02\n  swap2\n  swap1\n  tag_2\n  jump\t// in\ntag_1:\n  pop\n    /* \"Variables.sol\":27:939  contract Workingwithvariables {\r... */\n  callvalue\n  dup1\n  iszero\n  tag_3\n  jumpi\n  0x00\n  dup1\n  revert\ntag_3:\n  pop\n  jump(tag_16)\ntag_2:\n  dup3\n  dup1\n  sload\n  tag_5\n  swap1\n  tag_6\n  jump\t// in\ntag_5:\n  swap1\n  0x00\n  mstore\n  keccak256(0x00, 0x20)\n  swap1\n  0x1f\n  add\n  0x20\n  swap1\n  div\n  dup2\n  add\n  swap3\n  dup3\n  tag_8\n  jumpi\n  0x00\n  dup6\n  sstore\n  jump(tag_11)\ntag_8:\n  dup3\n  0x1f\n  lt\n  tag_9\n  jumpi\n  dup1\n  mload\n  not(0xff)\n  and\n  dup4\n  dup1\n  add\n  or\n  dup6\n  sstore\n  jump(tag_11)\ntag_9:\n  dup3\n  dup1\n  add\n  0x01\n  add\n  dup6\n  sstore\n  dup3\n  iszero\n  tag_11\n  jumpi\n  swap2\n  dup3\n  add\ntag_10:\n  dup3\n  dup2\n  gt\n  iszero\n  tag_11\n  jumpi\n  dup3\n  mload\n  dup3\n  sstore\n  swap2\n  0x20\n  add\n  swap2\n  swap1\n  0x01\n  add\n  swap1\n  jump(tag_10)\ntag_11:\n  pop\n  tag_12\n  swap3\n  swap2\n  pop\n  tag_13\n  jump\t// in\ntag_12:\n  pop\n  swap1\n  jump\t// out\ntag_13:\ntag_14:\n  dup1\n  dup3\n  gt\n  iszero\n  tag_12\n  jumpi\n  0x00\n  dup2\n  sstore\n  0x01\n  add\n  jump(tag_14)\n    /* \"#utility.yul\":14:451   */\ntag_6:\n    /* \"#utility.yul\":99:100   */\n  0x02\n    /* \"#utility.yul\":89:101   */\n  dup2\n  div\n    /* \"#utility.yul\":146:147   */\n  0x01\n    /* \"#utility.yul\":136:148   */\n  dup3\n  and\n  dup1\n    /* \"#utility.yul\":157:218   */\n  tag_18\n  jumpi\n    /* \"#utility.yul\":211:215   */\n  0x7f\n    /* \"#utility.yul\":203:209   */\n  dup3\n    /* \"#utility.yul\":199:216   */\n  and\n    /* \"#utility.yul\":189:216   */\n  swap2\n  pop\n    /* \"#utility.yul\":157:218   */\ntag_18:\n    /* \"#utility.yul\":264:266   */\n  0x20\n    /* \"#utility.yul\":256:262   */\n  dup3\n    /* \"#utility.yul\":253:267   */\n  lt\n    /* \"#utility.yul\":233:251   */\n  dup2\n    /* \"#utility.yul\":230:268   */\n  eq\n    /* \"#utility.yul\":227:445   */\n  iszero\n  tag_19\n  jumpi\n    /* \"#utility.yul\":301:378   */\n  0x4e487b7100000000000000000000000000000000000000000000000000000000\n    /* \"#utility.yul\":298:299   */\n  0x00\n    /* \"#utility.yul\":291:379   */\n  mstore\n    /* \"#utility.yul\":402:406   */\n  0x22\n    /* \"#utility.yul\":399:400   */\n  0x04\n    /* \"#utility.yul\":392:407   */\n  mstore\n    /* \"#utility.yul\":430:434   */\n  0x24\n    /* \"#utility.yul\":427:428   */\n  0x00\n    /* \"#utility.yul\":420:435   */\n  revert\n    /* \"#utility.yul\":227:445   */\ntag_19:\n  pop\n    /* \"#utility.yul\":14:451   */\n  swap2\n  swap1\n  pop\n  jump\t// out\ntag_16:\n    /* \"Variables.sol\":27:939  contract Workingwithvariables {\r... */\n  dataSize(sub_0)\n  dup1\n  dataOffset(sub_0)\n  0x00\n  codecopy\n  0x00\n  return\nstop\n\nsub_0: assembly {\n        /* \"Variables.sol\":27:939  contract Workingwithvariables {\r... */\n      mstore(0x40, 0x80)\n      callvalue\n      dup1\n      iszero\n      tag_1\n      jumpi\n      0x00\n      dup1\n      revert\n    tag_1:\n      pop\n      jumpi(tag_2, lt(calldatasize, 0x04))\n      calldataload(0x00)\n      0x0100000000000000000000000000000000000000000000000000000000\n      swap1\n      div\n      dup1\n      0x6deecdbe\n      gt\n      tag_15\n      jumpi\n      dup1\n      0x6deecdbe\n      eq\n      tag_9\n      jumpi\n      dup1\n      0x9ed46fee\n      eq\n      tag_10\n      jumpi\n      dup1\n      0xc261fa36\n      eq\n      tag_11\n      jumpi\n      dup1\n      0xda50eaee\n      eq\n      tag_12\n      jumpi\n      dup1\n      0xe2a4b2af\n      eq\n      tag_13\n      jumpi\n      dup1\n      0xeb1b30d9\n      eq\n      tag_14\n      jumpi\n      0x00\n      dup1\n      revert\n    tag_15:\n      dup1\n      0x06540f7e\n      eq\n      tag_3\n      jumpi\n      dup1\n      0x0e807d6e\n      eq\n      tag_4\n      jumpi\n      dup1\n      0x12065fe0\n      eq\n      tag_5\n      jumpi\n      dup1\n      0x14bf43bd\n      eq\n      tag_6\n      jumpi\n      dup1\n      0x66335767\n      eq\n      tag_7\n      jumpi\n      dup1\n      0x6ca14bfd\n      eq\n      tag_8\n      jumpi\n    tag_2:\n      0x00\n      dup1\n      revert\n        /* \"Variables.sol\":64:85  uint256 public myUint */\n    tag_3:\n      tag_16\n      sload(0x00)\n      dup2\n      jump\n    tag_16:\n      mload(0x40)\n        /* \"#utility.yul\":2889:2914   */\n      swap1\n      dup2\n      mstore\n        /* \"#utility.yul\":2877:2879   */\n      0x20\n        /* \"#utility.yul\":2862:2880   */\n      add\n        /* \"Variables.sol\":64:85  uint256 public myUint */\n    tag_18:\n      mload(0x40)\n      dup1\n      swap2\n      sub\n      swap1\n      return\n        /* \"Variables.sol\":549:629  function setAdress(address _adress) public {\r... */\n    tag_4:\n      tag_20\n      tag_21\n      calldatasize\n      0x04\n      tag_22\n      jump\t// in\n    tag_21:\n        /* \"Variables.sol\":603:611  myAdress */\n      0x01\n        /* \"Variables.sol\":603:621  myAdress = _adress */\n      dup1\n      sload\n      0xffffffffffffffffffffffffffffffffffffffff\n      swap1\n      swap3\n      and\n      0x010000\n      mul\n      not(0xffffffffffffffffffffffffffffffffffffffff0000)\n      swap1\n      swap3\n      and\n      swap2\n      swap1\n      swap2\n      or\n      swap1\n      sstore\n        /* \"Variables.sol\":549:629  function setAdress(address _adress) public {\r... */\n      jump\n    tag_20:\n      stop\n        /* \"Variables.sol\":637:727  function getBalance() public view returns(uint) {\r... */\n    tag_5:\n        /* \"Variables.sol\":703:711  myAdress */\n      sload(0x01)\n      0x010000\n      swap1\n      div\n      0xffffffffffffffffffffffffffffffffffffffff\n      and\n        /* \"Variables.sol\":703:719  myAdress.balance */\n      balance\n        /* \"Variables.sol\":637:727  function getBalance() public view returns(uint) {\r... */\n      jump(tag_16)\n        /* \"Variables.sol\":383:443  function incrementUint() public {\r... */\n    tag_6:\n      tag_20\n      tag_28\n      jump\t// in\n        /* \"Variables.sol\":159:234  function setMyuint(uint _myUint) public {\r... */\n    tag_7:\n      tag_20\n      tag_30\n      calldatasize\n      0x04\n      tag_31\n      jump\t// in\n    tag_30:\n        /* \"Variables.sol\":210:216  myUint */\n      0x00\n        /* \"Variables.sol\":210:226  myUint = _myUint */\n      sstore\n        /* \"Variables.sol\":159:234  function setMyuint(uint _myUint) public {\r... */\n      jump\n        /* \"Variables.sol\":517:540  address public myAdress */\n    tag_8:\n      sload(0x01)\n      tag_33\n      swap1\n      0x010000\n      swap1\n      div\n      0xffffffffffffffffffffffffffffffffffffffff\n      and\n      dup2\n      jump\n    tag_33:\n      mload(0x40)\n        /* \"#utility.yul\":1894:1936   */\n      0xffffffffffffffffffffffffffffffffffffffff\n        /* \"#utility.yul\":1882:1937   */\n      swap1\n      swap2\n      and\n        /* \"#utility.yul\":1864:1938   */\n      dup2\n      mstore\n        /* \"#utility.yul\":1852:1854   */\n      0x20\n        /* \"#utility.yul\":1837:1855   */\n      add\n        /* \"Variables.sol\":517:540  address public myAdress */\n      tag_18\n        /* \"#utility.yul\":1718:1944   */\n      jump\n        /* \"Variables.sol\":240:258  bool public myBool */\n    tag_9:\n      sload(0x01)\n      tag_37\n      swap1\n      0xff\n      and\n      dup2\n      jump\n    tag_37:\n      mload(0x40)\n        /* \"#utility.yul\":2114:2128   */\n      swap1\n      iszero\n        /* \"#utility.yul\":2107:2129   */\n      iszero\n        /* \"#utility.yul\":2089:2130   */\n      dup2\n      mstore\n        /* \"#utility.yul\":2077:2079   */\n      0x20\n        /* \"#utility.yul\":2062:2080   */\n      add\n        /* \"Variables.sol\":240:258  bool public myBool */\n      tag_18\n        /* \"#utility.yul\":1949:2136   */\n      jump\n        /* \"Variables.sol\":786:936  function setMystring(string memory _myString) public { //if we pass simply string it will not be able to guess the location of that variabke \r... */\n    tag_10:\n      tag_20\n      tag_42\n      calldatasize\n      0x04\n      tag_43\n      jump\t// in\n    tag_42:\n      pop\n      jump\n        /* \"Variables.sol\":739:777  string public mystring = 'Hello world' */\n    tag_11:\n      tag_45\n      tag_46\n      jump\t// in\n    tag_45:\n      mload(0x40)\n      tag_18\n      swap2\n      swap1\n      tag_48\n      jump\t// in\n        /* \"Variables.sol\":451:511  function decrementUint() public {\r... */\n    tag_12:\n      tag_20\n      tag_50\n      jump\t// in\n        /* \"Variables.sol\":354:374  uint8 public myUint8 */\n    tag_13:\n      sload(0x01)\n      tag_51\n      swap1\n      0x0100\n      swap1\n      div\n      0xff\n      and\n      dup2\n      jump\n    tag_51:\n      mload(0x40)\n        /* \"#utility.yul\":3097:3101   */\n      0xff\n        /* \"#utility.yul\":3085:3102   */\n      swap1\n      swap2\n      and\n        /* \"#utility.yul\":3067:3103   */\n      dup2\n      mstore\n        /* \"#utility.yul\":3055:3057   */\n      0x20\n        /* \"#utility.yul\":3040:3058   */\n      add\n        /* \"Variables.sol\":354:374  uint8 public myUint8 */\n      tag_18\n        /* \"#utility.yul\":2925:3109   */\n      jump\n        /* \"Variables.sol\":267:342  function setMyBool(bool _myBool) public {\r... */\n    tag_14:\n      tag_20\n      tag_56\n      calldatasize\n      0x04\n      tag_57\n      jump\t// in\n    tag_56:\n        /* \"Variables.sol\":318:324  myBool */\n      0x01\n        /* \"Variables.sol\":318:334  myBool = _myBool */\n      dup1\n      sload\n      not(0xff)\n      and\n      swap2\n      iszero\n      iszero\n      swap2\n      swap1\n      swap2\n      or\n      swap1\n      sstore\n        /* \"Variables.sol\":267:342  function setMyBool(bool _myBool) public {\r... */\n      jump\n        /* \"Variables.sol\":383:443  function incrementUint() public {\r... */\n    tag_28:\n        /* \"Variables.sol\":426:433  myUint8 */\n      0x01\n        /* \"Variables.sol\":426:435  myUint8++ */\n      dup1\n      sload\n      0x0100\n      swap1\n      div\n      0xff\n      and\n      swap1\n        /* \"Variables.sol\":426:433  myUint8 */\n      dup1\n        /* \"Variables.sol\":426:435  myUint8++ */\n      tag_62\n      dup4\n      tag_63\n      jump\t// in\n    tag_62:\n      swap2\n      swap1\n      0x0100\n      exp\n      dup2\n      sload\n      dup2\n      0xff\n      mul\n      not\n      and\n      swap1\n      dup4\n      0xff\n      and\n      mul\n      or\n      swap1\n      sstore\n      pop\n      pop\n        /* \"Variables.sol\":383:443  function incrementUint() public {\r... */\n      jump\t// out\n        /* \"Variables.sol\":739:777  string public mystring = 'Hello world' */\n    tag_46:\n      0x02\n      dup1\n      sload\n      tag_66\n      swap1\n      tag_67\n      jump\t// in\n    tag_66:\n      dup1\n      0x1f\n      add\n      0x20\n      dup1\n      swap2\n      div\n      mul\n      0x20\n      add\n      mload(0x40)\n      swap1\n      dup2\n      add\n      0x40\n      mstore\n      dup1\n      swap3\n      swap2\n      swap1\n      dup2\n      dup2\n      mstore\n      0x20\n      add\n      dup3\n      dup1\n      sload\n      tag_68\n      swap1\n      tag_67\n      jump\t// in\n    tag_68:\n      dup1\n      iszero\n      tag_69\n      jumpi\n      dup1\n      0x1f\n      lt\n      tag_70\n      jumpi\n      0x0100\n      dup1\n      dup4\n      sload\n      div\n      mul\n      dup4\n      mstore\n      swap2\n      0x20\n      add\n      swap2\n      jump(tag_69)\n    tag_70:\n      dup3\n      add\n      swap2\n      swap1\n      0x00\n      mstore\n      keccak256(0x00, 0x20)\n      swap1\n    tag_71:\n      dup2\n      sload\n      dup2\n      mstore\n      swap1\n      0x01\n      add\n      swap1\n      0x20\n      add\n      dup1\n      dup4\n      gt\n      tag_71\n      jumpi\n      dup3\n      swap1\n      sub\n      0x1f\n      and\n      dup3\n      add\n      swap2\n    tag_69:\n      pop\n      pop\n      pop\n      pop\n      pop\n      dup2\n      jump\t// out\n        /* \"Variables.sol\":451:511  function decrementUint() public {\r... */\n    tag_50:\n        /* \"Variables.sol\":494:501  myUint8 */\n      0x01\n        /* \"Variables.sol\":494:503  myUint8-- */\n      dup1\n      sload\n      0x0100\n      swap1\n      div\n      0xff\n      and\n      swap1\n        /* \"Variables.sol\":494:501  myUint8 */\n      dup1\n        /* \"Variables.sol\":494:503  myUint8-- */\n      tag_62\n      dup4\n      tag_74\n      jump\t// in\n        /* \"#utility.yul\":14:323   */\n    tag_22:\n        /* \"#utility.yul\":73:79   */\n      0x00\n        /* \"#utility.yul\":126:128   */\n      0x20\n        /* \"#utility.yul\":114:123   */\n      dup3\n        /* \"#utility.yul\":105:112   */\n      dup5\n        /* \"#utility.yul\":101:124   */\n      sub\n        /* \"#utility.yul\":97:129   */\n      slt\n        /* \"#utility.yul\":94:146   */\n      iszero\n      tag_78\n      jumpi\n        /* \"#utility.yul\":142:143   */\n      0x00\n        /* \"#utility.yul\":139:140   */\n      dup1\n        /* \"#utility.yul\":132:144   */\n      revert\n        /* \"#utility.yul\":94:146   */\n    tag_78:\n        /* \"#utility.yul\":181:190   */\n      dup2\n        /* \"#utility.yul\":168:191   */\n      calldataload\n        /* \"#utility.yul\":231:273   */\n      0xffffffffffffffffffffffffffffffffffffffff\n        /* \"#utility.yul\":224:229   */\n      dup2\n        /* \"#utility.yul\":220:274   */\n      and\n        /* \"#utility.yul\":213:218   */\n      dup2\n        /* \"#utility.yul\":210:275   */\n      eq\n        /* \"#utility.yul\":200:293   */\n      tag_79\n      jumpi\n        /* \"#utility.yul\":289:290   */\n      0x00\n        /* \"#utility.yul\":286:287   */\n      dup1\n        /* \"#utility.yul\":279:291   */\n      revert\n        /* \"#utility.yul\":200:293   */\n    tag_79:\n        /* \"#utility.yul\":312:317   */\n      swap4\n        /* \"#utility.yul\":14:323   */\n      swap3\n      pop\n      pop\n      pop\n      jump\t// out\n        /* \"#utility.yul\":328:601   */\n    tag_57:\n        /* \"#utility.yul\":384:390   */\n      0x00\n        /* \"#utility.yul\":437:439   */\n      0x20\n        /* \"#utility.yul\":425:434   */\n      dup3\n        /* \"#utility.yul\":416:423   */\n      dup5\n        /* \"#utility.yul\":412:435   */\n      sub\n        /* \"#utility.yul\":408:440   */\n      slt\n        /* \"#utility.yul\":405:457   */\n      iszero\n      tag_81\n      jumpi\n        /* \"#utility.yul\":453:454   */\n      0x00\n        /* \"#utility.yul\":450:451   */\n      dup1\n        /* \"#utility.yul\":443:455   */\n      revert\n        /* \"#utility.yul\":405:457   */\n    tag_81:\n        /* \"#utility.yul\":492:501   */\n      dup2\n        /* \"#utility.yul\":479:502   */\n      calldataload\n        /* \"#utility.yul\":545:550   */\n      dup1\n        /* \"#utility.yul\":538:551   */\n      iszero\n        /* \"#utility.yul\":531:552   */\n      iszero\n        /* \"#utility.yul\":524:529   */\n      dup2\n        /* \"#utility.yul\":521:553   */\n      eq\n        /* \"#utility.yul\":511:571   */\n      tag_79\n      jumpi\n        /* \"#utility.yul\":567:568   */\n      0x00\n        /* \"#utility.yul\":564:565   */\n      dup1\n        /* \"#utility.yul\":557:569   */\n      revert\n        /* \"#utility.yul\":606:1528   */\n    tag_43:\n        /* \"#utility.yul\":675:681   */\n      0x00\n        /* \"#utility.yul\":728:730   */\n      0x20\n        /* \"#utility.yul\":716:725   */\n      dup3\n        /* \"#utility.yul\":707:714   */\n      dup5\n        /* \"#utility.yul\":703:726   */\n      sub\n        /* \"#utility.yul\":699:731   */\n      slt\n        /* \"#utility.yul\":696:748   */\n      iszero\n      tag_84\n      jumpi\n        /* \"#utility.yul\":744:745   */\n      0x00\n        /* \"#utility.yul\":741:742   */\n      dup1\n        /* \"#utility.yul\":734:746   */\n      revert\n        /* \"#utility.yul\":696:748   */\n    tag_84:\n        /* \"#utility.yul\":784:793   */\n      dup2\n        /* \"#utility.yul\":771:794   */\n      calldataload\n        /* \"#utility.yul\":813:831   */\n      0xffffffffffffffff\n        /* \"#utility.yul\":854:856   */\n      dup1\n        /* \"#utility.yul\":846:852   */\n      dup3\n        /* \"#utility.yul\":843:857   */\n      gt\n        /* \"#utility.yul\":840:874   */\n      iszero\n      tag_85\n      jumpi\n        /* \"#utility.yul\":870:871   */\n      0x00\n        /* \"#utility.yul\":867:868   */\n      dup1\n        /* \"#utility.yul\":860:872   */\n      revert\n        /* \"#utility.yul\":840:874   */\n    tag_85:\n        /* \"#utility.yul\":908:914   */\n      dup2\n        /* \"#utility.yul\":897:906   */\n      dup5\n        /* \"#utility.yul\":893:915   */\n      add\n        /* \"#utility.yul\":883:915   */\n      swap2\n      pop\n        /* \"#utility.yul\":953:960   */\n      dup5\n        /* \"#utility.yul\":946:950   */\n      0x1f\n        /* \"#utility.yul\":942:944   */\n      dup4\n        /* \"#utility.yul\":938:951   */\n      add\n        /* \"#utility.yul\":934:961   */\n      slt\n        /* \"#utility.yul\":924:979   */\n      tag_86\n      jumpi\n        /* \"#utility.yul\":975:976   */\n      0x00\n        /* \"#utility.yul\":972:973   */\n      dup1\n        /* \"#utility.yul\":965:977   */\n      revert\n        /* \"#utility.yul\":924:979   */\n    tag_86:\n        /* \"#utility.yul\":1011:1013   */\n      dup2\n        /* \"#utility.yul\":998:1014   */\n      calldataload\n        /* \"#utility.yul\":1033:1035   */\n      dup2\n        /* \"#utility.yul\":1029:1031   */\n      dup2\n        /* \"#utility.yul\":1026:1036   */\n      gt\n        /* \"#utility.yul\":1023:1059   */\n      iszero\n      tag_88\n      jumpi\n        /* \"#utility.yul\":1039:1057   */\n      tag_88\n      tag_89\n      jump\t// in\n    tag_88:\n        /* \"#utility.yul\":1114:1116   */\n      0x40\n        /* \"#utility.yul\":1108:1117   */\n      mload\n        /* \"#utility.yul\":1082:1084   */\n      0x1f\n        /* \"#utility.yul\":1168:1181   */\n      dup3\n      add\n      not(0x1f)\n        /* \"#utility.yul\":1164:1186   */\n      swap1\n      dup2\n      and\n        /* \"#utility.yul\":1188:1190   */\n      0x3f\n        /* \"#utility.yul\":1160:1191   */\n      add\n        /* \"#utility.yul\":1156:1196   */\n      and\n        /* \"#utility.yul\":1144:1197   */\n      dup2\n      add\n      swap1\n        /* \"#utility.yul\":1212:1230   */\n      dup4\n      dup3\n      gt\n        /* \"#utility.yul\":1232:1254   */\n      dup2\n      dup4\n      lt\n        /* \"#utility.yul\":1209:1255   */\n      or\n        /* \"#utility.yul\":1206:1278   */\n      iszero\n      tag_91\n      jumpi\n        /* \"#utility.yul\":1258:1276   */\n      tag_91\n      tag_89\n      jump\t// in\n    tag_91:\n        /* \"#utility.yul\":1298:1308   */\n      dup2\n        /* \"#utility.yul\":1294:1296   */\n      0x40\n        /* \"#utility.yul\":1287:1309   */\n      mstore\n        /* \"#utility.yul\":1333:1335   */\n      dup3\n        /* \"#utility.yul\":1325:1331   */\n      dup2\n        /* \"#utility.yul\":1318:1336   */\n      mstore\n        /* \"#utility.yul\":1373:1380   */\n      dup8\n        /* \"#utility.yul\":1368:1370   */\n      0x20\n        /* \"#utility.yul\":1363:1365   */\n      dup5\n        /* \"#utility.yul\":1359:1361   */\n      dup8\n        /* \"#utility.yul\":1355:1366   */\n      add\n        /* \"#utility.yul\":1351:1371   */\n      add\n        /* \"#utility.yul\":1348:1381   */\n      gt\n        /* \"#utility.yul\":1345:1398   */\n      iszero\n      tag_92\n      jumpi\n        /* \"#utility.yul\":1394:1395   */\n      0x00\n        /* \"#utility.yul\":1391:1392   */\n      dup1\n        /* \"#utility.yul\":1384:1396   */\n      revert\n        /* \"#utility.yul\":1345:1398   */\n    tag_92:\n        /* \"#utility.yul\":1450:1452   */\n      dup3\n        /* \"#utility.yul\":1445:1447   */\n      0x20\n        /* \"#utility.yul\":1441:1443   */\n      dup7\n        /* \"#utility.yul\":1437:1448   */\n      add\n        /* \"#utility.yul\":1432:1434   */\n      0x20\n        /* \"#utility.yul\":1424:1430   */\n      dup4\n        /* \"#utility.yul\":1420:1435   */\n      add\n        /* \"#utility.yul\":1407:1453   */\n      calldatacopy\n        /* \"#utility.yul\":1495:1496   */\n      0x00\n        /* \"#utility.yul\":1473:1488   */\n      swap3\n      dup2\n      add\n        /* \"#utility.yul\":1490:1492   */\n      0x20\n        /* \"#utility.yul\":1469:1493   */\n      add\n        /* \"#utility.yul\":1462:1497   */\n      swap3\n      swap1\n      swap3\n      mstore\n      pop\n        /* \"#utility.yul\":1477:1483   */\n      swap6\n        /* \"#utility.yul\":606:1528   */\n      swap5\n      pop\n      pop\n      pop\n      pop\n      pop\n      jump\t// out\n        /* \"#utility.yul\":1533:1713   */\n    tag_31:\n        /* \"#utility.yul\":1592:1598   */\n      0x00\n        /* \"#utility.yul\":1645:1647   */\n      0x20\n        /* \"#utility.yul\":1633:1642   */\n      dup3\n        /* \"#utility.yul\":1624:1631   */\n      dup5\n        /* \"#utility.yul\":1620:1643   */\n      sub\n        /* \"#utility.yul\":1616:1648   */\n      slt\n        /* \"#utility.yul\":1613:1665   */\n      iszero\n      tag_94\n      jumpi\n        /* \"#utility.yul\":1661:1662   */\n      0x00\n        /* \"#utility.yul\":1658:1659   */\n      dup1\n        /* \"#utility.yul\":1651:1663   */\n      revert\n        /* \"#utility.yul\":1613:1665   */\n    tag_94:\n      pop\n        /* \"#utility.yul\":1684:1707   */\n      calldataload\n      swap2\n        /* \"#utility.yul\":1533:1713   */\n      swap1\n      pop\n      jump\t// out\n        /* \"#utility.yul\":2141:2738   */\n    tag_48:\n        /* \"#utility.yul\":2253:2257   */\n      0x00\n        /* \"#utility.yul\":2282:2284   */\n      0x20\n        /* \"#utility.yul\":2311:2313   */\n      dup1\n        /* \"#utility.yul\":2300:2309   */\n      dup4\n        /* \"#utility.yul\":2293:2314   */\n      mstore\n        /* \"#utility.yul\":2343:2349   */\n      dup4\n        /* \"#utility.yul\":2337:2350   */\n      mload\n        /* \"#utility.yul\":2386:2392   */\n      dup1\n        /* \"#utility.yul\":2381:2383   */\n      dup3\n        /* \"#utility.yul\":2370:2379   */\n      dup6\n        /* \"#utility.yul\":2366:2384   */\n      add\n        /* \"#utility.yul\":2359:2393   */\n      mstore\n        /* \"#utility.yul\":2411:2412   */\n      0x00\n        /* \"#utility.yul\":2421:2561   */\n    tag_98:\n        /* \"#utility.yul\":2435:2441   */\n      dup2\n        /* \"#utility.yul\":2432:2433   */\n      dup2\n        /* \"#utility.yul\":2429:2442   */\n      lt\n        /* \"#utility.yul\":2421:2561   */\n      iszero\n      tag_100\n      jumpi\n        /* \"#utility.yul\":2530:2544   */\n      dup6\n      dup2\n      add\n        /* \"#utility.yul\":2526:2549   */\n      dup4\n      add\n        /* \"#utility.yul\":2520:2550   */\n      mload\n        /* \"#utility.yul\":2496:2513   */\n      dup6\n      dup3\n      add\n        /* \"#utility.yul\":2515:2517   */\n      0x40\n        /* \"#utility.yul\":2492:2518   */\n      add\n        /* \"#utility.yul\":2485:2551   */\n      mstore\n        /* \"#utility.yul\":2450:2460   */\n      dup3\n      add\n        /* \"#utility.yul\":2421:2561   */\n      jump(tag_98)\n    tag_100:\n        /* \"#utility.yul\":2579:2585   */\n      dup2\n        /* \"#utility.yul\":2576:2577   */\n      dup2\n        /* \"#utility.yul\":2573:2586   */\n      gt\n        /* \"#utility.yul\":2570:2661   */\n      iszero\n      tag_101\n      jumpi\n        /* \"#utility.yul\":2649:2650   */\n      0x00\n        /* \"#utility.yul\":2644:2646   */\n      0x40\n        /* \"#utility.yul\":2635:2641   */\n      dup4\n        /* \"#utility.yul\":2624:2633   */\n      dup8\n        /* \"#utility.yul\":2620:2642   */\n      add\n        /* \"#utility.yul\":2616:2647   */\n      add\n        /* \"#utility.yul\":2609:2651   */\n      mstore\n        /* \"#utility.yul\":2570:2661   */\n    tag_101:\n      pop\n        /* \"#utility.yul\":2722:2724   */\n      0x1f\n        /* \"#utility.yul\":2701:2716   */\n      add\n      not(0x1f)\n        /* \"#utility.yul\":2697:2726   */\n      and\n        /* \"#utility.yul\":2682:2727   */\n      swap3\n      swap1\n      swap3\n      add\n        /* \"#utility.yul\":2729:2731   */\n      0x40\n        /* \"#utility.yul\":2678:2732   */\n      add\n      swap4\n        /* \"#utility.yul\":2141:2738   */\n      swap3\n      pop\n      pop\n      pop\n      jump\t// out\n        /* \"#utility.yul\":3114:3292   */\n    tag_74:\n        /* \"#utility.yul\":3151:3154   */\n      0x00\n        /* \"#utility.yul\":3195:3199   */\n      0xff\n        /* \"#utility.yul\":3188:3193   */\n      dup3\n        /* \"#utility.yul\":3184:3200   */\n      and\n        /* \"#utility.yul\":3219:3226   */\n      dup1\n        /* \"#utility.yul\":3209:3250   */\n      tag_106\n      jumpi\n        /* \"#utility.yul\":3230:3248   */\n      tag_106\n      tag_107\n      jump\t// in\n    tag_106:\n      not(0x00)\n        /* \"#utility.yul\":3266:3286   */\n      add\n      swap3\n        /* \"#utility.yul\":3114:3292   */\n      swap2\n      pop\n      pop\n      jump\t// out\n        /* \"#utility.yul\":3297:3734   */\n    tag_67:\n        /* \"#utility.yul\":3382:3383   */\n      0x02\n        /* \"#utility.yul\":3372:3384   */\n      dup2\n      div\n        /* \"#utility.yul\":3429:3430   */\n      0x01\n        /* \"#utility.yul\":3419:3431   */\n      dup3\n      and\n      dup1\n        /* \"#utility.yul\":3440:3501   */\n      tag_109\n      jumpi\n        /* \"#utility.yul\":3494:3498   */\n      0x7f\n        /* \"#utility.yul\":3486:3492   */\n      dup3\n        /* \"#utility.yul\":3482:3499   */\n      and\n        /* \"#utility.yul\":3472:3499   */\n      swap2\n      pop\n        /* \"#utility.yul\":3440:3501   */\n    tag_109:\n        /* \"#utility.yul\":3547:3549   */\n      0x20\n        /* \"#utility.yul\":3539:3545   */\n      dup3\n        /* \"#utility.yul\":3536:3550   */\n      lt\n        /* \"#utility.yul\":3516:3534   */\n      dup2\n        /* \"#utility.yul\":3513:3551   */\n      eq\n        /* \"#utility.yul\":3510:3728   */\n      iszero\n      tag_110\n      jumpi\n        /* \"#utility.yul\":3584:3661   */\n      0x4e487b7100000000000000000000000000000000000000000000000000000000\n        /* \"#utility.yul\":3581:3582   */\n      0x00\n        /* \"#utility.yul\":3574:3662   */\n      mstore\n        /* \"#utility.yul\":3685:3689   */\n      0x22\n        /* \"#utility.yul\":3682:3683   */\n      0x04\n        /* \"#utility.yul\":3675:3690   */\n      mstore\n        /* \"#utility.yul\":3713:3717   */\n      0x24\n        /* \"#utility.yul\":3710:3711   */\n      0x00\n        /* \"#utility.yul\":3703:3718   */\n      revert\n        /* \"#utility.yul\":3510:3728   */\n    tag_110:\n      pop\n        /* \"#utility.yul\":3297:3734   */\n      swap2\n      swap1\n      pop\n      jump\t// out\n        /* \"#utility.yul\":3739:3914   */\n    tag_63:\n        /* \"#utility.yul\":3776:3779   */\n      0x00\n        /* \"#utility.yul\":3820:3824   */\n      0xff\n        /* \"#utility.yul\":3813:3818   */\n      dup3\n        /* \"#utility.yul\":3809:3825   */\n      and\n        /* \"#utility.yul\":3849:3853   */\n      0xff\n        /* \"#utility.yul\":3840:3847   */\n      dup2\n        /* \"#utility.yul\":3837:3854   */\n      eq\n        /* \"#utility.yul\":3834:3877   */\n      iszero\n      tag_113\n      jumpi\n        /* \"#utility.yul\":3857:3875   */\n      tag_113\n      tag_107\n      jump\t// in\n    tag_113:\n        /* \"#utility.yul\":3906:3907   */\n      0x01\n        /* \"#utility.yul\":3893:3908   */\n      add\n      swap3\n        /* \"#utility.yul\":3739:3914   */\n      swap2\n      pop\n      pop\n      jump\t// out\n        /* \"#utility.yul\":3919:4103   */\n    tag_107:\n        /* \"#utility.yul\":3971:4048   */\n      0x4e487b7100000000000000000000000000000000000000000000000000000000\n        /* \"#utility.yul\":3968:3969   */\n      0x00\n        /* \"#utility.yul\":3961:4049   */\n      mstore\n        /* \"#utility.yul\":4068:4072   */\n      0x11\n        /* \"#utility.yul\":4065:4066   */\n      0x04\n        /* \"#utility.yul\":4058:4073   */\n      mstore\n        /* \"#utility.yul\":4092:4096   */\n      0x24\n        /* \"#utility.yul\":4089:4090   */\n      0x00\n        /* \"#utility.yul\":4082:4097   */\n      revert\n        /* \"#utility.yul\":4108:4292   */\n    tag_89:\n        /* \"#utility.yul\":4160:4237   */\n      0x4e487b7100000000000000000000000000000000000000000000000000000000\n        /* \"#utility.yul\":4157:4158   */\n      0x00\n        /* \"#utility.yul\":4150:4238   */\n      mstore\n        /* \"#utility.yul\":4257:4261   */\n      0x41\n        /* \"#utility.yul\":4254:4255   */\n      0x04\n        /* \"#utility.yul\":4247:4262   */\n      mstore\n        /* \"#utility.yul\":4281:4285   */\n      0x24\n        /* \"#utility.yul\":4278:4279   */\n      0x00\n        /* \"#utility.yul\":4271:4286   */\n      revert\n\n    auxdata: 0xa2646970667358221220bf44d459dc274d46e051e742d6fc26a2c158f1490e1ed7b1400e59fef064e13a64736f6c63430008070033\n}\n",
				"bytecode": {
					"linkReferences": {},
					"object": "60c0604052600b60808190527f48656c6c6f20776f726c6400000000000000000000000000000000000000000060a090815261003e9160029190610051565b5034801561004b57600080fd5b5061013e565b82805461005d906100ea565b90600052602060002090601f01602090048101928261007f57600085556100c5565b82601f1061009857805160ff19168380011785556100c5565b828001600101855582156100c5579182015b828111156100c55782518255916020019190600101906100aa565b506100d19291506100d5565b5090565b5b808211156100d157600081556001016100d6565b6002810460018216806100fe57607f821691505b60208210811415610138577f4e487b7100000000000000000000000000000000000000000000000000000000600052602260045260246000fd5b50919050565b6105db8061014d6000396000f3fe608060405234801561001057600080fd5b50600436106100d1576000357c0100000000000000000000000000000000000000000000000000000000900480636deecdbe1161008e5780636deecdbe146101d15780639ed46fee146101ee578063c261fa36146101ff578063da50eaee14610214578063e2a4b2af1461021c578063eb1b30d91461024057600080fd5b806306540f7e146100d65780630e807d6e146100f257806312065fe01461014657806314bf43bd1461016b57806366335767146101735780636ca14bfd14610186575b600080fd5b6100df60005481565b6040519081526020015b60405180910390f35b610144610100366004610338565b6001805473ffffffffffffffffffffffffffffffffffffffff909216620100000275ffffffffffffffffffffffffffffffffffffffff000019909216919091179055565b005b60015462010000900473ffffffffffffffffffffffffffffffffffffffff16316100df565b610144610261565b610144610181366004610448565b600055565b6001546101ac9062010000900473ffffffffffffffffffffffffffffffffffffffff1681565b60405173ffffffffffffffffffffffffffffffffffffffff90911681526020016100e9565b6001546101de9060ff1681565b60405190151581526020016100e9565b6101446101fc366004610397565b50565b610207610293565b6040516100e99190610461565b610144610321565b60015461022e90610100900460ff1681565b60405160ff90911681526020016100e9565b61014461024e366004610375565b6001805460ff1916911515919091179055565b60018054610100900460ff16908061027883610527565b91906101000a81548160ff021916908360ff16021790555050565b600280546102a0906104d3565b80601f01602080910402602001604051908101604052809291908181526020018280546102cc906104d3565b80156103195780601f106102ee57610100808354040283529160200191610319565b820191906000526020600020905b8154815290600101906020018083116102fc57829003601f168201915b505050505081565b60018054610100900460ff169080610278836104b6565b60006020828403121561034a57600080fd5b813573ffffffffffffffffffffffffffffffffffffffff8116811461036e57600080fd5b9392505050565b60006020828403121561038757600080fd5b8135801515811461036e57600080fd5b6000602082840312156103a957600080fd5b813567ffffffffffffffff808211156103c157600080fd5b818401915084601f8301126103d557600080fd5b8135818111156103e7576103e7610576565b604051601f8201601f19908116603f0116810190838211818310171561040f5761040f610576565b8160405282815287602084870101111561042857600080fd5b826020860160208301376000928101602001929092525095945050505050565b60006020828403121561045a57600080fd5b5035919050565b600060208083528351808285015260005b8181101561048e57858101830151858201604001528201610472565b818111156104a0576000604083870101525b50601f01601f1916929092016040019392505050565b600060ff8216806104c9576104c9610547565b6000190192915050565b6002810460018216806104e757607f821691505b60208210811415610521577f4e487b7100000000000000000000000000000000000000000000000000000000600052602260045260246000fd5b50919050565b600060ff821660ff81141561053e5761053e610547565b60010192915050565b7f4e487b7100000000000000000000000000000000000000000000000000000000600052601160045260246000fd5b7f4e487b7100000000000000000000000000000000000000000000000000000000600052604160045260246000fdfea2646970667358221220bf44d459dc274d46e051e742d6fc26a2c158f1490e1ed7b1400e59fef064e13a64736f6c63430008070033",
					"opcodes": "PUSH1 0xC0 PUSH1 0x40 MSTORE PUSH1 0xB PUSH1 0x80 DUP2 SWAP1 MSTORE PUSH32 0x48656C6C6F20776F726C64000000000000000000000000000000000000000000 PUSH1 0xA0 SWAP1 DUP2 MSTORE PUSH2 0x3E SWAP2 PUSH1 0x2 SWAP2 SWAP1 PUSH2 0x51 JUMP JUMPDEST POP CALLVALUE DUP1 ISZERO PUSH2 0x4B JUMPI PUSH1 0x0 DUP1 REVERT JUMPDEST POP PUSH2 0x13E JUMP JUMPDEST DUP3 DUP1 SLOAD PUSH2 0x5D SWAP1 PUSH2 0xEA JUMP JUMPDEST SWAP1 PUSH1 0x0 MSTORE PUSH1 0x20 PUSH1 0x0 KECCAK256 SWAP1 PUSH1 0x1F ADD PUSH1 0x20 SWAP1 DIV DUP2 ADD SWAP3 DUP3 PUSH2 0x7F JUMPI PUSH1 0x0 DUP6 SSTORE PUSH2 0xC5 JUMP JUMPDEST DUP3 PUSH1 0x1F LT PUSH2 0x98 JUMPI DUP1 MLOAD PUSH1 0xFF NOT AND DUP4 DUP1 ADD OR DUP6 SSTORE PUSH2 0xC5 JUMP JUMPDEST DUP3 DUP1 ADD PUSH1 0x1 ADD DUP6 SSTORE DUP3 ISZERO PUSH2 0xC5 JUMPI SWAP2 DUP3 ADD JUMPDEST DUP3 DUP2 GT ISZERO PUSH2 0xC5 JUMPI DUP3 MLOAD DUP3 SSTORE SWAP2 PUSH1 0x20 ADD SWAP2 SWAP1 PUSH1 0x1 ADD SWAP1 PUSH2 0xAA JUMP JUMPDEST POP PUSH2 0xD1 SWAP3 SWAP2 POP PUSH2 0xD5 JUMP JUMPDEST POP SWAP1 JUMP JUMPDEST JUMPDEST DUP1 DUP3 GT ISZERO PUSH2 0xD1 JUMPI PUSH1 0x0 DUP2 SSTORE PUSH1 0x1 ADD PUSH2 0xD6 JUMP JUMPDEST PUSH1 0x2 DUP2 DIV PUSH1 0x1 DUP3 AND DUP1 PUSH2 0xFE JUMPI PUSH1 0x7F DUP3 AND SWAP2 POP JUMPDEST PUSH1 0x20 DUP3 LT DUP2 EQ ISZERO PUSH2 0x138 JUMPI PUSH32 0x4E487B7100000000000000000000000000000000000000000000000000000000 PUSH1 0x0 MSTORE PUSH1 0x22 PUSH1 0x4 MSTORE PUSH1 0x24 PUSH1 0x0 REVERT JUMPDEST POP SWAP2 SWAP1 POP JUMP JUMPDEST PUSH2 0x5DB DUP1 PUSH2 0x14D PUSH1 0x0 CODECOPY PUSH1 0x0 RETURN INVALID PUSH1 0x80 PUSH1 0x40 MSTORE CALLVALUE DUP1 ISZERO PUSH2 0x10 JUMPI PUSH1 0x0 DUP1 REVERT JUMPDEST POP PUSH1 0x4 CALLDATASIZE LT PUSH2 0xD1 JUMPI PUSH1 0x0 CALLDATALOAD PUSH29 0x100000000000000000000000000000000000000000000000000000000 SWAP1 DIV DUP1 PUSH4 0x6DEECDBE GT PUSH2 0x8E JUMPI DUP1 PUSH4 0x6DEECDBE EQ PUSH2 0x1D1 JUMPI DUP1 PUSH4 0x9ED46FEE EQ PUSH2 0x1EE JUMPI DUP1 PUSH4 0xC261FA36 EQ PUSH2 0x1FF JUMPI DUP1 PUSH4 0xDA50EAEE EQ PUSH2 0x214 JUMPI DUP1 PUSH4 0xE2A4B2AF EQ PUSH2 0x21C JUMPI DUP1 PUSH4 0xEB1B30D9 EQ PUSH2 0x240 JUMPI PUSH1 0x0 DUP1 REVERT JUMPDEST DUP1 PUSH4 0x6540F7E EQ PUSH2 0xD6 JUMPI DUP1 PUSH4 0xE807D6E EQ PUSH2 0xF2 JUMPI DUP1 PUSH4 0x12065FE0 EQ PUSH2 0x146 JUMPI DUP1 PUSH4 0x14BF43BD EQ PUSH2 0x16B JUMPI DUP1 PUSH4 0x66335767 EQ PUSH2 0x173 JUMPI DUP1 PUSH4 0x6CA14BFD EQ PUSH2 0x186 JUMPI JUMPDEST PUSH1 0x0 DUP1 REVERT JUMPDEST PUSH2 0xDF PUSH1 0x0 SLOAD DUP2 JUMP JUMPDEST PUSH1 0x40 MLOAD SWAP1 DUP2 MSTORE PUSH1 0x20 ADD JUMPDEST PUSH1 0x40 MLOAD DUP1 SWAP2 SUB SWAP1 RETURN JUMPDEST PUSH2 0x144 PUSH2 0x100 CALLDATASIZE PUSH1 0x4 PUSH2 0x338 JUMP JUMPDEST PUSH1 0x1 DUP1 SLOAD PUSH20 0xFFFFFFFFFFFFFFFFFFFFFFFFFFFFFFFFFFFFFFFF SWAP1 SWAP3 AND PUSH3 0x10000 MUL PUSH22 0xFFFFFFFFFFFFFFFFFFFFFFFFFFFFFFFFFFFFFFFF0000 NOT SWAP1 SWAP3 AND SWAP2 SWAP1 SWAP2 OR SWAP1 SSTORE JUMP JUMPDEST STOP JUMPDEST PUSH1 0x1 SLOAD PUSH3 0x10000 SWAP1 DIV PUSH20 0xFFFFFFFFFFFFFFFFFFFFFFFFFFFFFFFFFFFFFFFF AND BALANCE PUSH2 0xDF JUMP JUMPDEST PUSH2 0x144 PUSH2 0x261 JUMP JUMPDEST PUSH2 0x144 PUSH2 0x181 CALLDATASIZE PUSH1 0x4 PUSH2 0x448 JUMP JUMPDEST PUSH1 0x0 SSTORE JUMP JUMPDEST PUSH1 0x1 SLOAD PUSH2 0x1AC SWAP1 PUSH3 0x10000 SWAP1 DIV PUSH20 0xFFFFFFFFFFFFFFFFFFFFFFFFFFFFFFFFFFFFFFFF AND DUP2 JUMP JUMPDEST PUSH1 0x40 MLOAD PUSH20 0xFFFFFFFFFFFFFFFFFFFFFFFFFFFFFFFFFFFFFFFF SWAP1 SWAP2 AND DUP2 MSTORE PUSH1 0x20 ADD PUSH2 0xE9 JUMP JUMPDEST PUSH1 0x1 SLOAD PUSH2 0x1DE SWAP1 PUSH1 0xFF AND DUP2 JUMP JUMPDEST PUSH1 0x40 MLOAD SWAP1 ISZERO ISZERO DUP2 MSTORE PUSH1 0x20 ADD PUSH2 0xE9 JUMP JUMPDEST PUSH2 0x144 PUSH2 0x1FC CALLDATASIZE PUSH1 0x4 PUSH2 0x397 JUMP JUMPDEST POP JUMP JUMPDEST PUSH2 0x207 PUSH2 0x293 JUMP JUMPDEST PUSH1 0x40 MLOAD PUSH2 0xE9 SWAP2 SWAP1 PUSH2 0x461 JUMP JUMPDEST PUSH2 0x144 PUSH2 0x321 JUMP JUMPDEST PUSH1 0x1 SLOAD PUSH2 0x22E SWAP1 PUSH2 0x100 SWAP1 DIV PUSH1 0xFF AND DUP2 JUMP JUMPDEST PUSH1 0x40 MLOAD PUSH1 0xFF SWAP1 SWAP2 AND DUP2 MSTORE PUSH1 0x20 ADD PUSH2 0xE9 JUMP JUMPDEST PUSH2 0x144 PUSH2 0x24E CALLDATASIZE PUSH1 0x4 PUSH2 0x375 JUMP JUMPDEST PUSH1 0x1 DUP1 SLOAD PUSH1 0xFF NOT AND SWAP2 ISZERO ISZERO SWAP2 SWAP1 SWAP2 OR SWAP1 SSTORE JUMP JUMPDEST PUSH1 0x1 DUP1 SLOAD PUSH2 0x100 SWAP1 DIV PUSH1 0xFF AND SWAP1 DUP1 PUSH2 0x278 DUP4 PUSH2 0x527 JUMP JUMPDEST SWAP2 SWAP1 PUSH2 0x100 EXP DUP2 SLOAD DUP2 PUSH1 0xFF MUL NOT AND SWAP1 DUP4 PUSH1 0xFF AND MUL OR SWAP1 SSTORE POP POP JUMP JUMPDEST PUSH1 0x2 DUP1 SLOAD PUSH2 0x2A0 SWAP1 PUSH2 0x4D3 JUMP JUMPDEST DUP1 PUSH1 0x1F ADD PUSH1 0x20 DUP1 SWAP2 DIV MUL PUSH1 0x20 ADD PUSH1 0x40 MLOAD SWAP1 DUP2 ADD PUSH1 0x40 MSTORE DUP1 SWAP3 SWAP2 SWAP1 DUP2 DUP2 MSTORE PUSH1 0x20 ADD DUP3 DUP1 SLOAD PUSH2 0x2CC SWAP1 PUSH2 0x4D3 JUMP JUMPDEST DUP1 ISZERO PUSH2 0x319 JUMPI DUP1 PUSH1 0x1F LT PUSH2 0x2EE JUMPI PUSH2 0x100 DUP1 DUP4 SLOAD DIV MUL DUP4 MSTORE SWAP2 PUSH1 0x20 ADD SWAP2 PUSH2 0x319 JUMP JUMPDEST DUP3 ADD SWAP2 SWAP1 PUSH1 0x0 MSTORE PUSH1 0x20 PUSH1 0x0 KECCAK256 SWAP1 JUMPDEST DUP2 SLOAD DUP2 MSTORE SWAP1 PUSH1 0x1 ADD SWAP1 PUSH1 0x20 ADD DUP1 DUP4 GT PUSH2 0x2FC JUMPI DUP3 SWAP1 SUB PUSH1 0x1F AND DUP3 ADD SWAP2 JUMPDEST POP POP POP POP POP DUP2 JUMP JUMPDEST PUSH1 0x1 DUP1 SLOAD PUSH2 0x100 SWAP1 DIV PUSH1 0xFF AND SWAP1 DUP1 PUSH2 0x278 DUP4 PUSH2 0x4B6 JUMP JUMPDEST PUSH1 0x0 PUSH1 0x20 DUP3 DUP5 SUB SLT ISZERO PUSH2 0x34A JUMPI PUSH1 0x0 DUP1 REVERT JUMPDEST DUP2 CALLDATALOAD PUSH20 0xFFFFFFFFFFFFFFFFFFFFFFFFFFFFFFFFFFFFFFFF DUP2 AND DUP2 EQ PUSH2 0x36E JUMPI PUSH1 0x0 DUP1 REVERT JUMPDEST SWAP4 SWAP3 POP POP POP JUMP JUMPDEST PUSH1 0x0 PUSH1 0x20 DUP3 DUP5 SUB SLT ISZERO PUSH2 0x387 JUMPI PUSH1 0x0 DUP1 REVERT JUMPDEST DUP2 CALLDATALOAD DUP1 ISZERO ISZERO DUP2 EQ PUSH2 0x36E JUMPI PUSH1 0x0 DUP1 REVERT JUMPDEST PUSH1 0x0 PUSH1 0x20 DUP3 DUP5 SUB SLT ISZERO PUSH2 0x3A9 JUMPI PUSH1 0x0 DUP1 REVERT JUMPDEST DUP2 CALLDATALOAD PUSH8 0xFFFFFFFFFFFFFFFF DUP1 DUP3 GT ISZERO PUSH2 0x3C1 JUMPI PUSH1 0x0 DUP1 REVERT JUMPDEST DUP2 DUP5 ADD SWAP2 POP DUP5 PUSH1 0x1F DUP4 ADD SLT PUSH2 0x3D5 JUMPI PUSH1 0x0 DUP1 REVERT JUMPDEST DUP2 CALLDATALOAD DUP2 DUP2 GT ISZERO PUSH2 0x3E7 JUMPI PUSH2 0x3E7 PUSH2 0x576 JUMP JUMPDEST PUSH1 0x40 MLOAD PUSH1 0x1F DUP3 ADD PUSH1 0x1F NOT SWAP1 DUP2 AND PUSH1 0x3F ADD AND DUP2 ADD SWAP1 DUP4 DUP3 GT DUP2 DUP4 LT OR ISZERO PUSH2 0x40F JUMPI PUSH2 0x40F PUSH2 0x576 JUMP JUMPDEST DUP2 PUSH1 0x40 MSTORE DUP3 DUP2 MSTORE DUP8 PUSH1 0x20 DUP5 DUP8 ADD ADD GT ISZERO PUSH2 0x428 JUMPI PUSH1 0x0 DUP1 REVERT JUMPDEST DUP3 PUSH1 0x20 DUP7 ADD PUSH1 0x20 DUP4 ADD CALLDATACOPY PUSH1 0x0 SWAP3 DUP2 ADD PUSH1 0x20 ADD SWAP3 SWAP1 SWAP3 MSTORE POP SWAP6 SWAP5 POP POP POP POP POP JUMP JUMPDEST PUSH1 0x0 PUSH1 0x20 DUP3 DUP5 SUB SLT ISZERO PUSH2 0x45A JUMPI PUSH1 0x0 DUP1 REVERT JUMPDEST POP CALLDATALOAD SWAP2 SWAP1 POP JUMP JUMPDEST PUSH1 0x0 PUSH1 0x20 DUP1 DUP4 MSTORE DUP4 MLOAD DUP1 DUP3 DUP6 ADD MSTORE PUSH1 0x0 JUMPDEST DUP2 DUP2 LT ISZERO PUSH2 0x48E JUMPI DUP6 DUP2 ADD DUP4 ADD MLOAD DUP6 DUP3 ADD PUSH1 0x40 ADD MSTORE DUP3 ADD PUSH2 0x472 JUMP JUMPDEST DUP2 DUP2 GT ISZERO PUSH2 0x4A0 JUMPI PUSH1 0x0 PUSH1 0x40 DUP4 DUP8 ADD ADD MSTORE JUMPDEST POP PUSH1 0x1F ADD PUSH1 0x1F NOT AND SWAP3 SWAP1 SWAP3 ADD PUSH1 0x40 ADD SWAP4 SWAP3 POP POP POP JUMP JUMPDEST PUSH1 0x0 PUSH1 0xFF DUP3 AND DUP1 PUSH2 0x4C9 JUMPI PUSH2 0x4C9 PUSH2 0x547 JUMP JUMPDEST PUSH1 0x0 NOT ADD SWAP3 SWAP2 POP POP JUMP JUMPDEST PUSH1 0x2 DUP2 DIV PUSH1 0x1 DUP3 AND DUP1 PUSH2 0x4E7 JUMPI PUSH1 0x7F DUP3 AND SWAP2 POP JUMPDEST PUSH1 0x20 DUP3 LT DUP2 EQ ISZERO PUSH2 0x521 JUMPI PUSH32 0x4E487B7100000000000000000000000000000000000000000000000000000000 PUSH1 0x0 MSTORE PUSH1 0x22 PUSH1 0x4 MSTORE PUSH1 0x24 PUSH1 0x0 REVERT JUMPDEST POP SWAP2 SWAP1 POP JUMP JUMPDEST PUSH1 0x0 PUSH1 0xFF DUP3 AND PUSH1 0xFF DUP2 EQ ISZERO PUSH2 0x53E JUMPI PUSH2 0x53E PUSH2 0x547 JUMP JUMPDEST PUSH1 0x1 ADD SWAP3 SWAP2 POP POP JUMP JUMPDEST PUSH32 0x4E487B7100000000000000000000000000000000000000000000000000000000 PUSH1 0x0 MSTORE PUSH1 0x11 PUSH1 0x4 MSTORE PUSH1 0x24 PUSH1 0x0 REVERT JUMPDEST PUSH32 0x4E487B7100000000000000000000000000000000000000000000000000000000 PUSH1 0x0 MSTORE PUSH1 0x41 PUSH1 0x4 MSTORE PUSH1 0x24 PUSH1 0x0 REVERT INVALID LOG2 PUSH5 0x6970667358 0x22 SLT KECCAK256 0xBF DIFFICULTY 0xD4 MSIZE 0xDC 0x27 0x4D CHAINID 0xE0 MLOAD 0xE7 TIMESTAMP 0xD6 0xFC 0x26 LOG2 0xC1 PC CALL 0x49 0xE 0x1E 0xD7 0xB1 BLOCKHASH 0xE MSIZE INVALID CREATE PUSH5 0xE13A64736F PUSH13 0x63430008070033000000000000 "
				},
				"gasEstimates": {
					"creation": {
						"codeDepositCost": "299800",
						"executionCost": "infinite",
						"totalCost": "infinite"
					},
					"external": {
						"decrementUint()": "20835",
						"getBalance()": "848",
						"incrementUint()": "20842",
						"myAdress()": "540",
						"myBool()": "415",
						"myUint()": "390",
						"myUint8()": "517",
						"mystring()": "infinite",
						"setAdress(address)": "20527",
						"setMyBool(bool)": "20597",
						"setMystring(string)": "infinite",
						"setMyuint(uint256)": "20306"
					}
				},
				"methodIdentifiers": {
					"decrementUint()": "da50eaee",
					"getBalance()": "12065fe0",
					"incrementUint()": "14bf43bd",
					"myAdress()": "6ca14bfd",
					"myBool()": "6deecdbe",
					"myUint()": "06540f7e",
					"myUint8()": "e2a4b2af",
					"mystring()": "c261fa36",
					"setAdress(address)": "0e807d6e",
					"setMyBool(bool)": "eb1b30d9",
					"setMystring(string)": "9ed46fee",
					"setMyuint(uint256)": "66335767"
				}
			},
			"storageLayout": {
				"storage": [
					{
						"astId": 3,
						"contract": "Variables.sol:Workingwithvariables",
						"label": "myUint",
						"offset": 0,
						"slot": "0",
						"type": "t_uint256"
					},
					{
						"astId": 15,
						"contract": "Variables.sol:Workingwithvariables",
						"label": "myBool",
						"offset": 0,
						"slot": "1",
						"type": "t_bool"
					},
					{
						"astId": 27,
						"contract": "Variables.sol:Workingwithvariables",
						"label": "myUint8",
						"offset": 1,
						"slot": "1",
						"type": "t_uint8"
					},
					{
						"astId": 43,
						"contract": "Variables.sol:Workingwithvariables",
						"label": "myAdress",
						"offset": 2,
						"slot": "1",
						"type": "t_address"
					},
					{
						"astId": 65,
						"contract": "Variables.sol:Workingwithvariables",
						"label": "mystring",
						"offset": 0,
						"slot": "2",
						"type": "t_string_storage"
					}
				],
				"types": {
					"t_address": {
						"encoding": "inplace",
						"label": "address",
						"numberOfBytes": "20"
					},
					"t_bool": {
						"encoding": "inplace",
						"label": "bool",
						"numberOfBytes": "1"
					},
					"t_string_storage": {
						"encoding": "bytes",
						"label": "string",
						"numberOfBytes": "32"
					},
					"t_uint256": {
						"encoding": "inplace",
						"label": "uint256",
						"numberOfBytes": "32"
					},
					"t_uint8": {
						"encoding": "inplace",
						"label": "uint8",
						"numberOfBytes": "1"
					}
				}
			},
			"userdoc": {
				"kind": "user",
				"methods": {},
				"version": 1
			}
		}
	}
}