{
	"Variables.sol": {
		"Workingwithvariables": {
			"abi": [
				{
					"inputs": [],
					"name": "decrementUint",
					"outputs": [],
					"stateMutability": "nonpayable",
					"type": "function"
				},
				{
					"inputs": [],
					"name": "incrementUint",
					"outputs": [],
					"stateMutability": "nonpayable",
					"type": "function"
				},
				{
					"inputs": [],
					"name": "myBool",
					"outputs": [
						{
							"internalType": "bool",
							"name": "",
							"type": "bool"
						}
					],
					"stateMutability": "view",
					"type": "function"
				},
				{
					"inputs": [],
					"name": "myUint",
					"outputs": [
						{
							"internalType": "uint256",
							"name": "",
							"type": "uint256"
						}
					],
					"stateMutability": "view",
					"type": "function"
				},
				{
					"inputs": [],
					"name": "myUint8",
					"outputs": [
						{
							"internalType": "uint8",
							"name": "",
							"type": "uint8"
						}
					],
					"stateMutability": "view",
					"type": "function"
				},
				{
					"inputs": [
						{
							"internalType": "bool",
							"name": "_myBool",
							"type": "bool"
						}
					],
					"name": "setMyBool",
					"outputs": [],
					"stateMutability": "nonpayable",
					"type": "function"
				},
				{
					"inputs": [
						{
							"internalType": "uint256",
							"name": "_myUint",
							"type": "uint256"
						}
					],
					"name": "setMyuint",
					"outputs": [],
					"stateMutability": "nonpayable",
					"type": "function"
				}
			],
			"devdoc": {
				"kind": "dev",
				"methods": {},
				"version": 1
			},
			"evm": {
				"assembly": "    /* \"Variables.sol\":27:517  contract Workingwithvariables {\r... */\n  mstore(0x40, 0x80)\n  callvalue\n  dup1\n  iszero\n  tag_1\n  jumpi\n  0x00\n  dup1\n  revert\ntag_1:\n  pop\n  dataSize(sub_0)\n  dup1\n  dataOffset(sub_0)\n  0x00\n  codecopy\n  0x00\n  return\nstop\n\nsub_0: assembly {\n        /* \"Variables.sol\":27:517  contract Workingwithvariables {\r... */\n      mstore(0x40, 0x80)\n      callvalue\n      dup1\n      iszero\n      tag_1\n      jumpi\n      0x00\n      dup1\n      revert\n    tag_1:\n      pop\n      jumpi(tag_2, lt(calldatasize, 0x04))\n      calldataload(0x00)\n      0x0100000000000000000000000000000000000000000000000000000000\n      swap1\n      div\n      dup1\n      0x6deecdbe\n      gt\n      tag_10\n      jumpi\n      dup1\n      0x6deecdbe\n      eq\n      tag_6\n      jumpi\n      dup1\n      0xda50eaee\n      eq\n      tag_7\n      jumpi\n      dup1\n      0xe2a4b2af\n      eq\n      tag_8\n      jumpi\n      dup1\n      0xeb1b30d9\n      eq\n      tag_9\n      jumpi\n      0x00\n      dup1\n      revert\n    tag_10:\n      dup1\n      0x06540f7e\n      eq\n      tag_3\n      jumpi\n      dup1\n      0x14bf43bd\n      eq\n      tag_4\n      jumpi\n      dup1\n      0x66335767\n      eq\n      tag_5\n      jumpi\n    tag_2:\n      0x00\n      dup1\n      revert\n        /* \"Variables.sol\":64:85  uint256 public myUint */\n    tag_3:\n      tag_11\n      sload(0x00)\n      dup2\n      jump\n    tag_11:\n      mload(0x40)\n        /* \"#utility.yul\":815:840   */\n      swap1\n      dup2\n      mstore\n        /* \"#utility.yul\":803:805   */\n      0x20\n        /* \"#utility.yul\":788:806   */\n      add\n        /* \"Variables.sol\":64:85  uint256 public myUint */\n    tag_13:\n      mload(0x40)\n      dup1\n      swap2\n      sub\n      swap1\n      return\n        /* \"Variables.sol\":383:443  function incrementUint() public {\r... */\n    tag_4:\n      tag_15\n      tag_16\n      jump\t// in\n    tag_15:\n      stop\n        /* \"Variables.sol\":159:234  function setMyuint(uint _myUint) public {\r... */\n    tag_5:\n      tag_15\n      tag_18\n      calldatasize\n      0x04\n      tag_19\n      jump\t// in\n    tag_18:\n        /* \"Variables.sol\":210:216  myUint */\n      0x00\n        /* \"Variables.sol\":210:226  myUint = _myUint */\n      sstore\n        /* \"Variables.sol\":159:234  function setMyuint(uint _myUint) public {\r... */\n      jump\n        /* \"Variables.sol\":240:258  bool public myBool */\n    tag_6:\n      sload(0x01)\n      tag_21\n      swap1\n      0xff\n      and\n      dup2\n      jump\n    tag_21:\n      mload(0x40)\n        /* \"#utility.yul\":642:656   */\n      swap1\n      iszero\n        /* \"#utility.yul\":635:657   */\n      iszero\n        /* \"#utility.yul\":617:658   */\n      dup2\n      mstore\n        /* \"#utility.yul\":605:607   */\n      0x20\n        /* \"#utility.yul\":590:608   */\n      add\n        /* \"Variables.sol\":240:258  bool public myBool */\n      tag_13\n        /* \"#utility.yul\":477:664   */\n      jump\n        /* \"Variables.sol\":451:511  function decrementUint() public {\r... */\n    tag_7:\n      tag_15\n      tag_26\n      jump\t// in\n        /* \"Variables.sol\":354:374  uint8 public myUint8 */\n    tag_8:\n      sload(0x01)\n      tag_27\n      swap1\n      0x0100\n      swap1\n      div\n      0xff\n      and\n      dup2\n      jump\n    tag_27:\n      mload(0x40)\n        /* \"#utility.yul\":1023:1027   */\n      0xff\n        /* \"#utility.yul\":1011:1028   */\n      swap1\n      swap2\n      and\n        /* \"#utility.yul\":993:1029   */\n      dup2\n      mstore\n        /* \"#utility.yul\":981:983   */\n      0x20\n        /* \"#utility.yul\":966:984   */\n      add\n        /* \"Variables.sol\":354:374  uint8 public myUint8 */\n      tag_13\n        /* \"#utility.yul\":851:1035   */\n      jump\n        /* \"Variables.sol\":267:342  function setMyBool(bool _myBool) public {\r... */\n    tag_9:\n      tag_15\n      tag_32\n      calldatasize\n      0x04\n      tag_33\n      jump\t// in\n    tag_32:\n        /* \"Variables.sol\":318:324  myBool */\n      0x01\n        /* \"Variables.sol\":318:334  myBool = _myBool */\n      dup1\n      sload\n      not(0xff)\n      and\n      swap2\n      iszero\n      iszero\n      swap2\n      swap1\n      swap2\n      or\n      swap1\n      sstore\n        /* \"Variables.sol\":267:342  function setMyBool(bool _myBool) public {\r... */\n      jump\n        /* \"Variables.sol\":383:443  function incrementUint() public {\r... */\n    tag_16:\n        /* \"Variables.sol\":426:433  myUint8 */\n      0x01\n        /* \"Variables.sol\":426:435  myUint8++ */\n      dup1\n      sload\n      0x0100\n      swap1\n      div\n      0xff\n      and\n      swap1\n        /* \"Variables.sol\":426:433  myUint8 */\n      dup1\n        /* \"Variables.sol\":426:435  myUint8++ */\n      tag_36\n      dup4\n      tag_37\n      jump\t// in\n    tag_36:\n      swap2\n      swap1\n      0x0100\n      exp\n      dup2\n      sload\n      dup2\n      0xff\n      mul\n      not\n      and\n      swap1\n      dup4\n      0xff\n      and\n      mul\n      or\n      swap1\n      sstore\n      pop\n      pop\n        /* \"Variables.sol\":383:443  function incrementUint() public {\r... */\n      jump\t// out\n        /* \"Variables.sol\":451:511  function decrementUint() public {\r... */\n    tag_26:\n        /* \"Variables.sol\":494:501  myUint8 */\n      0x01\n        /* \"Variables.sol\":494:503  myUint8-- */\n      dup1\n      sload\n      0x0100\n      swap1\n      div\n      0xff\n      and\n      swap1\n        /* \"Variables.sol\":494:501  myUint8 */\n      dup1\n        /* \"Variables.sol\":494:503  myUint8-- */\n      tag_36\n      dup4\n      tag_41\n      jump\t// in\n        /* \"#utility.yul\":14:287   */\n    tag_33:\n        /* \"#utility.yul\":70:76   */\n      0x00\n        /* \"#utility.yul\":123:125   */\n      0x20\n        /* \"#utility.yul\":111:120   */\n      dup3\n        /* \"#utility.yul\":102:109   */\n      dup5\n        /* \"#utility.yul\":98:121   */\n      sub\n        /* \"#utility.yul\":94:126   */\n      slt\n        /* \"#utility.yul\":91:143   */\n      iszero\n      tag_45\n      jumpi\n        /* \"#utility.yul\":139:140   */\n      0x00\n        /* \"#utility.yul\":136:137   */\n      dup1\n        /* \"#utility.yul\":129:141   */\n      revert\n        /* \"#utility.yul\":91:143   */\n    tag_45:\n        /* \"#utility.yul\":178:187   */\n      dup2\n        /* \"#utility.yul\":165:188   */\n      calldataload\n        /* \"#utility.yul\":231:236   */\n      dup1\n        /* \"#utility.yul\":224:237   */\n      iszero\n        /* \"#utility.yul\":217:238   */\n      iszero\n        /* \"#utility.yul\":210:215   */\n      dup2\n        /* \"#utility.yul\":207:239   */\n      eq\n        /* \"#utility.yul\":197:257   */\n      tag_46\n      jumpi\n        /* \"#utility.yul\":253:254   */\n      0x00\n        /* \"#utility.yul\":250:251   */\n      dup1\n        /* \"#utility.yul\":243:255   */\n      revert\n        /* \"#utility.yul\":197:257   */\n    tag_46:\n        /* \"#utility.yul\":276:281   */\n      swap4\n        /* \"#utility.yul\":14:287   */\n      swap3\n      pop\n      pop\n      pop\n      jump\t// out\n        /* \"#utility.yul\":292:472   */\n    tag_19:\n        /* \"#utility.yul\":351:357   */\n      0x00\n        /* \"#utility.yul\":404:406   */\n      0x20\n        /* \"#utility.yul\":392:401   */\n      dup3\n        /* \"#utility.yul\":383:390   */\n      dup5\n        /* \"#utility.yul\":379:402   */\n      sub\n        /* \"#utility.yul\":375:407   */\n      slt\n        /* \"#utility.yul\":372:424   */\n      iszero\n      tag_48\n      jumpi\n        /* \"#utility.yul\":420:421   */\n      0x00\n        /* \"#utility.yul\":417:418   */\n      dup1\n        /* \"#utility.yul\":410:422   */\n      revert\n        /* \"#utility.yul\":372:424   */\n    tag_48:\n      pop\n        /* \"#utility.yul\":443:466   */\n      calldataload\n      swap2\n        /* \"#utility.yul\":292:472   */\n      swap1\n      pop\n      jump\t// out\n        /* \"#utility.yul\":1040:1218   */\n    tag_41:\n        /* \"#utility.yul\":1077:1080   */\n      0x00\n        /* \"#utility.yul\":1121:1125   */\n      0xff\n        /* \"#utility.yul\":1114:1119   */\n      dup3\n        /* \"#utility.yul\":1110:1126   */\n      and\n        /* \"#utility.yul\":1145:1152   */\n      dup1\n        /* \"#utility.yul\":1135:1176   */\n      tag_54\n      jumpi\n        /* \"#utility.yul\":1156:1174   */\n      tag_54\n      tag_55\n      jump\t// in\n    tag_54:\n      not(0x00)\n        /* \"#utility.yul\":1192:1212   */\n      add\n      swap3\n        /* \"#utility.yul\":1040:1218   */\n      swap2\n      pop\n      pop\n      jump\t// out\n        /* \"#utility.yul\":1223:1398   */\n    tag_37:\n        /* \"#utility.yul\":1260:1263   */\n      0x00\n        /* \"#utility.yul\":1304:1308   */\n      0xff\n        /* \"#utility.yul\":1297:1302   */\n      dup3\n        /* \"#utility.yul\":1293:1309   */\n      and\n        /* \"#utility.yul\":1333:1337   */\n      0xff\n        /* \"#utility.yul\":1324:1331   */\n      dup2\n        /* \"#utility.yul\":1321:1338   */\n      eq\n        /* \"#utility.yul\":1318:1361   */\n      iszero\n      tag_58\n      jumpi\n        /* \"#utility.yul\":1341:1359   */\n      tag_58\n      tag_55\n      jump\t// in\n    tag_58:\n        /* \"#utility.yul\":1390:1391   */\n      0x01\n        /* \"#utility.yul\":1377:1392   */\n      add\n      swap3\n        /* \"#utility.yul\":1223:1398   */\n      swap2\n      pop\n      pop\n      jump\t// out\n        /* \"#utility.yul\":1403:1587   */\n    tag_55:\n        /* \"#utility.yul\":1455:1532   */\n      0x4e487b7100000000000000000000000000000000000000000000000000000000\n        /* \"#utility.yul\":1452:1453   */\n      0x00\n        /* \"#utility.yul\":1445:1533   */\n      mstore\n        /* \"#utility.yul\":1552:1556   */\n      0x11\n        /* \"#utility.yul\":1549:1550   */\n      0x04\n        /* \"#utility.yul\":1542:1557   */\n      mstore\n        /* \"#utility.yul\":1576:1580   */\n      0x24\n        /* \"#utility.yul\":1573:1574   */\n      0x00\n        /* \"#utility.yul\":1566:1581   */\n      revert\n\n    auxdata: 0xa264697066735822122006ac0a928c4c638e294837ea9b7d721e4164080a623c7b38175081e60167ed5064736f6c63430008070033\n}\n",
				"bytecode": {
					"linkReferences": {},
					"object": "608060405234801561001057600080fd5b5061026f806100206000396000f3fe608060405234801561001057600080fd5b506004361061009a576000357c0100000000000000000000000000000000000000000000000000000000900480636deecdbe116100785780636deecdbe146100d8578063da50eaee146100f5578063e2a4b2af146100fd578063eb1b30d91461012157600080fd5b806306540f7e1461009f57806314bf43bd146100bb57806366335767146100c5575b600080fd5b6100a860005481565b6040519081526020015b60405180910390f35b6100c3610142565b005b6100c36100d33660046101b4565b600055565b6001546100e59060ff1681565b60405190151581526020016100b2565b6100c3610174565b60015461010f90610100900460ff1681565b60405160ff90911681526020016100b2565b6100c361012f36600461018b565b6001805460ff1916911515919091179055565b60018054610100900460ff169080610159836101ea565b91906101000a81548160ff021916908360ff16021790555050565b60018054610100900460ff169080610159836101cd565b60006020828403121561019d57600080fd5b813580151581146101ad57600080fd5b9392505050565b6000602082840312156101c657600080fd5b5035919050565b600060ff8216806101e0576101e061020a565b6000190192915050565b600060ff821660ff8114156102015761020161020a565b60010192915050565b7f4e487b7100000000000000000000000000000000000000000000000000000000600052601160045260246000fdfea264697066735822122006ac0a928c4c638e294837ea9b7d721e4164080a623c7b38175081e60167ed5064736f6c63430008070033",
					"opcodes": "PUSH1 0x80 PUSH1 0x40 MSTORE CALLVALUE DUP1 ISZERO PUSH2 0x10 JUMPI PUSH1 0x0 DUP1 REVERT JUMPDEST POP PUSH2 0x26F DUP1 PUSH2 0x20 PUSH1 0x0 CODECOPY PUSH1 0x0 RETURN INVALID PUSH1 0x80 PUSH1 0x40 MSTORE CALLVALUE DUP1 ISZERO PUSH2 0x10 JUMPI PUSH1 0x0 DUP1 REVERT JUMPDEST POP PUSH1 0x4 CALLDATASIZE LT PUSH2 0x9A JUMPI PUSH1 0x0 CALLDATALOAD PUSH29 0x100000000000000000000000000000000000000000000000000000000 SWAP1 DIV DUP1 PUSH4 0x6DEECDBE GT PUSH2 0x78 JUMPI DUP1 PUSH4 0x6DEECDBE EQ PUSH2 0xD8 JUMPI DUP1 PUSH4 0xDA50EAEE EQ PUSH2 0xF5 JUMPI DUP1 PUSH4 0xE2A4B2AF EQ PUSH2 0xFD JUMPI DUP1 PUSH4 0xEB1B30D9 EQ PUSH2 0x121 JUMPI PUSH1 0x0 DUP1 REVERT JUMPDEST DUP1 PUSH4 0x6540F7E EQ PUSH2 0x9F JUMPI DUP1 PUSH4 0x14BF43BD EQ PUSH2 0xBB JUMPI DUP1 PUSH4 0x66335767 EQ PUSH2 0xC5 JUMPI JUMPDEST PUSH1 0x0 DUP1 REVERT JUMPDEST PUSH2 0xA8 PUSH1 0x0 SLOAD DUP2 JUMP JUMPDEST PUSH1 0x40 MLOAD SWAP1 DUP2 MSTORE PUSH1 0x20 ADD JUMPDEST PUSH1 0x40 MLOAD DUP1 SWAP2 SUB SWAP1 RETURN JUMPDEST PUSH2 0xC3 PUSH2 0x142 JUMP JUMPDEST STOP JUMPDEST PUSH2 0xC3 PUSH2 0xD3 CALLDATASIZE PUSH1 0x4 PUSH2 0x1B4 JUMP JUMPDEST PUSH1 0x0 SSTORE JUMP JUMPDEST PUSH1 0x1 SLOAD PUSH2 0xE5 SWAP1 PUSH1 0xFF AND DUP2 JUMP JUMPDEST PUSH1 0x40 MLOAD SWAP1 ISZERO ISZERO DUP2 MSTORE PUSH1 0x20 ADD PUSH2 0xB2 JUMP JUMPDEST PUSH2 0xC3 PUSH2 0x174 JUMP JUMPDEST PUSH1 0x1 SLOAD PUSH2 0x10F SWAP1 PUSH2 0x100 SWAP1 DIV PUSH1 0xFF AND DUP2 JUMP JUMPDEST PUSH1 0x40 MLOAD PUSH1 0xFF SWAP1 SWAP2 AND DUP2 MSTORE PUSH1 0x20 ADD PUSH2 0xB2 JUMP JUMPDEST PUSH2 0xC3 PUSH2 0x12F CALLDATASIZE PUSH1 0x4 PUSH2 0x18B JUMP JUMPDEST PUSH1 0x1 DUP1 SLOAD PUSH1 0xFF NOT AND SWAP2 ISZERO ISZERO SWAP2 SWAP1 SWAP2 OR SWAP1 SSTORE JUMP JUMPDEST PUSH1 0x1 DUP1 SLOAD PUSH2 0x100 SWAP1 DIV PUSH1 0xFF AND SWAP1 DUP1 PUSH2 0x159 DUP4 PUSH2 0x1EA JUMP JUMPDEST SWAP2 SWAP1 PUSH2 0x100 EXP DUP2 SLOAD DUP2 PUSH1 0xFF MUL NOT AND SWAP1 DUP4 PUSH1 0xFF AND MUL OR SWAP1 SSTORE POP POP JUMP JUMPDEST PUSH1 0x1 DUP1 SLOAD PUSH2 0x100 SWAP1 DIV PUSH1 0xFF AND SWAP1 DUP1 PUSH2 0x159 DUP4 PUSH2 0x1CD JUMP JUMPDEST PUSH1 0x0 PUSH1 0x20 DUP3 DUP5 SUB SLT ISZERO PUSH2 0x19D JUMPI PUSH1 0x0 DUP1 REVERT JUMPDEST DUP2 CALLDATALOAD DUP1 ISZERO ISZERO DUP2 EQ PUSH2 0x1AD JUMPI PUSH1 0x0 DUP1 REVERT JUMPDEST SWAP4 SWAP3 POP POP POP JUMP JUMPDEST PUSH1 0x0 PUSH1 0x20 DUP3 DUP5 SUB SLT ISZERO PUSH2 0x1C6 JUMPI PUSH1 0x0 DUP1 REVERT JUMPDEST POP CALLDATALOAD SWAP2 SWAP1 POP JUMP JUMPDEST PUSH1 0x0 PUSH1 0xFF DUP3 AND DUP1 PUSH2 0x1E0 JUMPI PUSH2 0x1E0 PUSH2 0x20A JUMP JUMPDEST PUSH1 0x0 NOT ADD SWAP3 SWAP2 POP POP JUMP JUMPDEST PUSH1 0x0 PUSH1 0xFF DUP3 AND PUSH1 0xFF DUP2 EQ ISZERO PUSH2 0x201 JUMPI PUSH2 0x201 PUSH2 0x20A JUMP JUMPDEST PUSH1 0x1 ADD SWAP3 SWAP2 POP POP JUMP JUMPDEST PUSH32 0x4E487B7100000000000000000000000000000000000000000000000000000000 PUSH1 0x0 MSTORE PUSH1 0x11 PUSH1 0x4 MSTORE PUSH1 0x24 PUSH1 0x0 REVERT INVALID LOG2 PUSH5 0x6970667358 0x22 SLT KECCAK256 MOD 0xAC EXP SWAP3 DUP13 0x4C PUSH4 0x8E294837 0xEA SWAP12 PUSH30 0x721E4164080A623C7B38175081E60167ED5064736F6C6343000807003300 "
				},
				"gasEstimates": {
					"creation": {
						"codeDepositCost": "124600",
						"executionCost": "171",
						"totalCost": "124771"
					},
					"external": {
						"decrementUint()": "20791",
						"incrementUint()": "20798",
						"myBool()": "415",
						"myUint()": "390",
						"myUint8()": "473",
						"setMyBool(bool)": "20553",
						"setMyuint(uint256)": "20262"
					}
				},
				"methodIdentifiers": {
					"decrementUint()": "da50eaee",
					"incrementUint()": "14bf43bd",
					"myBool()": "6deecdbe",
					"myUint()": "06540f7e",
					"myUint8()": "e2a4b2af",
					"setMyBool(bool)": "eb1b30d9",
					"setMyuint(uint256)": "66335767"
				}
			},
			"storageLayout": {
				"storage": [
					{
						"astId": 3,
						"contract": "Variables.sol:Workingwithvariables",
						"label": "myUint",
						"offset": 0,
						"slot": "0",
						"type": "t_uint256"
					},
					{
						"astId": 15,
						"contract": "Variables.sol:Workingwithvariables",
						"label": "myBool",
						"offset": 0,
						"slot": "1",
						"type": "t_bool"
					},
					{
						"astId": 27,
						"contract": "Variables.sol:Workingwithvariables",
						"label": "myUint8",
						"offset": 1,
						"slot": "1",
						"type": "t_uint8"
					}
				],
				"types": {
					"t_bool": {
						"encoding": "inplace",
						"label": "bool",
						"numberOfBytes": "1"
					},
					"t_uint256": {
						"encoding": "inplace",
						"label": "uint256",
						"numberOfBytes": "32"
					},
					"t_uint8": {
						"encoding": "inplace",
						"label": "uint8",
						"numberOfBytes": "1"
					}
				}
			},
			"userdoc": {
				"kind": "user",
				"methods": {},
				"version": 1
			}
		}
	}
}