{
	"Mycontract.sol": {
		"Mycontract": {
			"abi": [
				{
					"inputs": [],
					"name": "mystring",
					"outputs": [
						{
							"internalType": "string",
							"name": "",
							"type": "string"
						}
					],
					"stateMutability": "view",
					"type": "function"
				}
			],
			"devdoc": {
				"kind": "dev",
				"methods": {},
				"version": 1
			},
			"evm": {
				"assembly": "    /* \"Mycontract.sol\":54:92  string public mystring = \"Hello World\" */\n  0xc0\n    /* \"Mycontract.sol\":27:96  contract Mycontract {\r... */\n  0x40\n    /* \"Mycontract.sol\":54:92  string public mystring = \"Hello World\" */\n  mstore\n  0x0b\n    /* \"Mycontract.sol\":27:96  contract Mycontract {\r... */\n  0x80\n    /* \"Mycontract.sol\":54:92  string public mystring = \"Hello World\" */\n  dup2\n  swap1\n  mstore\n  0x48656c6c6f20576f726c64000000000000000000000000000000000000000000\n  0xa0\n  swap1\n  dup2\n  mstore\n  tag_1\n  swap2\n  0x00\n  swap2\n  swap1\n  tag_2\n  jump\t// in\ntag_1:\n  pop\n    /* \"Mycontract.sol\":27:96  contract Mycontract {\r... */\n  callvalue\n  dup1\n  iszero\n  tag_3\n  jumpi\n  0x00\n  dup1\n  revert\ntag_3:\n  pop\n  jump(tag_16)\ntag_2:\n  dup3\n  dup1\n  sload\n  tag_5\n  swap1\n  tag_6\n  jump\t// in\ntag_5:\n  swap1\n  0x00\n  mstore\n  keccak256(0x00, 0x20)\n  swap1\n  0x1f\n  add\n  0x20\n  swap1\n  div\n  dup2\n  add\n  swap3\n  dup3\n  tag_8\n  jumpi\n  0x00\n  dup6\n  sstore\n  jump(tag_11)\ntag_8:\n  dup3\n  0x1f\n  lt\n  tag_9\n  jumpi\n  dup1\n  mload\n  not(0xff)\n  and\n  dup4\n  dup1\n  add\n  or\n  dup6\n  sstore\n  jump(tag_11)\ntag_9:\n  dup3\n  dup1\n  add\n  0x01\n  add\n  dup6\n  sstore\n  dup3\n  iszero\n  tag_11\n  jumpi\n  swap2\n  dup3\n  add\ntag_10:\n  dup3\n  dup2\n  gt\n  iszero\n  tag_11\n  jumpi\n  dup3\n  mload\n  dup3\n  sstore\n  swap2\n  0x20\n  add\n  swap2\n  swap1\n  0x01\n  add\n  swap1\n  jump(tag_10)\ntag_11:\n  pop\n  tag_12\n  swap3\n  swap2\n  pop\n  tag_13\n  jump\t// in\ntag_12:\n  pop\n  swap1\n  jump\t// out\ntag_13:\ntag_14:\n  dup1\n  dup3\n  gt\n  iszero\n  tag_12\n  jumpi\n  0x00\n  dup2\n  sstore\n  0x01\n  add\n  jump(tag_14)\n    /* \"#utility.yul\":14:451   */\ntag_6:\n    /* \"#utility.yul\":99:100   */\n  0x02\n    /* \"#utility.yul\":89:101   */\n  dup2\n  div\n    /* \"#utility.yul\":146:147   */\n  0x01\n    /* \"#utility.yul\":136:148   */\n  dup3\n  and\n  dup1\n    /* \"#utility.yul\":157:218   */\n  tag_18\n  jumpi\n    /* \"#utility.yul\":211:215   */\n  0x7f\n    /* \"#utility.yul\":203:209   */\n  dup3\n    /* \"#utility.yul\":199:216   */\n  and\n    /* \"#utility.yul\":189:216   */\n  swap2\n  pop\n    /* \"#utility.yul\":157:218   */\ntag_18:\n    /* \"#utility.yul\":264:266   */\n  0x20\n    /* \"#utility.yul\":256:262   */\n  dup3\n    /* \"#utility.yul\":253:267   */\n  lt\n    /* \"#utility.yul\":233:251   */\n  dup2\n    /* \"#utility.yul\":230:268   */\n  eq\n    /* \"#utility.yul\":227:445   */\n  iszero\n  tag_19\n  jumpi\n    /* \"#utility.yul\":301:378   */\n  0x4e487b7100000000000000000000000000000000000000000000000000000000\n    /* \"#utility.yul\":298:299   */\n  0x00\n    /* \"#utility.yul\":291:379   */\n  mstore\n    /* \"#utility.yul\":402:406   */\n  0x22\n    /* \"#utility.yul\":399:400   */\n  0x04\n    /* \"#utility.yul\":392:407   */\n  mstore\n    /* \"#utility.yul\":430:434   */\n  0x24\n    /* \"#utility.yul\":427:428   */\n  0x00\n    /* \"#utility.yul\":420:435   */\n  revert\n    /* \"#utility.yul\":227:445   */\ntag_19:\n  pop\n    /* \"#utility.yul\":14:451   */\n  swap2\n  swap1\n  pop\n  jump\t// out\ntag_16:\n    /* \"Mycontract.sol\":27:96  contract Mycontract {\r... */\n  dataSize(sub_0)\n  dup1\n  dataOffset(sub_0)\n  0x00\n  codecopy\n  0x00\n  return\nstop\n\nsub_0: assembly {\n        /* \"Mycontract.sol\":27:96  contract Mycontract {\r... */\n      mstore(0x40, 0x80)\n      callvalue\n      dup1\n      iszero\n      tag_1\n      jumpi\n      0x00\n      dup1\n      revert\n    tag_1:\n      pop\n      jumpi(tag_2, lt(calldatasize, 0x04))\n      div(calldataload(0x00), 0x0100000000000000000000000000000000000000000000000000000000)\n      0xc261fa36\n      dup2\n      eq\n      tag_3\n      jumpi\n    tag_2:\n      0x00\n      dup1\n      revert\n        /* \"Mycontract.sol\":54:92  string public mystring = \"Hello World\" */\n    tag_3:\n      tag_4\n      tag_5\n      jump\t// in\n    tag_4:\n      mload(0x40)\n      tag_6\n      swap2\n      swap1\n      tag_7\n      jump\t// in\n    tag_6:\n      mload(0x40)\n      dup1\n      swap2\n      sub\n      swap1\n      return\n    tag_5:\n      0x00\n      dup1\n      sload\n      tag_8\n      swap1\n      tag_9\n      jump\t// in\n    tag_8:\n      dup1\n      0x1f\n      add\n      0x20\n      dup1\n      swap2\n      div\n      mul\n      0x20\n      add\n      mload(0x40)\n      swap1\n      dup2\n      add\n      0x40\n      mstore\n      dup1\n      swap3\n      swap2\n      swap1\n      dup2\n      dup2\n      mstore\n      0x20\n      add\n      dup3\n      dup1\n      sload\n      tag_10\n      swap1\n      tag_9\n      jump\t// in\n    tag_10:\n      dup1\n      iszero\n      tag_11\n      jumpi\n      dup1\n      0x1f\n      lt\n      tag_12\n      jumpi\n      0x0100\n      dup1\n      dup4\n      sload\n      div\n      mul\n      dup4\n      mstore\n      swap2\n      0x20\n      add\n      swap2\n      jump(tag_11)\n    tag_12:\n      dup3\n      add\n      swap2\n      swap1\n      0x00\n      mstore\n      keccak256(0x00, 0x20)\n      swap1\n    tag_13:\n      dup2\n      sload\n      dup2\n      mstore\n      swap1\n      0x01\n      add\n      swap1\n      0x20\n      add\n      dup1\n      dup4\n      gt\n      tag_13\n      jumpi\n      dup3\n      swap1\n      sub\n      0x1f\n      and\n      dup3\n      add\n      swap2\n    tag_11:\n      pop\n      pop\n      pop\n      pop\n      pop\n      dup2\n      jump\t// out\n        /* \"#utility.yul\":14:611   */\n    tag_7:\n        /* \"#utility.yul\":126:130   */\n      0x00\n        /* \"#utility.yul\":155:157   */\n      0x20\n        /* \"#utility.yul\":184:186   */\n      dup1\n        /* \"#utility.yul\":173:182   */\n      dup4\n        /* \"#utility.yul\":166:187   */\n      mstore\n        /* \"#utility.yul\":216:222   */\n      dup4\n        /* \"#utility.yul\":210:223   */\n      mload\n        /* \"#utility.yul\":259:265   */\n      dup1\n        /* \"#utility.yul\":254:256   */\n      dup3\n        /* \"#utility.yul\":243:252   */\n      dup6\n        /* \"#utility.yul\":239:257   */\n      add\n        /* \"#utility.yul\":232:266   */\n      mstore\n        /* \"#utility.yul\":284:285   */\n      0x00\n        /* \"#utility.yul\":294:434   */\n    tag_16:\n        /* \"#utility.yul\":308:314   */\n      dup2\n        /* \"#utility.yul\":305:306   */\n      dup2\n        /* \"#utility.yul\":302:315   */\n      lt\n        /* \"#utility.yul\":294:434   */\n      iszero\n      tag_18\n      jumpi\n        /* \"#utility.yul\":403:417   */\n      dup6\n      dup2\n      add\n        /* \"#utility.yul\":399:422   */\n      dup4\n      add\n        /* \"#utility.yul\":393:423   */\n      mload\n        /* \"#utility.yul\":369:386   */\n      dup6\n      dup3\n      add\n        /* \"#utility.yul\":388:390   */\n      0x40\n        /* \"#utility.yul\":365:391   */\n      add\n        /* \"#utility.yul\":358:424   */\n      mstore\n        /* \"#utility.yul\":323:333   */\n      dup3\n      add\n        /* \"#utility.yul\":294:434   */\n      jump(tag_16)\n    tag_18:\n        /* \"#utility.yul\":452:458   */\n      dup2\n        /* \"#utility.yul\":449:450   */\n      dup2\n        /* \"#utility.yul\":446:459   */\n      gt\n        /* \"#utility.yul\":443:534   */\n      iszero\n      tag_19\n      jumpi\n        /* \"#utility.yul\":522:523   */\n      0x00\n        /* \"#utility.yul\":517:519   */\n      0x40\n        /* \"#utility.yul\":508:514   */\n      dup4\n        /* \"#utility.yul\":497:506   */\n      dup8\n        /* \"#utility.yul\":493:515   */\n      add\n        /* \"#utility.yul\":489:520   */\n      add\n        /* \"#utility.yul\":482:524   */\n      mstore\n        /* \"#utility.yul\":443:534   */\n    tag_19:\n      pop\n        /* \"#utility.yul\":595:597   */\n      0x1f\n        /* \"#utility.yul\":574:589   */\n      add\n      not(0x1f)\n        /* \"#utility.yul\":570:599   */\n      and\n        /* \"#utility.yul\":555:600   */\n      swap3\n      swap1\n      swap3\n      add\n        /* \"#utility.yul\":602:604   */\n      0x40\n        /* \"#utility.yul\":551:605   */\n      add\n      swap4\n        /* \"#utility.yul\":14:611   */\n      swap3\n      pop\n      pop\n      pop\n      jump\t// out\n        /* \"#utility.yul\":616:1053   */\n    tag_9:\n        /* \"#utility.yul\":701:702   */\n      0x02\n        /* \"#utility.yul\":691:703   */\n      dup2\n      div\n        /* \"#utility.yul\":748:749   */\n      0x01\n        /* \"#utility.yul\":738:750   */\n      dup3\n      and\n      dup1\n        /* \"#utility.yul\":759:820   */\n      tag_21\n      jumpi\n        /* \"#utility.yul\":813:817   */\n      0x7f\n        /* \"#utility.yul\":805:811   */\n      dup3\n        /* \"#utility.yul\":801:818   */\n      and\n        /* \"#utility.yul\":791:818   */\n      swap2\n      pop\n        /* \"#utility.yul\":759:820   */\n    tag_21:\n        /* \"#utility.yul\":866:868   */\n      0x20\n        /* \"#utility.yul\":858:864   */\n      dup3\n        /* \"#utility.yul\":855:869   */\n      lt\n        /* \"#utility.yul\":835:853   */\n      dup2\n        /* \"#utility.yul\":832:870   */\n      eq\n        /* \"#utility.yul\":829:1047   */\n      iszero\n      tag_22\n      jumpi\n        /* \"#utility.yul\":903:980   */\n      0x4e487b7100000000000000000000000000000000000000000000000000000000\n        /* \"#utility.yul\":900:901   */\n      0x00\n        /* \"#utility.yul\":893:981   */\n      mstore\n        /* \"#utility.yul\":1004:1008   */\n      0x22\n        /* \"#utility.yul\":1001:1002   */\n      0x04\n        /* \"#utility.yul\":994:1009   */\n      mstore\n        /* \"#utility.yul\":1032:1036   */\n      0x24\n        /* \"#utility.yul\":1029:1030   */\n      0x00\n        /* \"#utility.yul\":1022:1037   */\n      revert\n        /* \"#utility.yul\":829:1047   */\n    tag_22:\n      pop\n        /* \"#utility.yul\":616:1053   */\n      swap2\n      swap1\n      pop\n      jump\t// out\n\n    auxdata: 0xa264697066735822122045a006c5adc38eb7d97bf337b0d03a36acb6c84f7b80cb08801165fb1daec81164736f6c63430008070033\n}\n",
				"bytecode": {
					"linkReferences": {},
					"object": "60c0604052600b60808190527f48656c6c6f20576f726c6400000000000000000000000000000000000000000060a090815261003e9160009190610051565b5034801561004b57600080fd5b5061013e565b82805461005d906100ea565b90600052602060002090601f01602090048101928261007f57600085556100c5565b82601f1061009857805160ff19168380011785556100c5565b828001600101855582156100c5579182015b828111156100c55782518255916020019190600101906100aa565b506100d19291506100d5565b5090565b5b808211156100d157600081556001016100d6565b6002810460018216806100fe57607f821691505b60208210811415610138577f4e487b7100000000000000000000000000000000000000000000000000000000600052602260045260246000fd5b50919050565b6101d78061014d6000396000f3fe608060405234801561001057600080fd5b5060043610610047577c01000000000000000000000000000000000000000000000000000000006000350463c261fa36811461004c575b600080fd5b61005461006a565b60405161006191906100f8565b60405180910390f35b600080546100779061014d565b80601f01602080910402602001604051908101604052809291908181526020018280546100a39061014d565b80156100f05780601f106100c5576101008083540402835291602001916100f0565b820191906000526020600020905b8154815290600101906020018083116100d357829003601f168201915b505050505081565b600060208083528351808285015260005b8181101561012557858101830151858201604001528201610109565b81811115610137576000604083870101525b50601f01601f1916929092016040019392505050565b60028104600182168061016157607f821691505b6020821081141561019b577f4e487b7100000000000000000000000000000000000000000000000000000000600052602260045260246000fd5b5091905056fea264697066735822122045a006c5adc38eb7d97bf337b0d03a36acb6c84f7b80cb08801165fb1daec81164736f6c63430008070033",
					"opcodes": "PUSH1 0xC0 PUSH1 0x40 MSTORE PUSH1 0xB PUSH1 0x80 DUP2 SWAP1 MSTORE PUSH32 0x48656C6C6F20576F726C64000000000000000000000000000000000000000000 PUSH1 0xA0 SWAP1 DUP2 MSTORE PUSH2 0x3E SWAP2 PUSH1 0x0 SWAP2 SWAP1 PUSH2 0x51 JUMP JUMPDEST POP CALLVALUE DUP1 ISZERO PUSH2 0x4B JUMPI PUSH1 0x0 DUP1 REVERT JUMPDEST POP PUSH2 0x13E JUMP JUMPDEST DUP3 DUP1 SLOAD PUSH2 0x5D SWAP1 PUSH2 0xEA JUMP JUMPDEST SWAP1 PUSH1 0x0 MSTORE PUSH1 0x20 PUSH1 0x0 KECCAK256 SWAP1 PUSH1 0x1F ADD PUSH1 0x20 SWAP1 DIV DUP2 ADD SWAP3 DUP3 PUSH2 0x7F JUMPI PUSH1 0x0 DUP6 SSTORE PUSH2 0xC5 JUMP JUMPDEST DUP3 PUSH1 0x1F LT PUSH2 0x98 JUMPI DUP1 MLOAD PUSH1 0xFF NOT AND DUP4 DUP1 ADD OR DUP6 SSTORE PUSH2 0xC5 JUMP JUMPDEST DUP3 DUP1 ADD PUSH1 0x1 ADD DUP6 SSTORE DUP3 ISZERO PUSH2 0xC5 JUMPI SWAP2 DUP3 ADD JUMPDEST DUP3 DUP2 GT ISZERO PUSH2 0xC5 JUMPI DUP3 MLOAD DUP3 SSTORE SWAP2 PUSH1 0x20 ADD SWAP2 SWAP1 PUSH1 0x1 ADD SWAP1 PUSH2 0xAA JUMP JUMPDEST POP PUSH2 0xD1 SWAP3 SWAP2 POP PUSH2 0xD5 JUMP JUMPDEST POP SWAP1 JUMP JUMPDEST JUMPDEST DUP1 DUP3 GT ISZERO PUSH2 0xD1 JUMPI PUSH1 0x0 DUP2 SSTORE PUSH1 0x1 ADD PUSH2 0xD6 JUMP JUMPDEST PUSH1 0x2 DUP2 DIV PUSH1 0x1 DUP3 AND DUP1 PUSH2 0xFE JUMPI PUSH1 0x7F DUP3 AND SWAP2 POP JUMPDEST PUSH1 0x20 DUP3 LT DUP2 EQ ISZERO PUSH2 0x138 JUMPI PUSH32 0x4E487B7100000000000000000000000000000000000000000000000000000000 PUSH1 0x0 MSTORE PUSH1 0x22 PUSH1 0x4 MSTORE PUSH1 0x24 PUSH1 0x0 REVERT JUMPDEST POP SWAP2 SWAP1 POP JUMP JUMPDEST PUSH2 0x1D7 DUP1 PUSH2 0x14D PUSH1 0x0 CODECOPY PUSH1 0x0 RETURN INVALID PUSH1 0x80 PUSH1 0x40 MSTORE CALLVALUE DUP1 ISZERO PUSH2 0x10 JUMPI PUSH1 0x0 DUP1 REVERT JUMPDEST POP PUSH1 0x4 CALLDATASIZE LT PUSH2 0x47 JUMPI PUSH29 0x100000000000000000000000000000000000000000000000000000000 PUSH1 0x0 CALLDATALOAD DIV PUSH4 0xC261FA36 DUP2 EQ PUSH2 0x4C JUMPI JUMPDEST PUSH1 0x0 DUP1 REVERT JUMPDEST PUSH2 0x54 PUSH2 0x6A JUMP JUMPDEST PUSH1 0x40 MLOAD PUSH2 0x61 SWAP2 SWAP1 PUSH2 0xF8 JUMP JUMPDEST PUSH1 0x40 MLOAD DUP1 SWAP2 SUB SWAP1 RETURN JUMPDEST PUSH1 0x0 DUP1 SLOAD PUSH2 0x77 SWAP1 PUSH2 0x14D JUMP JUMPDEST DUP1 PUSH1 0x1F ADD PUSH1 0x20 DUP1 SWAP2 DIV MUL PUSH1 0x20 ADD PUSH1 0x40 MLOAD SWAP1 DUP2 ADD PUSH1 0x40 MSTORE DUP1 SWAP3 SWAP2 SWAP1 DUP2 DUP2 MSTORE PUSH1 0x20 ADD DUP3 DUP1 SLOAD PUSH2 0xA3 SWAP1 PUSH2 0x14D JUMP JUMPDEST DUP1 ISZERO PUSH2 0xF0 JUMPI DUP1 PUSH1 0x1F LT PUSH2 0xC5 JUMPI PUSH2 0x100 DUP1 DUP4 SLOAD DIV MUL DUP4 MSTORE SWAP2 PUSH1 0x20 ADD SWAP2 PUSH2 0xF0 JUMP JUMPDEST DUP3 ADD SWAP2 SWAP1 PUSH1 0x0 MSTORE PUSH1 0x20 PUSH1 0x0 KECCAK256 SWAP1 JUMPDEST DUP2 SLOAD DUP2 MSTORE SWAP1 PUSH1 0x1 ADD SWAP1 PUSH1 0x20 ADD DUP1 DUP4 GT PUSH2 0xD3 JUMPI DUP3 SWAP1 SUB PUSH1 0x1F AND DUP3 ADD SWAP2 JUMPDEST POP POP POP POP POP DUP2 JUMP JUMPDEST PUSH1 0x0 PUSH1 0x20 DUP1 DUP4 MSTORE DUP4 MLOAD DUP1 DUP3 DUP6 ADD MSTORE PUSH1 0x0 JUMPDEST DUP2 DUP2 LT ISZERO PUSH2 0x125 JUMPI DUP6 DUP2 ADD DUP4 ADD MLOAD DUP6 DUP3 ADD PUSH1 0x40 ADD MSTORE DUP3 ADD PUSH2 0x109 JUMP JUMPDEST DUP2 DUP2 GT ISZERO PUSH2 0x137 JUMPI PUSH1 0x0 PUSH1 0x40 DUP4 DUP8 ADD ADD MSTORE JUMPDEST POP PUSH1 0x1F ADD PUSH1 0x1F NOT AND SWAP3 SWAP1 SWAP3 ADD PUSH1 0x40 ADD SWAP4 SWAP3 POP POP POP JUMP JUMPDEST PUSH1 0x2 DUP2 DIV PUSH1 0x1 DUP3 AND DUP1 PUSH2 0x161 JUMPI PUSH1 0x7F DUP3 AND SWAP2 POP JUMPDEST PUSH1 0x20 DUP3 LT DUP2 EQ ISZERO PUSH2 0x19B JUMPI PUSH32 0x4E487B7100000000000000000000000000000000000000000000000000000000 PUSH1 0x0 MSTORE PUSH1 0x22 PUSH1 0x4 MSTORE PUSH1 0x24 PUSH1 0x0 REVERT JUMPDEST POP SWAP2 SWAP1 POP JUMP INVALID LOG2 PUSH5 0x6970667358 0x22 SLT KECCAK256 GASLIMIT LOG0 MOD 0xC5 0xAD 0xC3 DUP15 0xB7 0xD9 PUSH28 0xF337B0D03A36ACB6C84F7B80CB08801165FB1DAEC81164736F6C6343 STOP ADDMOD SMOD STOP CALLER "
				},
				"gasEstimates": {
					"creation": {
						"codeDepositCost": "94200",
						"executionCost": "infinite",
						"totalCost": "infinite"
					},
					"external": {
						"mystring()": "infinite"
					}
				},
				"methodIdentifiers": {
					"mystring()": "c261fa36"
				}
			},
			"storageLayout": {
				"storage": [
					{
						"astId": 4,
						"contract": "Mycontract.sol:Mycontract",
						"label": "mystring",
						"offset": 0,
						"slot": "0",
						"type": "t_string_storage"
					}
				],
				"types": {
					"t_string_storage": {
						"encoding": "bytes",
						"label": "string",
						"numberOfBytes": "32"
					}
				}
			},
			"userdoc": {
				"kind": "user",
				"methods": {},
				"version": 1
			}
		}
	}
}