{
	"Variables.sol": {
		"Workingwithvariables": {
			"abi": [
				{
					"inputs": [],
					"name": "decrementUint",
					"outputs": [],
					"stateMutability": "nonpayable",
					"type": "function"
				},
				{
					"inputs": [],
					"name": "getBalance",
					"outputs": [],
					"stateMutability": "view",
					"type": "function"
				},
				{
					"inputs": [],
					"name": "incrementUint",
					"outputs": [],
					"stateMutability": "nonpayable",
					"type": "function"
				},
				{
					"inputs": [],
					"name": "myAdress",
					"outputs": [
						{
							"internalType": "address",
							"name": "",
							"type": "address"
						}
					],
					"stateMutability": "view",
					"type": "function"
				},
				{
					"inputs": [],
					"name": "myBool",
					"outputs": [
						{
							"internalType": "bool",
							"name": "",
							"type": "bool"
						}
					],
					"stateMutability": "view",
					"type": "function"
				},
				{
					"inputs": [],
					"name": "myUint",
					"outputs": [
						{
							"internalType": "uint256",
							"name": "",
							"type": "uint256"
						}
					],
					"stateMutability": "view",
					"type": "function"
				},
				{
					"inputs": [],
					"name": "myUint8",
					"outputs": [
						{
							"internalType": "uint8",
							"name": "",
							"type": "uint8"
						}
					],
					"stateMutability": "view",
					"type": "function"
				},
				{
					"inputs": [
						{
							"internalType": "address",
							"name": "_adress",
							"type": "address"
						}
					],
					"name": "setAdress",
					"outputs": [],
					"stateMutability": "nonpayable",
					"type": "function"
				},
				{
					"inputs": [
						{
							"internalType": "bool",
							"name": "_myBool",
							"type": "bool"
						}
					],
					"name": "setMyBool",
					"outputs": [],
					"stateMutability": "nonpayable",
					"type": "function"
				},
				{
					"inputs": [
						{
							"internalType": "uint256",
							"name": "_myUint",
							"type": "uint256"
						}
					],
					"name": "setMyuint",
					"outputs": [],
					"stateMutability": "nonpayable",
					"type": "function"
				}
			],
			"devdoc": {
				"kind": "dev",
				"methods": {},
				"version": 1
			},
			"evm": {
				"assembly": "    /* \"Variables.sol\":27:678  contract Workingwithvariables {\r... */\n  mstore(0x40, 0x80)\n  callvalue\n  dup1\n  iszero\n  tag_1\n  jumpi\n  0x00\n  dup1\n  revert\ntag_1:\n  pop\n  dataSize(sub_0)\n  dup1\n  dataOffset(sub_0)\n  0x00\n  codecopy\n  0x00\n  return\nstop\n\nsub_0: assembly {\n        /* \"Variables.sol\":27:678  contract Workingwithvariables {\r... */\n      mstore(0x40, 0x80)\n      callvalue\n      dup1\n      iszero\n      tag_1\n      jumpi\n      0x00\n      dup1\n      revert\n    tag_1:\n      pop\n      jumpi(tag_2, lt(calldatasize, 0x04))\n      calldataload(0x00)\n      0x0100000000000000000000000000000000000000000000000000000000\n      swap1\n      div\n      dup1\n      0x6ca14bfd\n      gt\n      tag_13\n      jumpi\n      dup1\n      0x6ca14bfd\n      eq\n      tag_8\n      jumpi\n      dup1\n      0x6deecdbe\n      eq\n      tag_9\n      jumpi\n      dup1\n      0xda50eaee\n      eq\n      tag_10\n      jumpi\n      dup1\n      0xe2a4b2af\n      eq\n      tag_11\n      jumpi\n      dup1\n      0xeb1b30d9\n      eq\n      tag_12\n      jumpi\n      0x00\n      dup1\n      revert\n    tag_13:\n      dup1\n      0x06540f7e\n      eq\n      tag_3\n      jumpi\n      dup1\n      0x0e807d6e\n      eq\n      tag_4\n      jumpi\n      dup1\n      0x12065fe0\n      eq\n      tag_18\n      jumpi\n      dup1\n      0x14bf43bd\n      eq\n      tag_6\n      jumpi\n      dup1\n      0x66335767\n      eq\n      tag_7\n      jumpi\n    tag_2:\n      0x00\n      dup1\n      revert\n        /* \"Variables.sol\":64:85  uint256 public myUint */\n    tag_3:\n      tag_14\n      sload(0x00)\n      dup2\n      jump\n    tag_14:\n      mload(0x40)\n        /* \"#utility.yul\":1360:1385   */\n      swap1\n      dup2\n      mstore\n        /* \"#utility.yul\":1348:1350   */\n      0x20\n        /* \"#utility.yul\":1333:1351   */\n      add\n        /* \"Variables.sol\":64:85  uint256 public myUint */\n    tag_16:\n      mload(0x40)\n      dup1\n      swap2\n      sub\n      swap1\n      return\n        /* \"Variables.sol\":549:629  function setAdress(address _adress) public {\r... */\n    tag_4:\n      tag_18\n      tag_19\n      calldatasize\n      0x04\n      tag_20\n      jump\t// in\n    tag_19:\n        /* \"Variables.sol\":603:611  myAdress */\n      0x01\n        /* \"Variables.sol\":603:621  myAdress = _adress */\n      dup1\n      sload\n      0xffffffffffffffffffffffffffffffffffffffff\n      swap1\n      swap3\n      and\n      0x010000\n      mul\n      not(0xffffffffffffffffffffffffffffffffffffffff0000)\n      swap1\n      swap3\n      and\n      swap2\n      swap1\n      swap2\n      or\n      swap1\n      sstore\n        /* \"Variables.sol\":549:629  function setAdress(address _adress) public {\r... */\n      jump\n    tag_18:\n      stop\n        /* \"Variables.sol\":383:443  function incrementUint() public {\r... */\n    tag_6:\n      tag_18\n      tag_25\n      jump\t// in\n        /* \"Variables.sol\":159:234  function setMyuint(uint _myUint) public {\r... */\n    tag_7:\n      tag_18\n      tag_27\n      calldatasize\n      0x04\n      tag_28\n      jump\t// in\n    tag_27:\n        /* \"Variables.sol\":210:216  myUint */\n      0x00\n        /* \"Variables.sol\":210:226  myUint = _myUint */\n      sstore\n        /* \"Variables.sol\":159:234  function setMyuint(uint _myUint) public {\r... */\n      jump\n        /* \"Variables.sol\":517:540  address public myAdress */\n    tag_8:\n      sload(0x01)\n      tag_30\n      swap1\n      0x010000\n      swap1\n      div\n      0xffffffffffffffffffffffffffffffffffffffff\n      and\n      dup2\n      jump\n    tag_30:\n      mload(0x40)\n        /* \"#utility.yul\":967:1009   */\n      0xffffffffffffffffffffffffffffffffffffffff\n        /* \"#utility.yul\":955:1010   */\n      swap1\n      swap2\n      and\n        /* \"#utility.yul\":937:1011   */\n      dup2\n      mstore\n        /* \"#utility.yul\":925:927   */\n      0x20\n        /* \"#utility.yul\":910:928   */\n      add\n        /* \"Variables.sol\":517:540  address public myAdress */\n      tag_16\n        /* \"#utility.yul\":791:1017   */\n      jump\n        /* \"Variables.sol\":240:258  bool public myBool */\n    tag_9:\n      sload(0x01)\n      tag_34\n      swap1\n      0xff\n      and\n      dup2\n      jump\n    tag_34:\n      mload(0x40)\n        /* \"#utility.yul\":1187:1201   */\n      swap1\n      iszero\n        /* \"#utility.yul\":1180:1202   */\n      iszero\n        /* \"#utility.yul\":1162:1203   */\n      dup2\n      mstore\n        /* \"#utility.yul\":1150:1152   */\n      0x20\n        /* \"#utility.yul\":1135:1153   */\n      add\n        /* \"Variables.sol\":240:258  bool public myBool */\n      tag_16\n        /* \"#utility.yul\":1022:1209   */\n      jump\n        /* \"Variables.sol\":451:511  function decrementUint() public {\r... */\n    tag_10:\n      tag_18\n      tag_39\n      jump\t// in\n        /* \"Variables.sol\":354:374  uint8 public myUint8 */\n    tag_11:\n      sload(0x01)\n      tag_40\n      swap1\n      0x0100\n      swap1\n      div\n      0xff\n      and\n      dup2\n      jump\n    tag_40:\n      mload(0x40)\n        /* \"#utility.yul\":1568:1572   */\n      0xff\n        /* \"#utility.yul\":1556:1573   */\n      swap1\n      swap2\n      and\n        /* \"#utility.yul\":1538:1574   */\n      dup2\n      mstore\n        /* \"#utility.yul\":1526:1528   */\n      0x20\n        /* \"#utility.yul\":1511:1529   */\n      add\n        /* \"Variables.sol\":354:374  uint8 public myUint8 */\n      tag_16\n        /* \"#utility.yul\":1396:1580   */\n      jump\n        /* \"Variables.sol\":267:342  function setMyBool(bool _myBool) public {\r... */\n    tag_12:\n      tag_18\n      tag_45\n      calldatasize\n      0x04\n      tag_46\n      jump\t// in\n    tag_45:\n        /* \"Variables.sol\":318:324  myBool */\n      0x01\n        /* \"Variables.sol\":318:334  myBool = _myBool */\n      dup1\n      sload\n      not(0xff)\n      and\n      swap2\n      iszero\n      iszero\n      swap2\n      swap1\n      swap2\n      or\n      swap1\n      sstore\n        /* \"Variables.sol\":267:342  function setMyBool(bool _myBool) public {\r... */\n      jump\n        /* \"Variables.sol\":383:443  function incrementUint() public {\r... */\n    tag_25:\n        /* \"Variables.sol\":426:433  myUint8 */\n      0x01\n        /* \"Variables.sol\":426:435  myUint8++ */\n      dup1\n      sload\n      0x0100\n      swap1\n      div\n      0xff\n      and\n      swap1\n        /* \"Variables.sol\":426:433  myUint8 */\n      dup1\n        /* \"Variables.sol\":426:435  myUint8++ */\n      tag_51\n      dup4\n      tag_52\n      jump\t// in\n    tag_51:\n      swap2\n      swap1\n      0x0100\n      exp\n      dup2\n      sload\n      dup2\n      0xff\n      mul\n      not\n      and\n      swap1\n      dup4\n      0xff\n      and\n      mul\n      or\n      swap1\n      sstore\n      pop\n      pop\n        /* \"Variables.sol\":383:443  function incrementUint() public {\r... */\n      jump\t// out\n        /* \"Variables.sol\":451:511  function decrementUint() public {\r... */\n    tag_39:\n        /* \"Variables.sol\":494:501  myUint8 */\n      0x01\n        /* \"Variables.sol\":494:503  myUint8-- */\n      dup1\n      sload\n      0x0100\n      swap1\n      div\n      0xff\n      and\n      swap1\n        /* \"Variables.sol\":494:501  myUint8 */\n      dup1\n        /* \"Variables.sol\":494:503  myUint8-- */\n      tag_51\n      dup4\n      tag_56\n      jump\t// in\n        /* \"#utility.yul\":14:323   */\n    tag_20:\n        /* \"#utility.yul\":73:79   */\n      0x00\n        /* \"#utility.yul\":126:128   */\n      0x20\n        /* \"#utility.yul\":114:123   */\n      dup3\n        /* \"#utility.yul\":105:112   */\n      dup5\n        /* \"#utility.yul\":101:124   */\n      sub\n        /* \"#utility.yul\":97:129   */\n      slt\n        /* \"#utility.yul\":94:146   */\n      iszero\n      tag_60\n      jumpi\n        /* \"#utility.yul\":142:143   */\n      0x00\n        /* \"#utility.yul\":139:140   */\n      dup1\n        /* \"#utility.yul\":132:144   */\n      revert\n        /* \"#utility.yul\":94:146   */\n    tag_60:\n        /* \"#utility.yul\":181:190   */\n      dup2\n        /* \"#utility.yul\":168:191   */\n      calldataload\n        /* \"#utility.yul\":231:273   */\n      0xffffffffffffffffffffffffffffffffffffffff\n        /* \"#utility.yul\":224:229   */\n      dup2\n        /* \"#utility.yul\":220:274   */\n      and\n        /* \"#utility.yul\":213:218   */\n      dup2\n        /* \"#utility.yul\":210:275   */\n      eq\n        /* \"#utility.yul\":200:293   */\n      tag_61\n      jumpi\n        /* \"#utility.yul\":289:290   */\n      0x00\n        /* \"#utility.yul\":286:287   */\n      dup1\n        /* \"#utility.yul\":279:291   */\n      revert\n        /* \"#utility.yul\":200:293   */\n    tag_61:\n        /* \"#utility.yul\":312:317   */\n      swap4\n        /* \"#utility.yul\":14:323   */\n      swap3\n      pop\n      pop\n      pop\n      jump\t// out\n        /* \"#utility.yul\":328:601   */\n    tag_46:\n        /* \"#utility.yul\":384:390   */\n      0x00\n        /* \"#utility.yul\":437:439   */\n      0x20\n        /* \"#utility.yul\":425:434   */\n      dup3\n        /* \"#utility.yul\":416:423   */\n      dup5\n        /* \"#utility.yul\":412:435   */\n      sub\n        /* \"#utility.yul\":408:440   */\n      slt\n        /* \"#utility.yul\":405:457   */\n      iszero\n      tag_63\n      jumpi\n        /* \"#utility.yul\":453:454   */\n      0x00\n        /* \"#utility.yul\":450:451   */\n      dup1\n        /* \"#utility.yul\":443:455   */\n      revert\n        /* \"#utility.yul\":405:457   */\n    tag_63:\n        /* \"#utility.yul\":492:501   */\n      dup2\n        /* \"#utility.yul\":479:502   */\n      calldataload\n        /* \"#utility.yul\":545:550   */\n      dup1\n        /* \"#utility.yul\":538:551   */\n      iszero\n        /* \"#utility.yul\":531:552   */\n      iszero\n        /* \"#utility.yul\":524:529   */\n      dup2\n        /* \"#utility.yul\":521:553   */\n      eq\n        /* \"#utility.yul\":511:571   */\n      tag_61\n      jumpi\n        /* \"#utility.yul\":567:568   */\n      0x00\n        /* \"#utility.yul\":564:565   */\n      dup1\n        /* \"#utility.yul\":557:569   */\n      revert\n        /* \"#utility.yul\":606:786   */\n    tag_28:\n        /* \"#utility.yul\":665:671   */\n      0x00\n        /* \"#utility.yul\":718:720   */\n      0x20\n        /* \"#utility.yul\":706:715   */\n      dup3\n        /* \"#utility.yul\":697:704   */\n      dup5\n        /* \"#utility.yul\":693:716   */\n      sub\n        /* \"#utility.yul\":689:721   */\n      slt\n        /* \"#utility.yul\":686:738   */\n      iszero\n      tag_66\n      jumpi\n        /* \"#utility.yul\":734:735   */\n      0x00\n        /* \"#utility.yul\":731:732   */\n      dup1\n        /* \"#utility.yul\":724:736   */\n      revert\n        /* \"#utility.yul\":686:738   */\n    tag_66:\n      pop\n        /* \"#utility.yul\":757:780   */\n      calldataload\n      swap2\n        /* \"#utility.yul\":606:786   */\n      swap1\n      pop\n      jump\t// out\n        /* \"#utility.yul\":1585:1763   */\n    tag_56:\n        /* \"#utility.yul\":1622:1625   */\n      0x00\n        /* \"#utility.yul\":1666:1670   */\n      0xff\n        /* \"#utility.yul\":1659:1664   */\n      dup3\n        /* \"#utility.yul\":1655:1671   */\n      and\n        /* \"#utility.yul\":1690:1697   */\n      dup1\n        /* \"#utility.yul\":1680:1721   */\n      tag_73\n      jumpi\n        /* \"#utility.yul\":1701:1719   */\n      tag_73\n      tag_74\n      jump\t// in\n    tag_73:\n      not(0x00)\n        /* \"#utility.yul\":1737:1757   */\n      add\n      swap3\n        /* \"#utility.yul\":1585:1763   */\n      swap2\n      pop\n      pop\n      jump\t// out\n        /* \"#utility.yul\":1768:1943   */\n    tag_52:\n        /* \"#utility.yul\":1805:1808   */\n      0x00\n        /* \"#utility.yul\":1849:1853   */\n      0xff\n        /* \"#utility.yul\":1842:1847   */\n      dup3\n        /* \"#utility.yul\":1838:1854   */\n      and\n        /* \"#utility.yul\":1878:1882   */\n      0xff\n        /* \"#utility.yul\":1869:1876   */\n      dup2\n        /* \"#utility.yul\":1866:1883   */\n      eq\n        /* \"#utility.yul\":1863:1906   */\n      iszero\n      tag_77\n      jumpi\n        /* \"#utility.yul\":1886:1904   */\n      tag_77\n      tag_74\n      jump\t// in\n    tag_77:\n        /* \"#utility.yul\":1935:1936   */\n      0x01\n        /* \"#utility.yul\":1922:1937   */\n      add\n      swap3\n        /* \"#utility.yul\":1768:1943   */\n      swap2\n      pop\n      pop\n      jump\t// out\n        /* \"#utility.yul\":1948:2132   */\n    tag_74:\n        /* \"#utility.yul\":2000:2077   */\n      0x4e487b7100000000000000000000000000000000000000000000000000000000\n        /* \"#utility.yul\":1997:1998   */\n      0x00\n        /* \"#utility.yul\":1990:2078   */\n      mstore\n        /* \"#utility.yul\":2097:2101   */\n      0x11\n        /* \"#utility.yul\":2094:2095   */\n      0x04\n        /* \"#utility.yul\":2087:2102   */\n      mstore\n        /* \"#utility.yul\":2121:2125   */\n      0x24\n        /* \"#utility.yul\":2118:2119   */\n      0x00\n        /* \"#utility.yul\":2111:2126   */\n      revert\n\n    auxdata: 0xa2646970667358221220ac509a8040f86f0e1cba58abc37838a299e0ff06f0e6cf10cbb8e1db40e4f9be64736f6c63430008070033\n}\n",
				"bytecode": {
					"linkReferences": {},
					"object": "608060405234801561001057600080fd5b50610363806100206000396000f3fe608060405234801561001057600080fd5b50600436106100bb576000357c0100000000000000000000000000000000000000000000000000000000900480636ca14bfd116100835780636ca14bfd1461014b5780636deecdbe14610196578063da50eaee146101b3578063e2a4b2af146101bb578063eb1b30d9146101df57600080fd5b806306540f7e146100c05780630e807d6e146100dc57806312065fe01461012e57806314bf43bd146101305780636633576714610138575b600080fd5b6100c960005481565b6040519081526020015b60405180910390f35b61012e6100ea366004610249565b6001805473ffffffffffffffffffffffffffffffffffffffff909216620100000275ffffffffffffffffffffffffffffffffffffffff000019909216919091179055565b005b61012e610200565b61012e6101463660046102a8565b600055565b6001546101719062010000900473ffffffffffffffffffffffffffffffffffffffff1681565b60405173ffffffffffffffffffffffffffffffffffffffff90911681526020016100d3565b6001546101a39060ff1681565b60405190151581526020016100d3565b61012e610232565b6001546101cd90610100900460ff1681565b60405160ff90911681526020016100d3565b61012e6101ed366004610286565b6001805460ff1916911515919091179055565b60018054610100900460ff169080610217836102de565b91906101000a81548160ff021916908360ff16021790555050565b60018054610100900460ff169080610217836102c1565b60006020828403121561025b57600080fd5b813573ffffffffffffffffffffffffffffffffffffffff8116811461027f57600080fd5b9392505050565b60006020828403121561029857600080fd5b8135801515811461027f57600080fd5b6000602082840312156102ba57600080fd5b5035919050565b600060ff8216806102d4576102d46102fe565b6000190192915050565b600060ff821660ff8114156102f5576102f56102fe565b60010192915050565b7f4e487b7100000000000000000000000000000000000000000000000000000000600052601160045260246000fdfea2646970667358221220ac509a8040f86f0e1cba58abc37838a299e0ff06f0e6cf10cbb8e1db40e4f9be64736f6c63430008070033",
					"opcodes": "PUSH1 0x80 PUSH1 0x40 MSTORE CALLVALUE DUP1 ISZERO PUSH2 0x10 JUMPI PUSH1 0x0 DUP1 REVERT JUMPDEST POP PUSH2 0x363 DUP1 PUSH2 0x20 PUSH1 0x0 CODECOPY PUSH1 0x0 RETURN INVALID PUSH1 0x80 PUSH1 0x40 MSTORE CALLVALUE DUP1 ISZERO PUSH2 0x10 JUMPI PUSH1 0x0 DUP1 REVERT JUMPDEST POP PUSH1 0x4 CALLDATASIZE LT PUSH2 0xBB JUMPI PUSH1 0x0 CALLDATALOAD PUSH29 0x100000000000000000000000000000000000000000000000000000000 SWAP1 DIV DUP1 PUSH4 0x6CA14BFD GT PUSH2 0x83 JUMPI DUP1 PUSH4 0x6CA14BFD EQ PUSH2 0x14B JUMPI DUP1 PUSH4 0x6DEECDBE EQ PUSH2 0x196 JUMPI DUP1 PUSH4 0xDA50EAEE EQ PUSH2 0x1B3 JUMPI DUP1 PUSH4 0xE2A4B2AF EQ PUSH2 0x1BB JUMPI DUP1 PUSH4 0xEB1B30D9 EQ PUSH2 0x1DF JUMPI PUSH1 0x0 DUP1 REVERT JUMPDEST DUP1 PUSH4 0x6540F7E EQ PUSH2 0xC0 JUMPI DUP1 PUSH4 0xE807D6E EQ PUSH2 0xDC JUMPI DUP1 PUSH4 0x12065FE0 EQ PUSH2 0x12E JUMPI DUP1 PUSH4 0x14BF43BD EQ PUSH2 0x130 JUMPI DUP1 PUSH4 0x66335767 EQ PUSH2 0x138 JUMPI JUMPDEST PUSH1 0x0 DUP1 REVERT JUMPDEST PUSH2 0xC9 PUSH1 0x0 SLOAD DUP2 JUMP JUMPDEST PUSH1 0x40 MLOAD SWAP1 DUP2 MSTORE PUSH1 0x20 ADD JUMPDEST PUSH1 0x40 MLOAD DUP1 SWAP2 SUB SWAP1 RETURN JUMPDEST PUSH2 0x12E PUSH2 0xEA CALLDATASIZE PUSH1 0x4 PUSH2 0x249 JUMP JUMPDEST PUSH1 0x1 DUP1 SLOAD PUSH20 0xFFFFFFFFFFFFFFFFFFFFFFFFFFFFFFFFFFFFFFFF SWAP1 SWAP3 AND PUSH3 0x10000 MUL PUSH22 0xFFFFFFFFFFFFFFFFFFFFFFFFFFFFFFFFFFFFFFFF0000 NOT SWAP1 SWAP3 AND SWAP2 SWAP1 SWAP2 OR SWAP1 SSTORE JUMP JUMPDEST STOP JUMPDEST PUSH2 0x12E PUSH2 0x200 JUMP JUMPDEST PUSH2 0x12E PUSH2 0x146 CALLDATASIZE PUSH1 0x4 PUSH2 0x2A8 JUMP JUMPDEST PUSH1 0x0 SSTORE JUMP JUMPDEST PUSH1 0x1 SLOAD PUSH2 0x171 SWAP1 PUSH3 0x10000 SWAP1 DIV PUSH20 0xFFFFFFFFFFFFFFFFFFFFFFFFFFFFFFFFFFFFFFFF AND DUP2 JUMP JUMPDEST PUSH1 0x40 MLOAD PUSH20 0xFFFFFFFFFFFFFFFFFFFFFFFFFFFFFFFFFFFFFFFF SWAP1 SWAP2 AND DUP2 MSTORE PUSH1 0x20 ADD PUSH2 0xD3 JUMP JUMPDEST PUSH1 0x1 SLOAD PUSH2 0x1A3 SWAP1 PUSH1 0xFF AND DUP2 JUMP JUMPDEST PUSH1 0x40 MLOAD SWAP1 ISZERO ISZERO DUP2 MSTORE PUSH1 0x20 ADD PUSH2 0xD3 JUMP JUMPDEST PUSH2 0x12E PUSH2 0x232 JUMP JUMPDEST PUSH1 0x1 SLOAD PUSH2 0x1CD SWAP1 PUSH2 0x100 SWAP1 DIV PUSH1 0xFF AND DUP2 JUMP JUMPDEST PUSH1 0x40 MLOAD PUSH1 0xFF SWAP1 SWAP2 AND DUP2 MSTORE PUSH1 0x20 ADD PUSH2 0xD3 JUMP JUMPDEST PUSH2 0x12E PUSH2 0x1ED CALLDATASIZE PUSH1 0x4 PUSH2 0x286 JUMP JUMPDEST PUSH1 0x1 DUP1 SLOAD PUSH1 0xFF NOT AND SWAP2 ISZERO ISZERO SWAP2 SWAP1 SWAP2 OR SWAP1 SSTORE JUMP JUMPDEST PUSH1 0x1 DUP1 SLOAD PUSH2 0x100 SWAP1 DIV PUSH1 0xFF AND SWAP1 DUP1 PUSH2 0x217 DUP4 PUSH2 0x2DE JUMP JUMPDEST SWAP2 SWAP1 PUSH2 0x100 EXP DUP2 SLOAD DUP2 PUSH1 0xFF MUL NOT AND SWAP1 DUP4 PUSH1 0xFF AND MUL OR SWAP1 SSTORE POP POP JUMP JUMPDEST PUSH1 0x1 DUP1 SLOAD PUSH2 0x100 SWAP1 DIV PUSH1 0xFF AND SWAP1 DUP1 PUSH2 0x217 DUP4 PUSH2 0x2C1 JUMP JUMPDEST PUSH1 0x0 PUSH1 0x20 DUP3 DUP5 SUB SLT ISZERO PUSH2 0x25B JUMPI PUSH1 0x0 DUP1 REVERT JUMPDEST DUP2 CALLDATALOAD PUSH20 0xFFFFFFFFFFFFFFFFFFFFFFFFFFFFFFFFFFFFFFFF DUP2 AND DUP2 EQ PUSH2 0x27F JUMPI PUSH1 0x0 DUP1 REVERT JUMPDEST SWAP4 SWAP3 POP POP POP JUMP JUMPDEST PUSH1 0x0 PUSH1 0x20 DUP3 DUP5 SUB SLT ISZERO PUSH2 0x298 JUMPI PUSH1 0x0 DUP1 REVERT JUMPDEST DUP2 CALLDATALOAD DUP1 ISZERO ISZERO DUP2 EQ PUSH2 0x27F JUMPI PUSH1 0x0 DUP1 REVERT JUMPDEST PUSH1 0x0 PUSH1 0x20 DUP3 DUP5 SUB SLT ISZERO PUSH2 0x2BA JUMPI PUSH1 0x0 DUP1 REVERT JUMPDEST POP CALLDATALOAD SWAP2 SWAP1 POP JUMP JUMPDEST PUSH1 0x0 PUSH1 0xFF DUP3 AND DUP1 PUSH2 0x2D4 JUMPI PUSH2 0x2D4 PUSH2 0x2FE JUMP JUMPDEST PUSH1 0x0 NOT ADD SWAP3 SWAP2 POP POP JUMP JUMPDEST PUSH1 0x0 PUSH1 0xFF DUP3 AND PUSH1 0xFF DUP2 EQ ISZERO PUSH2 0x2F5 JUMPI PUSH2 0x2F5 PUSH2 0x2FE JUMP JUMPDEST PUSH1 0x1 ADD SWAP3 SWAP2 POP POP JUMP JUMPDEST PUSH32 0x4E487B7100000000000000000000000000000000000000000000000000000000 PUSH1 0x0 MSTORE PUSH1 0x11 PUSH1 0x4 MSTORE PUSH1 0x24 PUSH1 0x0 REVERT INVALID LOG2 PUSH5 0x6970667358 0x22 SLT KECCAK256 0xAC POP SWAP11 DUP1 BLOCKHASH 0xF8 PUSH16 0xE1CBA58ABC37838A299E0FF06F0E6CF LT 0xCB 0xB8 0xE1 0xDB BLOCKHASH 0xE4 0xF9 0xBE PUSH5 0x736F6C6343 STOP ADDMOD SMOD STOP CALLER "
				},
				"gasEstimates": {
					"creation": {
						"codeDepositCost": "173400",
						"executionCost": "220",
						"totalCost": "173620"
					},
					"external": {
						"decrementUint()": "20813",
						"getBalance()": "170",
						"incrementUint()": "20842",
						"myAdress()": "429",
						"myBool()": "437",
						"myUint()": "390",
						"myUint8()": "495",
						"setAdress(address)": "20527",
						"setMyBool(bool)": "20575",
						"setMyuint(uint256)": "20306"
					}
				},
				"methodIdentifiers": {
					"decrementUint()": "da50eaee",
					"getBalance()": "12065fe0",
					"incrementUint()": "14bf43bd",
					"myAdress()": "6ca14bfd",
					"myBool()": "6deecdbe",
					"myUint()": "06540f7e",
					"myUint8()": "e2a4b2af",
					"setAdress(address)": "0e807d6e",
					"setMyBool(bool)": "eb1b30d9",
					"setMyuint(uint256)": "66335767"
				}
			},
			"storageLayout": {
				"storage": [
					{
						"astId": 3,
						"contract": "Variables.sol:Workingwithvariables",
						"label": "myUint",
						"offset": 0,
						"slot": "0",
						"type": "t_uint256"
					},
					{
						"astId": 15,
						"contract": "Variables.sol:Workingwithvariables",
						"label": "myBool",
						"offset": 0,
						"slot": "1",
						"type": "t_bool"
					},
					{
						"astId": 27,
						"contract": "Variables.sol:Workingwithvariables",
						"label": "myUint8",
						"offset": 1,
						"slot": "1",
						"type": "t_uint8"
					},
					{
						"astId": 43,
						"contract": "Variables.sol:Workingwithvariables",
						"label": "myAdress",
						"offset": 2,
						"slot": "1",
						"type": "t_address"
					}
				],
				"types": {
					"t_address": {
						"encoding": "inplace",
						"label": "address",
						"numberOfBytes": "20"
					},
					"t_bool": {
						"encoding": "inplace",
						"label": "bool",
						"numberOfBytes": "1"
					},
					"t_uint256": {
						"encoding": "inplace",
						"label": "uint256",
						"numberOfBytes": "32"
					},
					"t_uint8": {
						"encoding": "inplace",
						"label": "uint8",
						"numberOfBytes": "1"
					}
				}
			},
			"userdoc": {
				"kind": "user",
				"methods": {},
				"version": 1
			}
		}
	}
}